{
  "contractName": "RegistryFactory",
  "abi": [
    {
      "constant": false,
      "inputs": [],
      "name": "renounceOwnership",
      "outputs": [],
      "payable": false,
      "stateMutability": "nonpayable",
      "type": "function"
    },
    {
      "constant": true,
      "inputs": [],
      "name": "baseRegistry",
      "outputs": [
        {
          "name": "",
          "type": "address"
        }
      ],
      "payable": false,
      "stateMutability": "view",
      "type": "function"
    },
    {
      "constant": true,
      "inputs": [],
      "name": "owner",
      "outputs": [
        {
          "name": "",
          "type": "address"
        }
      ],
      "payable": false,
      "stateMutability": "view",
      "type": "function"
    },
    {
      "constant": true,
      "inputs": [],
      "name": "isOwner",
      "outputs": [
        {
          "name": "",
          "type": "bool"
        }
      ],
      "payable": false,
      "stateMutability": "view",
      "type": "function"
    },
    {
      "constant": false,
      "inputs": [
        {
          "name": "newOwner",
          "type": "address"
        }
      ],
      "name": "transferOwnership",
      "outputs": [],
      "payable": false,
      "stateMutability": "nonpayable",
      "type": "function"
    },
    {
      "constant": true,
      "inputs": [],
      "name": "reserveToken",
      "outputs": [
        {
          "name": "",
          "type": "address"
        }
      ],
      "payable": false,
      "stateMutability": "view",
      "type": "function"
    },
    {
      "inputs": [
        {
          "name": "_baseRegistry",
          "type": "address"
        }
      ],
      "payable": false,
      "stateMutability": "nonpayable",
      "type": "constructor"
    },
    {
      "anonymous": false,
      "inputs": [
        {
          "indexed": false,
          "name": "creator",
          "type": "address"
        },
        {
          "indexed": false,
          "name": "token",
          "type": "address"
        },
        {
          "indexed": false,
          "name": "registry",
          "type": "address"
        },
        {
          "indexed": false,
          "name": "name",
          "type": "string"
        },
        {
          "indexed": false,
          "name": "description",
          "type": "string"
        }
      ],
      "name": "_RegistryCreated",
      "type": "event"
    },
    {
      "anonymous": false,
      "inputs": [
        {
          "indexed": false,
          "name": "parameter",
          "type": "string"
        },
        {
          "indexed": false,
          "name": "newAddress",
          "type": "address"
        }
      ],
      "name": "_BasicParameterUpdated",
      "type": "event"
    },
    {
      "anonymous": false,
      "inputs": [
        {
          "indexed": true,
          "name": "previousOwner",
          "type": "address"
        },
        {
          "indexed": true,
          "name": "newOwner",
          "type": "address"
        }
      ],
      "name": "OwnershipTransferred",
      "type": "event"
    },
    {
      "constant": false,
      "inputs": [
        {
          "name": "_tokenName",
          "type": "string"
        },
        {
          "name": "_decimals",
          "type": "uint8"
        },
        {
          "name": "_symbol",
          "type": "string"
        },
        {
          "name": "_parameters",
          "type": "uint256[]"
        },
        {
          "name": "_registryName",
          "type": "string"
        },
        {
          "name": "_description",
          "type": "string"
        },
        {
          "name": "_acceptedDataType",
          "type": "string"
        }
      ],
      "name": "newSimpleTCR",
      "outputs": [
        {
          "name": "",
          "type": "address"
        }
      ],
      "payable": false,
      "stateMutability": "nonpayable",
      "type": "function"
    },
    {
      "constant": false,
      "inputs": [
        {
          "name": "_newRegistry",
          "type": "address"
        }
      ],
      "name": "setBaseRegistry",
      "outputs": [],
      "payable": false,
      "stateMutability": "nonpayable",
      "type": "function"
    }
  ],
  "bytecode": "0x608060405234801561001057600080fd5b506040516020806161bc83398101806040528101908080519060200190929190505050336000806101000a81548173ffffffffffffffffffffffffffffffffffffffff021916908373ffffffffffffffffffffffffffffffffffffffff1602179055506000809054906101000a900473ffffffffffffffffffffffffffffffffffffffff1673ffffffffffffffffffffffffffffffffffffffff16600073ffffffffffffffffffffffffffffffffffffffff167f8be0079c531659141344cd1fd0a4f28419497f9722a3daafe3b4186f6b6457e060405160405180910390a380600160006101000a81548173ffffffffffffffffffffffffffffffffffffffff021916908373ffffffffffffffffffffffffffffffffffffffff1602179055505061607c806101406000396000f30060806040526004361062000097576000357c0100000000000000000000000000000000000000000000000000000000900463ffffffff16806320111429146200009c57806330f116ec14620000e2578063715018a614620002f65780638abc95e914620003105780638da5cb5b146200036a5780638f32d59b14620003c4578063f2fde38b14620003f6578063f4325d67146200043c575b600080fd5b348015620000a957600080fd5b50620000e0600480360381019080803573ffffffffffffffffffffffffffffffffffffffff16906020019092919050505062000496565b005b348015620000ef57600080fd5b50620002b4600480360381019080803590602001908201803590602001908080601f0160208091040260200160405190810160405280939291908181526020018383808284378201915050505050509192919290803560ff169060200190929190803590602001908201803590602001908080601f016020809104026020016040519081016040528093929190818152602001838380828437820191505050505050919291929080359060200190820180359060200190808060200260200160405190810160405280939291908181526020018383602002808284378201915050505050509192919290803590602001908201803590602001908080601f0160208091040260200160405190810160405280939291908181526020018383808284378201915050505050509192919290803590602001908201803590602001908080601f0160208091040260200160405190810160405280939291908181526020018383808284378201915050505050509192919290803590602001908201803590602001908080601f01602080910402602001604051908101604052809392919081815260200183838082843782019150505050505091929192905050506200058c565b604051808273ffffffffffffffffffffffffffffffffffffffff1673ffffffffffffffffffffffffffffffffffffffff16815260200191505060405180910390f35b3480156200030357600080fd5b506200030e62000a63565b005b3480156200031d57600080fd5b506200032862000b38565b604051808273ffffffffffffffffffffffffffffffffffffffff1673ffffffffffffffffffffffffffffffffffffffff16815260200191505060405180910390f35b3480156200037757600080fd5b506200038262000b5e565b604051808273ffffffffffffffffffffffffffffffffffffffff1673ffffffffffffffffffffffffffffffffffffffff16815260200191505060405180910390f35b348015620003d157600080fd5b50620003dc62000b87565b604051808215151515815260200191505060405180910390f35b3480156200040357600080fd5b506200043a600480360381019080803573ffffffffffffffffffffffffffffffffffffffff16906020019092919050505062000bde565b005b3480156200044957600080fd5b506200045462000c02565b604051808273ffffffffffffffffffffffffffffffffffffffff1673ffffffffffffffffffffffffffffffffffffffff16815260200191505060405180910390f35b620004a062000b87565b1515620004ac57600080fd5b80600160006101000a81548173ffffffffffffffffffffffffffffffffffffffff021916908373ffffffffffffffffffffffffffffffffffffffff1602179055507fc7fe5223e50a245d026c6b4e3caac1b3df14d3e3a27bd85a14c7ade7b1a288a28160405180806020018373ffffffffffffffffffffffffffffffffffffffff1673ffffffffffffffffffffffffffffffffffffffff1681526020018281038252600c8152602001807f62617365526567697374727900000000000000000000000000000000000000008152506020019250505060405180910390a150565b600080600089888a6200059e62000d23565b8080602001806020018460ff1660ff168152602001838103835286818151815260200191508051906020019080838360005b83811015620005ed578082015181840152602081019050620005d0565b50505050905090810190601f1680156200061b5780820380516001836020036101000a031916815260200191505b50838103825285818151815260200191508051906020019080838360005b838110156200065657808201518184015260208101905062000639565b50505050905090810190601f168015620006845780820380516001836020036101000a031916815260200191505b5095505050505050604051809103906000f080158015620006a9573d6000803e3d6000fd5b509150858585848a620006bb62000d34565b808060200180602001806020018673ffffffffffffffffffffffffffffffffffffffff1673ffffffffffffffffffffffffffffffffffffffff1681526020018060200185810385528a818151815260200191508051906020019080838360005b83811015620007385780820151818401526020810190506200071b565b50505050905090810190601f168015620007665780820380516001836020036101000a031916815260200191505b50858103845289818151815260200191508051906020019080838360005b83811015620007a157808201518184015260208101905062000784565b50505050905090810190601f168015620007cf5780820380516001836020036101000a031916815260200191505b50858103835288818151815260200191508051906020019080838360005b838110156200080a578082015181840152602081019050620007ed565b50505050905090810190601f168015620008385780820380516001836020036101000a031916815260200191505b50858103825286818151815260200191508051906020019060200280838360005b838110156200087657808201518184015260208101905062000859565b505050509050019950505050505050505050604051809103906000f080158015620008a5573d6000803e3d6000fd5b5090507fcf9fe6ff518d38d7f5b35599e539c5b42fb2dcb83fbdb87a35476d1f973ed5493383838989604051808673ffffffffffffffffffffffffffffffffffffffff1673ffffffffffffffffffffffffffffffffffffffff1681526020018573ffffffffffffffffffffffffffffffffffffffff1673ffffffffffffffffffffffffffffffffffffffff1681526020018473ffffffffffffffffffffffffffffffffffffffff1673ffffffffffffffffffffffffffffffffffffffff1681526020018060200180602001838103835285818151815260200191508051906020019080838360005b83811015620009aa5780820151818401526020810190506200098d565b50505050905090810190601f168015620009d85780820380516001836020036101000a031916815260200191505b50838103825284818151815260200191508051906020019080838360005b8381101562000a13578082015181840152602081019050620009f6565b50505050905090810190601f16801562000a415780820380516001836020036101000a031916815260200191505b5097505050505050505060405180910390a18092505050979650505050505050565b62000a6d62000b87565b151562000a7957600080fd5b600073ffffffffffffffffffffffffffffffffffffffff166000809054906101000a900473ffffffffffffffffffffffffffffffffffffffff1673ffffffffffffffffffffffffffffffffffffffff167f8be0079c531659141344cd1fd0a4f28419497f9722a3daafe3b4186f6b6457e060405160405180910390a360008060006101000a81548173ffffffffffffffffffffffffffffffffffffffff021916908373ffffffffffffffffffffffffffffffffffffffff160217905550565b600160009054906101000a900473ffffffffffffffffffffffffffffffffffffffff1681565b60008060009054906101000a900473ffffffffffffffffffffffffffffffffffffffff16905090565b60008060009054906101000a900473ffffffffffffffffffffffffffffffffffffffff1673ffffffffffffffffffffffffffffffffffffffff163373ffffffffffffffffffffffffffffffffffffffff1614905090565b62000be862000b87565b151562000bf457600080fd5b62000bff8162000c28565b50565b600260009054906101000a900473ffffffffffffffffffffffffffffffffffffffff1681565b600073ffffffffffffffffffffffffffffffffffffffff168173ffffffffffffffffffffffffffffffffffffffff161415151562000c6557600080fd5b8073ffffffffffffffffffffffffffffffffffffffff166000809054906101000a900473ffffffffffffffffffffffffffffffffffffffff1673ffffffffffffffffffffffffffffffffffffffff167f8be0079c531659141344cd1fd0a4f28419497f9722a3daafe3b4186f6b6457e060405160405180910390a3806000806101000a81548173ffffffffffffffffffffffffffffffffffffffff021916908373ffffffffffffffffffffffffffffffffffffffff16021790555050565b6040516116a08062000d4683390190565b604051613c6b80620023e683390190560060806040523480156200001157600080fd5b50604051620016a0380380620016a0833981018060405281019080805182019291906020018051820192919060200180519060200190929190505050826003908051906020019062000065929190620000a3565b5081600490805190602001906200007e929190620000a3565b5080600560006101000a81548160ff021916908360ff16021790555050505062000152565b828054600181600116156101000203166002900490600052602060002090601f016020900481019282601f10620000e657805160ff191683800117855562000117565b8280016001018555821562000117579182015b8281111562000116578251825591602001919060010190620000f9565b5b5090506200012691906200012a565b5090565b6200014f91905b808211156200014b57600081600090555060010162000131565b5090565b90565b61153e80620001626000396000f3006080604052600436106100c5576000357c0100000000000000000000000000000000000000000000000000000000900463ffffffff16806306fdde03146100ca578063095ea7b31461015a57806318160ddd146101bf57806323b872dd146101ea578063313ce5671461026f57806339509351146102a057806370a082311461030557806395d89b411461035c578063a457c2d7146103ec578063a6f2ae3a14610451578063a9059cbb14610473578063dd62ed3e146104d8578063e4849b321461054f575b600080fd5b3480156100d657600080fd5b506100df610587565b6040518080602001828103825283818151815260200191508051906020019080838360005b8381101561011f578082015181840152602081019050610104565b50505050905090810190601f16801561014c5780820380516001836020036101000a031916815260200191505b509250505060405180910390f35b34801561016657600080fd5b506101a5600480360381019080803573ffffffffffffffffffffffffffffffffffffffff16906020019092919080359060200190929190505050610629565b604051808215151515815260200191505060405180910390f35b3480156101cb57600080fd5b506101d4610756565b6040518082815260200191505060405180910390f35b3480156101f657600080fd5b50610255600480360381019080803573ffffffffffffffffffffffffffffffffffffffff169060200190929190803573ffffffffffffffffffffffffffffffffffffffff16906020019092919080359060200190929190505050610760565b604051808215151515815260200191505060405180910390f35b34801561027b57600080fd5b50610284610968565b604051808260ff1660ff16815260200191505060405180910390f35b3480156102ac57600080fd5b506102eb600480360381019080803573ffffffffffffffffffffffffffffffffffffffff1690602001909291908035906020019092919050505061097f565b604051808215151515815260200191505060405180910390f35b34801561031157600080fd5b50610346600480360381019080803573ffffffffffffffffffffffffffffffffffffffff169060200190929190505050610bb6565b6040518082815260200191505060405180910390f35b34801561036857600080fd5b50610371610bfe565b6040518080602001828103825283818151815260200191508051906020019080838360005b838110156103b1578082015181840152602081019050610396565b50505050905090810190601f1680156103de5780820380516001836020036101000a031916815260200191505b509250505060405180910390f35b3480156103f857600080fd5b50610437600480360381019080803573ffffffffffffffffffffffffffffffffffffffff16906020019092919080359060200190929190505050610ca0565b604051808215151515815260200191505060405180910390f35b610459610ed7565b604051808215151515815260200191505060405180910390f35b34801561047f57600080fd5b506104be600480360381019080803573ffffffffffffffffffffffffffffffffffffffff16906020019092919080359060200190929190505050610eee565b604051808215151515815260200191505060405180910390f35b3480156104e457600080fd5b50610539600480360381019080803573ffffffffffffffffffffffffffffffffffffffff169060200190929190803573ffffffffffffffffffffffffffffffffffffffff169060200190929190505050610f05565b6040518082815260200191505060405180910390f35b61056d60048036038101908080359060200190929190505050610f8c565b604051808215151515815260200191505060405180910390f35b606060038054600181600116156101000203166002900480601f01602080910402602001604051908101604052809291908181526020018280546001816001161561010002031660029004801561061f5780601f106105f45761010080835404028352916020019161061f565b820191906000526020600020905b81548152906001019060200180831161060257829003601f168201915b5050505050905090565b60008073ffffffffffffffffffffffffffffffffffffffff168373ffffffffffffffffffffffffffffffffffffffff161415151561066657600080fd5b81600160003373ffffffffffffffffffffffffffffffffffffffff1673ffffffffffffffffffffffffffffffffffffffff16815260200190815260200160002060008573ffffffffffffffffffffffffffffffffffffffff1673ffffffffffffffffffffffffffffffffffffffff168152602001908152602001600020819055508273ffffffffffffffffffffffffffffffffffffffff163373ffffffffffffffffffffffffffffffffffffffff167f8c5be1e5ebec7d5bd14f71427d1e84f3dd0314c0f7b2291e5b200ac8c7c3b925846040518082815260200191505060405180910390a36001905092915050565b6000600254905090565b60006107f182600160008773ffffffffffffffffffffffffffffffffffffffff1673ffffffffffffffffffffffffffffffffffffffff16815260200190815260200160002060003373ffffffffffffffffffffffffffffffffffffffff1673ffffffffffffffffffffffffffffffffffffffff1681526020019081526020016000205461103290919063ffffffff16565b600160008673ffffffffffffffffffffffffffffffffffffffff1673ffffffffffffffffffffffffffffffffffffffff16815260200190815260200160002060003373ffffffffffffffffffffffffffffffffffffffff1673ffffffffffffffffffffffffffffffffffffffff1681526020019081526020016000208190555061087c848484611053565b3373ffffffffffffffffffffffffffffffffffffffff168473ffffffffffffffffffffffffffffffffffffffff167f8c5be1e5ebec7d5bd14f71427d1e84f3dd0314c0f7b2291e5b200ac8c7c3b925600160008873ffffffffffffffffffffffffffffffffffffffff1673ffffffffffffffffffffffffffffffffffffffff16815260200190815260200160002060003373ffffffffffffffffffffffffffffffffffffffff1673ffffffffffffffffffffffffffffffffffffffff168152602001908152602001600020546040518082815260200191505060405180910390a3600190509392505050565b6000600560009054906101000a900460ff16905090565b60008073ffffffffffffffffffffffffffffffffffffffff168373ffffffffffffffffffffffffffffffffffffffff16141515156109bc57600080fd5b610a4b82600160003373ffffffffffffffffffffffffffffffffffffffff1673ffffffffffffffffffffffffffffffffffffffff16815260200190815260200160002060008673ffffffffffffffffffffffffffffffffffffffff1673ffffffffffffffffffffffffffffffffffffffff1681526020019081526020016000205461121f90919063ffffffff16565b600160003373ffffffffffffffffffffffffffffffffffffffff1673ffffffffffffffffffffffffffffffffffffffff16815260200190815260200160002060008573ffffffffffffffffffffffffffffffffffffffff1673ffffffffffffffffffffffffffffffffffffffff168152602001908152602001600020819055508273ffffffffffffffffffffffffffffffffffffffff163373ffffffffffffffffffffffffffffffffffffffff167f8c5be1e5ebec7d5bd14f71427d1e84f3dd0314c0f7b2291e5b200ac8c7c3b925600160003373ffffffffffffffffffffffffffffffffffffffff1673ffffffffffffffffffffffffffffffffffffffff16815260200190815260200160002060008773ffffffffffffffffffffffffffffffffffffffff1673ffffffffffffffffffffffffffffffffffffffff168152602001908152602001600020546040518082815260200191505060405180910390a36001905092915050565b60008060008373ffffffffffffffffffffffffffffffffffffffff1673ffffffffffffffffffffffffffffffffffffffff168152602001908152602001600020549050919050565b606060048054600181600116156101000203166002900480601f016020809104026020016040519081016040528092919081815260200182805460018160011615610100020316600290048015610c965780601f10610c6b57610100808354040283529160200191610c96565b820191906000526020600020905b815481529060010190602001808311610c7957829003601f168201915b5050505050905090565b60008073ffffffffffffffffffffffffffffffffffffffff168373ffffffffffffffffffffffffffffffffffffffff1614151515610cdd57600080fd5b610d6c82600160003373ffffffffffffffffffffffffffffffffffffffff1673ffffffffffffffffffffffffffffffffffffffff16815260200190815260200160002060008673ffffffffffffffffffffffffffffffffffffffff1673ffffffffffffffffffffffffffffffffffffffff1681526020019081526020016000205461103290919063ffffffff16565b600160003373ffffffffffffffffffffffffffffffffffffffff1673ffffffffffffffffffffffffffffffffffffffff16815260200190815260200160002060008573ffffffffffffffffffffffffffffffffffffffff1673ffffffffffffffffffffffffffffffffffffffff168152602001908152602001600020819055508273ffffffffffffffffffffffffffffffffffffffff163373ffffffffffffffffffffffffffffffffffffffff167f8c5be1e5ebec7d5bd14f71427d1e84f3dd0314c0f7b2291e5b200ac8c7c3b925600160003373ffffffffffffffffffffffffffffffffffffffff1673ffffffffffffffffffffffffffffffffffffffff16815260200190815260200160002060008773ffffffffffffffffffffffffffffffffffffffff1673ffffffffffffffffffffffffffffffffffffffff168152602001908152602001600020546040518082815260200191505060405180910390a36001905092915050565b6000610ee7336103e83402611240565b6001905090565b6000610efb338484611053565b6001905092915050565b6000600160008473ffffffffffffffffffffffffffffffffffffffff1673ffffffffffffffffffffffffffffffffffffffff16815260200190815260200160002060008373ffffffffffffffffffffffffffffffffffffffff1673ffffffffffffffffffffffffffffffffffffffff16815260200190815260200160002054905092915050565b600080610fa46103e88461139490919063ffffffff16565b9050803073ffffffffffffffffffffffffffffffffffffffff163110151515610fcc57600080fd5b610fd7333085611053565b3373ffffffffffffffffffffffffffffffffffffffff166108fc829081150290604051600060405180830381858888f1935050505015801561101d573d6000803e3d6000fd5b5061102830846113be565b6001915050919050565b60008083831115151561104457600080fd5b82840390508091505092915050565b600073ffffffffffffffffffffffffffffffffffffffff168273ffffffffffffffffffffffffffffffffffffffff161415151561108f57600080fd5b6110e0816000808673ffffffffffffffffffffffffffffffffffffffff1673ffffffffffffffffffffffffffffffffffffffff1681526020019081526020016000205461103290919063ffffffff16565b6000808573ffffffffffffffffffffffffffffffffffffffff1673ffffffffffffffffffffffffffffffffffffffff16815260200190815260200160002081905550611173816000808573ffffffffffffffffffffffffffffffffffffffff1673ffffffffffffffffffffffffffffffffffffffff1681526020019081526020016000205461121f90919063ffffffff16565b6000808473ffffffffffffffffffffffffffffffffffffffff1673ffffffffffffffffffffffffffffffffffffffff168152602001908152602001600020819055508173ffffffffffffffffffffffffffffffffffffffff168373ffffffffffffffffffffffffffffffffffffffff167fddf252ad1be2c89b69c2b068fc378daa952ba7f163c4a11628f55a4df523b3ef836040518082815260200191505060405180910390a3505050565b600080828401905083811015151561123657600080fd5b8091505092915050565b600073ffffffffffffffffffffffffffffffffffffffff168273ffffffffffffffffffffffffffffffffffffffff161415151561127c57600080fd5b6112918160025461121f90919063ffffffff16565b6002819055506112e8816000808573ffffffffffffffffffffffffffffffffffffffff1673ffffffffffffffffffffffffffffffffffffffff1681526020019081526020016000205461121f90919063ffffffff16565b6000808473ffffffffffffffffffffffffffffffffffffffff1673ffffffffffffffffffffffffffffffffffffffff168152602001908152602001600020819055508173ffffffffffffffffffffffffffffffffffffffff16600073ffffffffffffffffffffffffffffffffffffffff167fddf252ad1be2c89b69c2b068fc378daa952ba7f163c4a11628f55a4df523b3ef836040518082815260200191505060405180910390a35050565b6000806000831115156113a657600080fd5b82848115156113b157fe5b0490508091505092915050565b600073ffffffffffffffffffffffffffffffffffffffff168273ffffffffffffffffffffffffffffffffffffffff16141515156113fa57600080fd5b61140f8160025461103290919063ffffffff16565b600281905550611466816000808573ffffffffffffffffffffffffffffffffffffffff1673ffffffffffffffffffffffffffffffffffffffff1681526020019081526020016000205461103290919063ffffffff16565b6000808473ffffffffffffffffffffffffffffffffffffffff1673ffffffffffffffffffffffffffffffffffffffff16815260200190815260200160002081905550600073ffffffffffffffffffffffffffffffffffffffff168273ffffffffffffffffffffffffffffffffffffffff167fddf252ad1be2c89b69c2b068fc378daa952ba7f163c4a11628f55a4df523b3ef836040518082815260200191505060405180910390a350505600a165627a7a72305820467c8657a97926ae835d4abcd807da3441bef0a67ffcf8183d4018c3d3046835002960806040523480156200001157600080fd5b5060405162003c6b38038062003c6b833981018060405281019080805182019291906020018051820192919060200180518201929190602001805190602001909291908051820192919050505060008273ffffffffffffffffffffffffffffffffffffffff1614158015620000be57506000600160009054906101000a900473ffffffffffffffffffffffffffffffffffffffff1673ffffffffffffffffffffffffffffffffffffffff16145b1515620000ca57600080fd5b8460009080519060200190620000e29291906200053b565b508360029080519060200190620000fb9291906200053b565b508260039080519060200190620001149291906200053b565b506040805190810160405280600681526020017f53494d504c45000000000000000000000000000000000000000000000000000081525060049080519060200190620001629291906200053b565b506040805190810160405280600681526020017f53494d504c45000000000000000000000000000000000000000000000000000081525060059080519060200190620001b09291906200053b565b506040805190810160405280600681526020017f53494d504c45000000000000000000000000000000000000000000000000000081525060079080519060200190620001fe9291906200053b565b506040805190810160405280600581526020017f4552433230000000000000000000000000000000000000000000000000000000815250600690805190602001906200024c9291906200053b565b5081600160006101000a81548173ffffffffffffffffffffffffffffffffffffffff021916908373ffffffffffffffffffffffffffffffffffffffff160217905550620002f76040805190810160405280600f81526020017f72657175697265644465706f7369740000000000000000000000000000000000815250826000815181101515620002d857fe5b9060200190602002015162000445640100000000026401000000009004565b620003606040805190810160405280600d81526020017f6170706c7953746167654c656e000000000000000000000000000000000000008152508260018151811015156200034157fe5b9060200190602002015162000445640100000000026401000000009004565b620003c96040805190810160405280600c81526020017f766f746553746167654c656e0000000000000000000000000000000000000000815250826002815181101515620003aa57fe5b9060200190602002015162000445640100000000026401000000009004565b620004326040805190810160405280600f81526020017f64697370656e736174696f6e50637400000000000000000000000000000000008152508260038151811015156200041357fe5b9060200190602002015162000445640100000000026401000000009004565b60006008819055505050505050620005ea565b80600b6000846040516020018082805190602001908083835b6020831015156200048557805182526020820191506020810190506020830392506200045e565b6001836020036101000a0380198251168184511680821785525050505050509050019150506040516020818303038152906040526040518082805190602001908083835b602083101515620004f05780518252602082019150602081019050602083039250620004c9565b6001836020036101000a038019825116818451168082178552505050505050905001915050604051809103902060001916600019168152602001908152602001600020819055505050565b828054600181600116156101000203166002900490600052602060002090601f016020900481019282601f106200057e57805160ff1916838001178555620005af565b82800160010185558215620005af579182015b82811115620005ae57825182559160200191906001019062000591565b5b509050620005be9190620005c2565b5090565b620005e791905b80821115620005e3576000816000905550600101620005c9565b5090565b90565b61367180620005fa6000396000f3006080604052600436106101b7576000357c0100000000000000000000000000000000000000000000000000000000900463ffffffff16806301a5e3fe146101bc57806306fdde031461020557806307eb9c2a1461029557806313720578146102f65780631b7bbecb146103865780633b930294146103cb578063401bf084146104225780634250d2f41461044d578063691a38ab14610492578063693ec85e146104db5780637284e41614610558578063762ddcf5146105e857806377609a411461069257806389bb55c7146106db5780638a59eb561461072e5780638cf8151f1461075f5780638f1d3776146107a85780639e647aac1461084a578063a1bbfc05146108c7578063a210a8ce14610916578063a25236fe146109a6578063a4439dc5146109d3578063a8931a8214610a18578063aad4cad014610a43578063bd0ae40514610a70578063c18b8db414610ad1578063c512d8f714610b70578063c893b82f14610c00578063d9548e5314610c2d578063dc6ab52714610c72578063dd677cda14610cb7578063ebd969bb14610d47578063f8d9c26714610d90578063fc0c546a14610e20578063fd48cc4514610e77575b600080fd5b3480156101c857600080fd5b506101eb6004803603810190808035600019169060200190929190505050610ede565b604051808215151515815260200191505060405180910390f35b34801561021157600080fd5b5061021a610f13565b6040518080602001828103825283818151815260200191508051906020019080838360005b8381101561025a57808201518184015260208101905061023f565b50505050905090810190601f1680156102875780820380516001836020036101000a031916815260200191505b509250505060405180910390f35b3480156102a157600080fd5b506102e0600480360381019080803573ffffffffffffffffffffffffffffffffffffffff16906020019092919080359060200190929190505050610fb5565b6040518082815260200191505060405180910390f35b34801561030257600080fd5b5061030b610fc2565b6040518080602001828103825283818151815260200191508051906020019080838360005b8381101561034b578082015181840152602081019050610330565b50505050905090810190601f1680156103785780820380516001836020036101000a031916815260200191505b509250505060405180910390f35b34801561039257600080fd5b506103b56004803603810190808035600019169060200190929190505050611064565b6040518082815260200191505060405180910390f35b3480156103d757600080fd5b5061040c600480360381019080803573ffffffffffffffffffffffffffffffffffffffff1690602001909291905050506110d0565b6040518082815260200191505060405180910390f35b34801561042e57600080fd5b506104376110e8565b6040518082815260200191505060405180910390f35b34801561045957600080fd5b50610478600480360381019080803590602001909291905050506110ee565b604051808215151515815260200191505060405180910390f35b34801561049e57600080fd5b506104c16004803603810190808035600019169060200190929190505050611116565b604051808215151515815260200191505060405180910390f35b3480156104e757600080fd5b50610542600480360381019080803590602001908201803590602001908080601f01602080910402602001604051908101604052809392919081815260200183838082843782019150505050505091929192905050506111d5565b6040518082815260200191505060405180910390f35b34801561056457600080fd5b5061056d6112c8565b6040518080602001828103825283818151815260200191508051906020019080838360005b838110156105ad578082015181840152602081019050610592565b50505050905090810190601f1680156105da5780820380516001836020036101000a031916815260200191505b509250505060405180910390f35b3480156105f457600080fd5b50610617600480360381019080803560001916906020019092919050505061136a565b6040518080602001828103825283818151815260200191508051906020019080838360005b8381101561065757808201518184015260208101905061063c565b50505050905090810190601f1680156106845780820380516001836020036101000a031916815260200191505b509250505060405180910390f35b34801561069e57600080fd5b506106c160048036038101908080356000191690602001909291905050506113ae565b604051808215151515815260200191505060405180910390f35b3480156106e757600080fd5b5061072c6004803603810190808035600019169060200190929190803590602001909291908035906020019082018035906020019190919293919293905050506113fa565b005b34801561073a57600080fd5b5061075d600480360381019080803560001916906020019092919050505061171e565b005b34801561076b57600080fd5b5061078e600480360381019080803560001916906020019092919050505061175f565b604051808215151515815260200191505060405180910390f35b3480156107b457600080fd5b506107d360048036038101908080359060200190929190505050611789565b604051808973ffffffffffffffffffffffffffffffffffffffff1673ffffffffffffffffffffffffffffffffffffffff168152602001881515151581526020018781526020018681526020018581526020018481526020018381526020018281526020019850505050505050505060405180910390f35b34801561085657600080fd5b506108b1600480360381019080803590602001908201803590602001908080601f01602080910402602001604051908101604052809392919081815260200183838082843782019150505050505091929192905050506117fe565b6040518082815260200191505060405180910390f35b3480156108d357600080fd5b506109146004803603810190808035906020019092919080359060200190929190803590602001908201803590602001919091929391929390505050611810565b005b34801561092257600080fd5b5061092b611d6b565b6040518080602001828103825283818151815260200191508051906020019080838360005b8381101561096b578082015181840152602081019050610950565b50505050905090810190601f1680156109985780820380516001836020036101000a031916815260200191505b509250505060405180910390f35b3480156109b257600080fd5b506109d160048036038101908080359060200190929190505050611e0d565b005b3480156109df57600080fd5b506109fe60048036038101908080359060200190929190505050612138565b604051808215151515815260200191505060405180910390f35b348015610a2457600080fd5b50610a2d612166565b6040518082815260200191505060405180910390f35b348015610a4f57600080fd5b50610a6e6004803603810190808035906020019092919050505061216b565b005b348015610a7c57600080fd5b50610abb600480360381019080803573ffffffffffffffffffffffffffffffffffffffff16906020019092919080359060200190929190505050612227565b6040518082815260200191505060405180910390f35b348015610add57600080fd5b50610b0060048036038101908080356000191690602001909291905050506124b3565b60405180888152602001871515151581526020018673ffffffffffffffffffffffffffffffffffffffff1673ffffffffffffffffffffffffffffffffffffffff16815260200185815260200184815260200183815260200182815260200197505050505050505060405180910390f35b348015610b7c57600080fd5b50610b85612522565b6040518080602001828103825283818151815260200191508051906020019080838360005b83811015610bc5578082015181840152602081019050610baa565b50505050905090810190601f168015610bf25780820380516001836020036101000a031916815260200191505b509250505060405180910390f35b348015610c0c57600080fd5b50610c2b600480360381019080803590602001909291905050506125c4565b005b348015610c3957600080fd5b50610c5860048036038101908080359060200190929190505050612b08565b604051808215151515815260200191505060405180910390f35b348015610c7e57600080fd5b50610ca16004803603810190808035600019169060200190929190505050612b14565b6040518082815260200191505060405180910390f35b348015610cc357600080fd5b50610ccc612b2c565b6040518080602001828103825283818151815260200191508051906020019080838360005b83811015610d0c578082015181840152602081019050610cf1565b50505050905090810190601f168015610d395780820380516001836020036101000a031916815260200191505b509250505060405180910390f35b348015610d5357600080fd5b50610d8e6004803603810190808035600019169060200190929190803590602001908201803590602001919091929391929390505050612bce565b005b348015610d9c57600080fd5b50610da5612ce1565b6040518080602001828103825283818151815260200191508051906020019080838360005b83811015610de5578082015181840152602081019050610dca565b50505050905090810190601f168015610e125780820380516001836020036101000a031916815260200191505b509250505060405180910390f35b348015610e2c57600080fd5b50610e35612d83565b604051808273ffffffffffffffffffffffffffffffffffffffff1673ffffffffffffffffffffffffffffffffffffffff16815260200191505060405180910390f35b348015610e8357600080fd5b50610ec8600480360381019080803560001916906020019092919080359060200190929190803590602001908201803590602001919091929391929390505050612dad565b6040518082815260200191505060405180910390f35b6000600a6000836000191660001916815260200190815260200160002060010160009054906101000a900460ff169050919050565b606060008054600181600116156101000203166002900480601f016020809104026020016040519081016040528092919081815260200182805460018160011615610100020316600290048015610fab5780601f10610f8057610100808354040283529160200191610fab565b820191906000526020600020905b815481529060010190602001808311610f8e57829003601f168201915b5050505050905090565b600061012c905092915050565b606060058054600181600116156101000203166002900480601f01602080910402602001604051908101604052809291908181526020018280546001816001161561010002031660029004801561105a5780601f1061102f5761010080835404028352916020019161105a565b820191906000526020600020905b81548152906001019060200180831161103d57829003601f168201915b5050505050905090565b600080600a6000846000191660001916815260200190815260200160002060030154905060008114806110b857506009600082815260200190815260200160002060000160149054906101000a900460ff16155b156110c657600091506110ca565b8091505b50919050565b600c6020528060005260406000206000915090505481565b60085481565b600061110f6009600084815260200190815260200160002060040154612b08565b9050919050565b600080600a600084600019166000191681526020019081526020016000206003015490506111438361175f565b801561116c575042600a6000856000191660001916815260200190815260200160002060000154105b801561117e575061117c83610ede565b155b80156111bc575060008114806111bb5750600115156009600083815260200190815260200160002060000160149054906101000a900460ff161515145b5b156111ca57600191506111cf565b600091505b50919050565b6000600b6000836040516020018082805190602001908083835b60208310151561121457805182526020820191506020810190506020830392506111ef565b6001836020036101000a0380198251168184511680821785525050505050509050019150506040516020818303038152906040526040518082805190602001908083835b60208310151561127d5780518252602082019150602081019050602083039250611258565b6001836020036101000a038019825116818451168082178552505050505050905001915050604051809103902060001916600019168152602001908152602001600020549050919050565b606060028054600181600116156101000203166002900480601f0160208091040260200160405190810160405280929190818152602001828054600181600116156101000203166002900480156113605780601f1061133557610100808354040283529160200191611360565b820191906000526020600020905b81548152906001019060200180831161134357829003601f168201915b5050505050905090565b6060806040805190810160405280600281526020017f7b7d000000000000000000000000000000000000000000000000000000000000815250905080915050919050565b600080600a6000846000191660001916815260200190815260200160002060030154905060006113dd84611064565b1115156113e957600080fd5b6113f2816110ee565b915050919050565b600061140585610ede565b15151561141157600080fd5b61141a8561175f565b15151561142657600080fd5b6114646040805190810160405280600f81526020017f72657175697265644465706f73697400000000000000000000000000000000008152506111d5565b841015151561147257600080fd5b600a600086600019166000191681526020019081526020016000209050338160010160016101000a81548173ffffffffffffffffffffffffffffffffffffffff021916908373ffffffffffffffffffffffffffffffffffffffff1602179055506115226115136040805190810160405280600d81526020017f6170706c7953746167654c656e000000000000000000000000000000000000008152506111d5565b426132ea90919063ffffffff16565b8160000181905550838160020181905550600160009054906101000a900473ffffffffffffffffffffffffffffffffffffffff1673ffffffffffffffffffffffffffffffffffffffff166323b872dd8260010160019054906101000a900473ffffffffffffffffffffffffffffffffffffffff1630876040518463ffffffff167c0100000000000000000000000000000000000000000000000000000000028152600401808473ffffffffffffffffffffffffffffffffffffffff1673ffffffffffffffffffffffffffffffffffffffff1681526020018373ffffffffffffffffffffffffffffffffffffffff1673ffffffffffffffffffffffffffffffffffffffff1681526020018281526020019350505050602060405180830381600087803b15801561165057600080fd5b505af1158015611664573d6000803e3d6000fd5b505050506040513d602081101561167a57600080fd5b8101908080519060200190929190505050151561169657600080fd5b3373ffffffffffffffffffffffffffffffffffffffff1685600019167fa27f550c3c7a7c6d8369e5383fdc7a3b4850d8ce9e20066f9d496f6989f0086486846000015487876040518085815260200184815260200180602001828103825284848281815260200192508082843782019150509550505050505060405180910390a35050505050565b61172781611116565b1561173a576117358161330b565b61175c565b611743816113ae565b1561175657611751816133a9565b61175b565b600080fd5b5b50565b600080600a6000846000191660001916815260200190815260200160002060000154119050919050565b60096020528060005260406000206000915090508060000160009054906101000a900473ffffffffffffffffffffffffffffffffffffffff16908060000160149054906101000a900460ff16908060010154908060020154908060030154908060040154908060050154908060060154905088565b6000611809826111d5565b9050919050565b600080600061181e87612138565b151561182957600080fd5b60405160200180807f310000000000000000000000000000000000000000000000000000000000000081525060010190506040516020818303038152906040526040518082805190602001908083835b60208310151561189e5780518252602082019150602081019050602083039250611879565b6001836020036101000a0380198251168184511680821785525050505050509050019150506040518091039020600019168585604051602001808383808284378201915050925050506040516020818303038152906040526040518082805190602001908083835b60208310151561192b5780518252602082019150602081019050602083039250611906565b6001836020036101000a038019825116818451168082178552505050505050905001915050604051809103902060001916141561196b5760019250611ab3565b60405160200180807f300000000000000000000000000000000000000000000000000000000000000081525060010190506040516020818303038152906040526040518082805190602001908083835b6020831015156119e057805182526020820191506020810190506020830392506119bb565b6001836020036101000a0380198251168184511680821785525050505050509050019150506040518091039020600019168585604051602001808383808284378201915050925050506040516020818303038152906040526040518082805190602001908083835b602083101515611a6d5780518252602082019150602081019050602083039250611a48565b6001836020036101000a0380198251168184511680821785525050505050509050019150506040518091039020600019161415611aad5760009250611ab2565b600080fd5b5b60096000888152602001908152602001600020915060008260080160003373ffffffffffffffffffffffffffffffffffffffff1673ffffffffffffffffffffffffffffffffffffffff16815260200190815260200160002054141515611b1857600080fd5b60008714151515611b2857600080fd5b85600c60003373ffffffffffffffffffffffffffffffffffffffff1673ffffffffffffffffffffffffffffffffffffffff168152602001908152602001600020541015611bcd57611bc1600c60003373ffffffffffffffffffffffffffffffffffffffff1673ffffffffffffffffffffffffffffffffffffffff16815260200190815260200160002054876133d090919063ffffffff16565b9050611bcc81611e0d565b5b85600c60003373ffffffffffffffffffffffffffffffffffffffff1673ffffffffffffffffffffffffffffffffffffffff1681526020019081526020016000205410151515611c1b57600080fd5b858260080160003373ffffffffffffffffffffffffffffffffffffffff1673ffffffffffffffffffffffffffffffffffffffff16815260200190815260200160002081905550611c788260010154876132ea90919063ffffffff16565b82600101819055506001831415611cad57611ca08683600501546132ea90919063ffffffff16565b8260050181905550611ccd565b611cc48683600601546132ea90919063ffffffff16565b82600601819055505b828260090160003373ffffffffffffffffffffffffffffffffffffffff1673ffffffffffffffffffffffffffffffffffffffff168152602001908152602001600020819055503373ffffffffffffffffffffffffffffffffffffffff16877f119a05767ca36da71a12356456d863199cf4e96d6850f10338fa158a0011de1d886040518082815260200191505060405180910390a350505050505050565b606060038054600181600116156101000203166002900480601f016020809104026020016040519081016040528092919081815260200182805460018160011615610100020316600290048015611e035780601f10611dd857610100808354040283529160200191611e03565b820191906000526020600020905b815481529060010190602001808311611de657829003601f168201915b5050505050905090565b80600160009054906101000a900473ffffffffffffffffffffffffffffffffffffffff1673ffffffffffffffffffffffffffffffffffffffff166370a08231336040518263ffffffff167c0100000000000000000000000000000000000000000000000000000000028152600401808273ffffffffffffffffffffffffffffffffffffffff1673ffffffffffffffffffffffffffffffffffffffff168152602001915050602060405180830381600087803b158015611ecb57600080fd5b505af1158015611edf573d6000803e3d6000fd5b505050506040513d6020811015611ef557600080fd5b810190808051906020019092919050505010151515611f1357600080fd5b611f6581600c60003373ffffffffffffffffffffffffffffffffffffffff1673ffffffffffffffffffffffffffffffffffffffff168152602001908152602001600020546132ea90919063ffffffff16565b600c60003373ffffffffffffffffffffffffffffffffffffffff1673ffffffffffffffffffffffffffffffffffffffff16815260200190815260200160002081905550600160009054906101000a900473ffffffffffffffffffffffffffffffffffffffff1673ffffffffffffffffffffffffffffffffffffffff166323b872dd3330846040518463ffffffff167c0100000000000000000000000000000000000000000000000000000000028152600401808473ffffffffffffffffffffffffffffffffffffffff1673ffffffffffffffffffffffffffffffffffffffff1681526020018373ffffffffffffffffffffffffffffffffffffffff1673ffffffffffffffffffffffffffffffffffffffff1681526020018281526020019350505050602060405180830381600087803b1580156120a157600080fd5b505af11580156120b5573d6000803e3d6000fd5b505050506040513d60208110156120cb57600080fd5b810190808051906020019092919050505015156120e757600080fd5b3373ffffffffffffffffffffffffffffffffffffffff167ff7aaf024511d9982df8cd0d437c71c30106e6848cd1ba3d288d7a9c0e276aeda826040518082815260200191505060405180910390a250565b60008060096000848152602001908152602001600020905061215d8160040154612b08565b15915050919050565b600081565b60008060006009600085815260200190815260200160002092506009600085815260200190815260200160002060000160149054906101000a900460ff161515156121b557600080fd5b826006015483600501541015156121cf57600091506121d4565b600191505b600083600501541480156121ec575060008360060154145b156122005782600101546002029050612221565b61221e836003015484600101546002026133d090919063ffffffff16565b90505b50505050565b6000806000806000600960008781526020019081526020016000209350600015158460070160008973ffffffffffffffffffffffffffffffffffffffff1673ffffffffffffffffffffffffffffffffffffffff16815260200190815260200160002060009054906101000a900460ff16151514151561230e576040517f08c379a00000000000000000000000000000000000000000000000000000000081526004018080602001828103825260178152602001807f52657761726420616c72656164792072656465656d656400000000000000000081525060200191505060405180910390fd5b600115158460000160149054906101000a900460ff1615151415156123c1576040517f08c379a000000000000000000000000000000000000000000000000000000000815260040180806020018281038252603c8152602001807f4368616c6c656e6765206d757374206265207265736f6c766564206265666f7281526020017f6520747279696e6720746f20636c61696d20746865207265776172640000000081525060400191505060405180910390fd5b8360090160008873ffffffffffffffffffffffffffffffffffffffff1673ffffffffffffffffffffffffffffffffffffffff1681526020019081526020016000205492508360060154846005015410151561241f5760009150612424565b600191505b8360080160008873ffffffffffffffffffffffffffffffffffffffff1673ffffffffffffffffffffffffffffffffffffffff168152602001908152602001600020549050818314156124a45761249d846002015461248f8660030154846133f190919063ffffffff16565b61342f90919063ffffffff16565b94506124a9565b600094505b5050505092915050565b600a6020528060005260406000206000915090508060000154908060010160009054906101000a900460ff16908060010160019054906101000a900473ffffffffffffffffffffffffffffffffffffffff16908060020154908060030154908060040154908060050154905087565b606060078054600181600116156101000203166002900480601f0160208091040260200160405190810160405280929190818152602001828054600181600116156101000203166002900480156125ba5780601f1061258f576101008083540402835291602001916125ba565b820191906000526020600020905b81548152906001019060200180831161259d57829003601f168201915b5050505050905090565b6000806000600960008581526020019081526020016000209250600015158360070160003373ffffffffffffffffffffffffffffffffffffffff1673ffffffffffffffffffffffffffffffffffffffff16815260200190815260200160002060009054906101000a900460ff1615151415156126a8576040517f08c379a00000000000000000000000000000000000000000000000000000000081526004018080602001828103825260178152602001807f52657761726420616c72656164792072656465656d656400000000000000000081525060200191505060405180910390fd5b600115158360000160149054906101000a900460ff16151514151561275b576040517f08c379a000000000000000000000000000000000000000000000000000000000815260040180806020018281038252603c8152602001807f4368616c6c656e6765206d757374206265207265736f6c766564206265666f7281526020017f6520747279696e6720746f20636c61696d20746865207265776172640000000081525060400191505060405180910390fd5b6127653385612227565b91508260080160003373ffffffffffffffffffffffffffffffffffffffff1673ffffffffffffffffffffffffffffffffffffffff1681526020019081526020016000205490506000821115612958576127cb8184600201546133d090919063ffffffff16565b83600201819055506127ea8284600201546133d090919063ffffffff16565b836003018190555060018360070160003373ffffffffffffffffffffffffffffffffffffffff1673ffffffffffffffffffffffffffffffffffffffff16815260200190815260200160002060006101000a81548160ff021916908315150217905550600160009054906101000a900473ffffffffffffffffffffffffffffffffffffffff1673ffffffffffffffffffffffffffffffffffffffff1663a9059cbb33846040518363ffffffff167c0100000000000000000000000000000000000000000000000000000000028152600401808373ffffffffffffffffffffffffffffffffffffffff1673ffffffffffffffffffffffffffffffffffffffff16815260200182815260200192505050602060405180830381600087803b15801561291157600080fd5b505af1158015612925573d6000803e3d6000fd5b505050506040513d602081101561293b57600080fd5b8101908080519060200190929190505050151561295757600080fd5b5b6000811115612b02576129b381600c60003373ffffffffffffffffffffffffffffffffffffffff1673ffffffffffffffffffffffffffffffffffffffff168152602001908152602001600020546133d090919063ffffffff16565b600c60003373ffffffffffffffffffffffffffffffffffffffff1673ffffffffffffffffffffffffffffffffffffffff16815260200190815260200160002081905550600160009054906101000a900473ffffffffffffffffffffffffffffffffffffffff1673ffffffffffffffffffffffffffffffffffffffff1663a9059cbb33836040518363ffffffff167c0100000000000000000000000000000000000000000000000000000000028152600401808373ffffffffffffffffffffffffffffffffffffffff1673ffffffffffffffffffffffffffffffffffffffff16815260200182815260200192505050602060405180830381600087803b158015612abb57600080fd5b505af1158015612acf573d6000803e3d6000fd5b505050506040513d6020811015612ae557600080fd5b81019080805190602001909291905050501515612b0157600080fd5b5b50505050565b60008142119050919050565b600b6020528060005260406000206000915090505481565b606060048054600181600116156101000203166002900480601f016020809104026020016040519081016040528092919081815260200182805460018160011615610100020316600290048015612bc45780601f10612b9957610100808354040283529160200191612bc4565b820191906000526020600020905b815481529060010190602001808311612ba757829003601f168201915b5050505050905090565b6000600a6000856000191660001916815260200190815260200160002090508060010160019054906101000a900473ffffffffffffffffffffffffffffffffffffffff1673ffffffffffffffffffffffffffffffffffffffff163373ffffffffffffffffffffffffffffffffffffffff16141515612c4b57600080fd5b612c5484610ede565b1515612c5f57600080fd5b600081600301541480612c965750600960008260030154815260200190815260200160002060000160149054906101000a900460ff165b1515612ca157600080fd5b612caa84613459565b83600019167f811c926c259739c92d16507624c3d249021bfa661c5a64f2187dc46e8e93c63b60405160405180910390a250505050565b606060068054600181600116156101000203166002900480601f016020809104026020016040519081016040528092919081815260200182805460018160011615610100020316600290048015612d795780601f10612d4e57610100808354040283529160200191612d79565b820191906000526020600020905b815481529060010190602001808311612d5c57829003601f168201915b5050505050905090565b6000600160009054906101000a900473ffffffffffffffffffffffffffffffffffffffff16905090565b6000806000806000600a60008a600019166000191681526020019081526020016000209350612e106040805190810160405280600f81526020017f72657175697265644465706f73697400000000000000000000000000000000008152506111d5565b92508783141515612e2057600080fd5b612e298961175f565b80612e4257508360010160009054906101000a900460ff165b1515612e4d57600080fd5b600084600301541480612e845750600960008560030154815260200190815260200160002060000160149054906101000a900460ff165b1515612e8f57600080fd5b600160085401600881905550612eeb612edc6040805190810160405280600c81526020017f766f746553746167654c656e00000000000000000000000000000000000000008152506111d5565b426132ea90919063ffffffff16565b915060649050610100604051908101604052803373ffffffffffffffffffffffffffffffffffffffff168152602001600015158152602001612f616040805190810160405280600f81526020017f72657175697265644465706f73697400000000000000000000000000000000008152506111d5565b815260200160008152602001612fe26064612fd487612fc6612fb76040805190810160405280600f81526020017f64697370656e736174696f6e50637400000000000000000000000000000000008152506111d5565b886133d090919063ffffffff16565b6133f190919063ffffffff16565b61342f90919063ffffffff16565b81526020016130256040805190810160405280600d81526020017f636f6d6d6974456e6444617465000000000000000000000000000000000000008152506111d5565b815260200160008152602001600081525060096000600854815260200190815260200160002060008201518160000160006101000a81548173ffffffffffffffffffffffffffffffffffffffff021916908373ffffffffffffffffffffffffffffffffffffffff16021790555060208201518160000160146101000a81548160ff02191690831515021790555060408201518160010155606082015181600201556080820151816003015560a0820151816004015560c0820151816005015560e0820151816006015590505060085484600301819055506131138385600201546133d090919063ffffffff16565b8460020181905550600160009054906101000a900473ffffffffffffffffffffffffffffffffffffffff1673ffffffffffffffffffffffffffffffffffffffff166323b872dd3330866040518463ffffffff167c0100000000000000000000000000000000000000000000000000000000028152600401808473ffffffffffffffffffffffffffffffffffffffff1673ffffffffffffffffffffffffffffffffffffffff1681526020018373ffffffffffffffffffffffffffffffffffffffff1673ffffffffffffffffffffffffffffffffffffffff1681526020018281526020019350505050602060405180830381600087803b15801561321457600080fd5b505af1158015613228573d6000803e3d6000fd5b505050506040513d602081101561323e57600080fd5b8101908080519060200190929190505050151561325a57600080fd5b3373ffffffffffffffffffffffffffffffffffffffff1689600019167f49b14c82c36e78a2c0af88ec58604d127b5a0513b00e6a946376374c4c1c1b256008548a8a876040518085815260200180602001838152602001828103825285858281815260200192508082843782019150509550505050505060405180910390a3600854945050505050949350505050565b600080828401905083811015151561330157600080fd5b8091505092915050565b600a6000826000191660001916815260200190815260200160002060010160009054906101000a900460ff16151561336f5780600019167fa7bc1d57d9006d9d248707c7b6828c1bab8c51719cc06d78c82a3ee891ef967c60405160405180910390a25b6001600a6000836000191660001916815260200190815260200160002060010160006101000a81548160ff02191690831515021790555050565b6000600a600083600019166000191681526020019081526020016000206003015490505050565b6000808383111515156133e257600080fd5b82840390508091505092915050565b60008060008414156134065760009150613428565b828402905082848281151561341757fe5b0414151561342457600080fd5b8091505b5092915050565b60008060008311151561344157600080fd5b828481151561344c57fe5b0490508091505092915050565b6000806000600a6000856000191660001916815260200190815260200160002092508260010160019054906101000a900473ffffffffffffffffffffffffffffffffffffffff16915082600201549050600a600085600019166000191681526020019081526020016000206000808201600090556001820160006101000a81549060ff02191690556001820160016101000a81549073ffffffffffffffffffffffffffffffffffffffff021916905560028201600090556003820160009055600482016000905560058201600090555050600081111561363f57600160009054906101000a900473ffffffffffffffffffffffffffffffffffffffff1673ffffffffffffffffffffffffffffffffffffffff1663a9059cbb83836040518363ffffffff167c0100000000000000000000000000000000000000000000000000000000028152600401808373ffffffffffffffffffffffffffffffffffffffff1673ffffffffffffffffffffffffffffffffffffffff16815260200182815260200192505050602060405180830381600087803b1580156135f857600080fd5b505af115801561360c573d6000803e3d6000fd5b505050506040513d602081101561362257600080fd5b8101908080519060200190929190505050151561363e57600080fd5b5b505050505600a165627a7a723058205328373700b4fe0d2e647c0474052917b82d6c2c7af172f83e8809e43aecc7a30029a165627a7a72305820b78be5666c5d82d974f469c993d47c24f37f09abc76bc8bb18fa6fec406a2a650029",
  "source": "pragma solidity ^0.4.24;\n\nimport \"./zeppelin/ERC20Tradable.sol\";\nimport \"./zeppelin/Ownable.sol\";\nimport \"./SimpleTCR.sol\";\n\ncontract RegistryFactory is Ownable {\n\n    event _RegistryCreated(address creator, IERC20 token, ITCR20 registry, string name, string description);\n    event _BasicParameterUpdated(string parameter, address newAddress);\n\n    // Registry factory libs and base registry\n    SimpleTCR public baseRegistry;\n    IERC20 public reserveToken;\n\n    /// @dev constructor deploys a new proxyFactory.\n    constructor(SimpleTCR _baseRegistry) public {\n        baseRegistry = _baseRegistry;\n    }\n\n    /**\n     * Create a new SimpleTCR (with the associated Bonded Token and Voting contracts)\n     * @dev ~ 2850000 gas\n     * @param _tokenName The name of the associated Token (usually the same name of the Registry)\n     * @param _decimals The number of decimals (eg: 18) of the associated Token\n     * @param _symbol The symbol (eg: DT-RBT) of the associated Token\n     * @param _parameters Initial parameters: [minDeposit, applyStageLength, voteStageLength, dispensationPct]\n     * @param _registryName Main name of the registry\n     * @param _description description of the registry\n     * @param _acceptedDataType accepted data type of the registry\n     * @return The created Registry\n     */\n    function newSimpleTCR(\n        string _tokenName,\n        uint8 _decimals,\n        string _symbol,\n        uint[] _parameters,\n        string _registryName,\n        string _description,\n        string _acceptedDataType\n    ) public returns (ITCR20) {\n        // Creates a new IERC20\n        ERC20Tradable tradableToken = new ERC20Tradable(_tokenName, _symbol, _decimals);\n\n        // Create new registry\n        SimpleTCR registry = new SimpleTCR(_registryName, _description, _acceptedDataType, tradableToken, _parameters);\n        //SimpleTCR registry = SimpleTCR(deployNewRegistry(baseRegistry));\n\n        emit _RegistryCreated(msg.sender, tradableToken, registry, _registryName, _description);\n        return registry;\n    }\n\n\n    /**\n     * Set the base Registry to be use in all future Registry creations\n     * @param _newRegistry Any Registry implementation\n     */\n    function setBaseRegistry(SimpleTCR _newRegistry) onlyOwner external {\n        baseRegistry = _newRegistry;\n        emit _BasicParameterUpdated('baseRegistry', address(_newRegistry));\n    }\n\n    /**\n     * Deploy a Copy of a contract supplied\n     * @dev THIS COULD BE REPLACED WITH A \"new Target()\" BUT FOR SOME REASON CONSUMES A LOT OF MORE GAS IN DEPLOYMENT\n     * @param _target The base contract to me copy\n     * @return newContract address of the new deployed contract\n     */\n    function deployNewRegistry(address _target) private returns (address newContract){\n        assembly {\n        // Find empty storage location using \"free memory pointer\"\n            let contractCode := mload(0x40)\n\n        // Add target address, with a 11 bytes [i.e. 23 - (32 - 20)] offset to later accomodate first part of the bytecode\n            mstore(add(contractCode, 0x0b), _target)\n\n        // First part of the bytecode, shifted left by 9 bytes, overwrites left padding of target address\n            mstore(sub(contractCode, 0x09), 0x000000000000000000603160008181600b9039f3600080808080368092803773)\n\n        // Final part of bytecode, offset by 43 bytes\n            mstore(add(contractCode, 0x2b), 0x5af43d828181803e808314602f57f35bfd000000000000000000000000000000)\n\n        // total length 60 bytes\n            newContract := create(0, contractCode, 60)\n\n            if iszero(extcodesize(newContract)) {\n                revert(0, 0)\n            }\n        }\n    }\n}\n\n\n",
  "sourcePath": "/home/marto/projects/opencurator/contracts/RegistryFactory.sol",
  "compiler": {
    "name": "solc",
    "version": "0.4.24+commit.e67f0147.Emscripten.clang"
  },
  "schemaVersion": "2.0.0",
  "updatedAt": "2019-02-17T09:03:01.128Z"
}