{
  "contractName": "SimpleTCR",
  "abi": [
    {
      "constant": true,
      "inputs": [
        {
          "name": "",
          "type": "address"
        }
      ],
      "name": "voteTokenBalance",
      "outputs": [
        {
          "name": "",
          "type": "uint256"
        }
      ],
      "payable": false,
      "stateMutability": "view",
      "type": "function"
    },
    {
      "constant": true,
      "inputs": [],
      "name": "pollID",
      "outputs": [
        {
          "name": "",
          "type": "uint256"
        }
      ],
      "payable": false,
      "stateMutability": "view",
      "type": "function"
    },
    {
      "constant": true,
      "inputs": [
        {
          "name": "",
          "type": "uint256"
        }
      ],
      "name": "challenges",
      "outputs": [
        {
          "name": "challenger",
          "type": "address"
        },
        {
          "name": "resolved",
          "type": "bool"
        },
        {
          "name": "stake",
          "type": "uint256"
        },
        {
          "name": "totalTokens",
          "type": "uint256"
        },
        {
          "name": "rewardPool",
          "type": "uint256"
        },
        {
          "name": "commitEndDate",
          "type": "uint256"
        },
        {
          "name": "votesFor",
          "type": "uint256"
        },
        {
          "name": "votesAgainst",
          "type": "uint256"
        }
      ],
      "payable": false,
      "stateMutability": "view",
      "type": "function"
    },
    {
      "constant": true,
      "inputs": [],
      "name": "INITIAL_POLL_ID",
      "outputs": [
        {
          "name": "",
          "type": "uint256"
        }
      ],
      "payable": false,
      "stateMutability": "view",
      "type": "function"
    },
    {
      "constant": true,
      "inputs": [
        {
          "name": "",
          "type": "bytes32"
        }
      ],
      "name": "listings",
      "outputs": [
        {
          "name": "applicationExpiry",
          "type": "uint256"
        },
        {
          "name": "whitelisted",
          "type": "bool"
        },
        {
          "name": "owner",
          "type": "address"
        },
        {
          "name": "unstakedDeposit",
          "type": "uint256"
        },
        {
          "name": "challengeID",
          "type": "uint256"
        },
        {
          "name": "exitTime",
          "type": "uint256"
        },
        {
          "name": "exitTimeExpiry",
          "type": "uint256"
        }
      ],
      "payable": false,
      "stateMutability": "view",
      "type": "function"
    },
    {
      "constant": true,
      "inputs": [
        {
          "name": "",
          "type": "bytes32"
        }
      ],
      "name": "params",
      "outputs": [
        {
          "name": "",
          "type": "uint256"
        }
      ],
      "payable": false,
      "stateMutability": "view",
      "type": "function"
    },
    {
      "inputs": [
        {
          "name": "name",
          "type": "string"
        },
        {
          "name": "description",
          "type": "string"
        },
        {
          "name": "acceptedDataType",
          "type": "string"
        },
        {
          "name": "token",
          "type": "address"
        },
        {
          "name": "parameters",
          "type": "uint256[]"
        }
      ],
      "payable": false,
      "stateMutability": "nonpayable",
      "type": "constructor"
    },
    {
      "anonymous": false,
      "inputs": [
        {
          "indexed": true,
          "name": "listingHash",
          "type": "bytes32"
        },
        {
          "indexed": false,
          "name": "deposit",
          "type": "uint256"
        },
        {
          "indexed": false,
          "name": "appEndDate",
          "type": "uint256"
        },
        {
          "indexed": false,
          "name": "data",
          "type": "string"
        },
        {
          "indexed": true,
          "name": "applicant",
          "type": "address"
        }
      ],
      "name": "_Application",
      "type": "event"
    },
    {
      "anonymous": false,
      "inputs": [
        {
          "indexed": true,
          "name": "listingHash",
          "type": "bytes32"
        },
        {
          "indexed": false,
          "name": "challengeID",
          "type": "uint256"
        },
        {
          "indexed": false,
          "name": "data",
          "type": "string"
        },
        {
          "indexed": false,
          "name": "commitEndDate",
          "type": "uint256"
        },
        {
          "indexed": true,
          "name": "challenger",
          "type": "address"
        }
      ],
      "name": "_Challenge",
      "type": "event"
    },
    {
      "anonymous": false,
      "inputs": [
        {
          "indexed": false,
          "name": "voteQuorum",
          "type": "uint256"
        },
        {
          "indexed": false,
          "name": "commitEndDate",
          "type": "uint256"
        },
        {
          "indexed": true,
          "name": "pollID",
          "type": "uint256"
        },
        {
          "indexed": true,
          "name": "creator",
          "type": "address"
        }
      ],
      "name": "_PollCreated",
      "type": "event"
    },
    {
      "anonymous": false,
      "inputs": [
        {
          "indexed": true,
          "name": "challengeID",
          "type": "uint256"
        },
        {
          "indexed": false,
          "name": "numTokens",
          "type": "uint256"
        },
        {
          "indexed": true,
          "name": "voter",
          "type": "address"
        }
      ],
      "name": "_Vote",
      "type": "event"
    },
    {
      "anonymous": false,
      "inputs": [
        {
          "indexed": false,
          "name": "numTokens",
          "type": "uint256"
        },
        {
          "indexed": true,
          "name": "voter",
          "type": "address"
        }
      ],
      "name": "_VotingRightsGranted",
      "type": "event"
    },
    {
      "anonymous": false,
      "inputs": [
        {
          "indexed": false,
          "name": "numTokens",
          "type": "uint256"
        },
        {
          "indexed": true,
          "name": "voter",
          "type": "address"
        }
      ],
      "name": "_VotingRightsWithdrawn",
      "type": "event"
    },
    {
      "anonymous": false,
      "inputs": [
        {
          "indexed": true,
          "name": "listingHash",
          "type": "bytes32"
        },
        {
          "indexed": true,
          "name": "challengeID",
          "type": "uint256"
        },
        {
          "indexed": false,
          "name": "rewardPool",
          "type": "uint256"
        },
        {
          "indexed": false,
          "name": "totalTokens",
          "type": "uint256"
        },
        {
          "indexed": false,
          "name": "success",
          "type": "bool"
        }
      ],
      "name": "_ChallengeResolved",
      "type": "event"
    },
    {
      "anonymous": false,
      "inputs": [
        {
          "indexed": true,
          "name": "listingHash",
          "type": "bytes32"
        }
      ],
      "name": "_ApplicationWhitelisted",
      "type": "event"
    },
    {
      "anonymous": false,
      "inputs": [
        {
          "indexed": true,
          "name": "listingHash",
          "type": "bytes32"
        }
      ],
      "name": "_ListingExited",
      "type": "event"
    },
    {
      "anonymous": false,
      "inputs": [
        {
          "indexed": true,
          "name": "listingHash",
          "type": "bytes32"
        },
        {
          "indexed": false,
          "name": "deposit",
          "type": "uint256"
        },
        {
          "indexed": false,
          "name": "appEndDate",
          "type": "uint256"
        },
        {
          "indexed": true,
          "name": "applier",
          "type": "address"
        },
        {
          "indexed": false,
          "name": "data",
          "type": "string"
        }
      ],
      "name": "_Application",
      "type": "event"
    },
    {
      "anonymous": false,
      "inputs": [
        {
          "indexed": true,
          "name": "listingHash",
          "type": "bytes32"
        },
        {
          "indexed": false,
          "name": "challengeID",
          "type": "uint256"
        },
        {
          "indexed": false,
          "name": "voteEndDate",
          "type": "uint256"
        },
        {
          "indexed": true,
          "name": "challenger",
          "type": "address"
        },
        {
          "indexed": false,
          "name": "data",
          "type": "string"
        }
      ],
      "name": "_Challenge",
      "type": "event"
    },
    {
      "anonymous": false,
      "inputs": [
        {
          "indexed": true,
          "name": "challengeID",
          "type": "uint256"
        },
        {
          "indexed": false,
          "name": "numTokens",
          "type": "uint256"
        },
        {
          "indexed": true,
          "name": "voter",
          "type": "address"
        },
        {
          "indexed": false,
          "name": "_data",
          "type": "string"
        }
      ],
      "name": "_Vote",
      "type": "event"
    },
    {
      "anonymous": false,
      "inputs": [
        {
          "indexed": true,
          "name": "listingHash",
          "type": "bytes32"
        },
        {
          "indexed": false,
          "name": "voteEndDate",
          "type": "uint256"
        },
        {
          "indexed": false,
          "name": "data",
          "type": "string"
        }
      ],
      "name": "_ListingExited",
      "type": "event"
    },
    {
      "constant": true,
      "inputs": [],
      "name": "name",
      "outputs": [
        {
          "name": "",
          "type": "string"
        }
      ],
      "payable": false,
      "stateMutability": "view",
      "type": "function"
    },
    {
      "constant": true,
      "inputs": [],
      "name": "description",
      "outputs": [
        {
          "name": "",
          "type": "string"
        }
      ],
      "payable": false,
      "stateMutability": "view",
      "type": "function"
    },
    {
      "constant": true,
      "inputs": [],
      "name": "acceptedDataType",
      "outputs": [
        {
          "name": "",
          "type": "string"
        }
      ],
      "payable": false,
      "stateMutability": "view",
      "type": "function"
    },
    {
      "constant": true,
      "inputs": [
        {
          "name": "pName",
          "type": "string"
        }
      ],
      "name": "getParameter",
      "outputs": [
        {
          "name": "pValue",
          "type": "uint256"
        }
      ],
      "payable": false,
      "stateMutability": "view",
      "type": "function"
    },
    {
      "constant": true,
      "inputs": [],
      "name": "applyScheme",
      "outputs": [
        {
          "name": "",
          "type": "string"
        }
      ],
      "payable": false,
      "stateMutability": "view",
      "type": "function"
    },
    {
      "constant": true,
      "inputs": [],
      "name": "voteScheme",
      "outputs": [
        {
          "name": "",
          "type": "string"
        }
      ],
      "payable": false,
      "stateMutability": "view",
      "type": "function"
    },
    {
      "constant": true,
      "inputs": [],
      "name": "tokenScheme",
      "outputs": [
        {
          "name": "",
          "type": "string"
        }
      ],
      "payable": false,
      "stateMutability": "view",
      "type": "function"
    },
    {
      "constant": true,
      "inputs": [],
      "name": "exitScheme",
      "outputs": [
        {
          "name": "",
          "type": "string"
        }
      ],
      "payable": false,
      "stateMutability": "view",
      "type": "function"
    },
    {
      "constant": true,
      "inputs": [],
      "name": "token",
      "outputs": [
        {
          "name": "",
          "type": "address"
        }
      ],
      "payable": false,
      "stateMutability": "view",
      "type": "function"
    },
    {
      "constant": false,
      "inputs": [
        {
          "name": "_listingHash",
          "type": "bytes32"
        },
        {
          "name": "_tokenAmount",
          "type": "uint256"
        },
        {
          "name": "_data",
          "type": "string"
        }
      ],
      "name": "apply",
      "outputs": [],
      "payable": false,
      "stateMutability": "nonpayable",
      "type": "function"
    },
    {
      "constant": true,
      "inputs": [
        {
          "name": "_listingHash",
          "type": "bytes32"
        }
      ],
      "name": "getListingData",
      "outputs": [
        {
          "name": "jsonData",
          "type": "string"
        }
      ],
      "payable": false,
      "stateMutability": "view",
      "type": "function"
    },
    {
      "constant": true,
      "inputs": [
        {
          "name": "_listingHash",
          "type": "bytes32"
        }
      ],
      "name": "canBeWhitelisted",
      "outputs": [
        {
          "name": "",
          "type": "bool"
        }
      ],
      "payable": false,
      "stateMutability": "view",
      "type": "function"
    },
    {
      "constant": false,
      "inputs": [
        {
          "name": "_listingHash",
          "type": "bytes32"
        }
      ],
      "name": "updateStatus",
      "outputs": [],
      "payable": false,
      "stateMutability": "nonpayable",
      "type": "function"
    },
    {
      "constant": false,
      "inputs": [
        {
          "name": "_listingHash",
          "type": "bytes32"
        },
        {
          "name": "_tokenAmount",
          "type": "uint256"
        },
        {
          "name": "_data",
          "type": "string"
        }
      ],
      "name": "challenge",
      "outputs": [
        {
          "name": "challengeID",
          "type": "uint256"
        }
      ],
      "payable": false,
      "stateMutability": "nonpayable",
      "type": "function"
    },
    {
      "constant": false,
      "inputs": [
        {
          "name": "_tokenAmount",
          "type": "uint256"
        }
      ],
      "name": "requestVotingRights",
      "outputs": [],
      "payable": false,
      "stateMutability": "nonpayable",
      "type": "function"
    },
    {
      "constant": true,
      "inputs": [
        {
          "name": "_terminationDate",
          "type": "uint256"
        }
      ],
      "name": "isExpired",
      "outputs": [
        {
          "name": "expired",
          "type": "bool"
        }
      ],
      "payable": false,
      "stateMutability": "view",
      "type": "function"
    },
    {
      "constant": true,
      "inputs": [
        {
          "name": "_challengeID",
          "type": "uint256"
        }
      ],
      "name": "commitPeriodActive",
      "outputs": [
        {
          "name": "active",
          "type": "bool"
        }
      ],
      "payable": false,
      "stateMutability": "view",
      "type": "function"
    },
    {
      "constant": false,
      "inputs": [
        {
          "name": "_challengeID",
          "type": "uint256"
        },
        {
          "name": "_tokenAmount",
          "type": "uint256"
        },
        {
          "name": "_data",
          "type": "string"
        }
      ],
      "name": "vote",
      "outputs": [],
      "payable": false,
      "stateMutability": "nonpayable",
      "type": "function"
    },
    {
      "constant": false,
      "inputs": [
        {
          "name": "_challengeID",
          "type": "uint256"
        }
      ],
      "name": "claimChallengeReward",
      "outputs": [],
      "payable": false,
      "stateMutability": "nonpayable",
      "type": "function"
    },
    {
      "constant": false,
      "inputs": [
        {
          "name": "_challengeID",
          "type": "uint256"
        }
      ],
      "name": "claimVoterReward",
      "outputs": [],
      "payable": false,
      "stateMutability": "nonpayable",
      "type": "function"
    },
    {
      "constant": false,
      "inputs": [
        {
          "name": "_listingHash",
          "type": "bytes32"
        },
        {
          "name": "_data",
          "type": "string"
        }
      ],
      "name": "exit",
      "outputs": [],
      "payable": false,
      "stateMutability": "nonpayable",
      "type": "function"
    },
    {
      "constant": true,
      "inputs": [
        {
          "name": "_listingHash",
          "type": "bytes32"
        }
      ],
      "name": "isWhitelisted",
      "outputs": [
        {
          "name": "whitelisted",
          "type": "bool"
        }
      ],
      "payable": false,
      "stateMutability": "view",
      "type": "function"
    },
    {
      "constant": true,
      "inputs": [
        {
          "name": "_listingHash",
          "type": "bytes32"
        }
      ],
      "name": "challengeExists",
      "outputs": [
        {
          "name": "lastChallengeID",
          "type": "uint256"
        }
      ],
      "payable": false,
      "stateMutability": "view",
      "type": "function"
    },
    {
      "constant": true,
      "inputs": [
        {
          "name": "_challengeID",
          "type": "uint256"
        }
      ],
      "name": "challengeEnded",
      "outputs": [
        {
          "name": "ended",
          "type": "bool"
        }
      ],
      "payable": false,
      "stateMutability": "view",
      "type": "function"
    },
    {
      "constant": true,
      "inputs": [
        {
          "name": "_listingHash",
          "type": "bytes32"
        }
      ],
      "name": "challengeCanBeResolved",
      "outputs": [
        {
          "name": "",
          "type": "bool"
        }
      ],
      "payable": false,
      "stateMutability": "view",
      "type": "function"
    },
    {
      "constant": true,
      "inputs": [
        {
          "name": "_voter",
          "type": "address"
        },
        {
          "name": "_challengeID",
          "type": "uint256"
        }
      ],
      "name": "voterReward",
      "outputs": [
        {
          "name": "tokenAmount",
          "type": "uint256"
        }
      ],
      "payable": false,
      "stateMutability": "view",
      "type": "function"
    },
    {
      "constant": true,
      "inputs": [
        {
          "name": "_applierOrChallenger",
          "type": "address"
        },
        {
          "name": "_challengeID",
          "type": "uint256"
        }
      ],
      "name": "challengeReward",
      "outputs": [
        {
          "name": "tokenAmount",
          "type": "uint256"
        }
      ],
      "payable": false,
      "stateMutability": "view",
      "type": "function"
    },
    {
      "constant": true,
      "inputs": [
        {
          "name": "_listingHash",
          "type": "bytes32"
        }
      ],
      "name": "appWasMade",
      "outputs": [
        {
          "name": "exists",
          "type": "bool"
        }
      ],
      "payable": false,
      "stateMutability": "view",
      "type": "function"
    },
    {
      "constant": true,
      "inputs": [
        {
          "name": "name",
          "type": "string"
        }
      ],
      "name": "get",
      "outputs": [
        {
          "name": "value",
          "type": "uint256"
        }
      ],
      "payable": false,
      "stateMutability": "view",
      "type": "function"
    }
  ],
  "bytecode": "0x60806040523480156200001157600080fd5b5060405162003c6b38038062003c6b833981018060405281019080805182019291906020018051820192919060200180518201929190602001805190602001909291908051820192919050505060008273ffffffffffffffffffffffffffffffffffffffff1614158015620000be57506000600160009054906101000a900473ffffffffffffffffffffffffffffffffffffffff1673ffffffffffffffffffffffffffffffffffffffff16145b1515620000ca57600080fd5b8460009080519060200190620000e29291906200053b565b508360029080519060200190620000fb9291906200053b565b508260039080519060200190620001149291906200053b565b506040805190810160405280600681526020017f53494d504c45000000000000000000000000000000000000000000000000000081525060049080519060200190620001629291906200053b565b506040805190810160405280600681526020017f53494d504c45000000000000000000000000000000000000000000000000000081525060059080519060200190620001b09291906200053b565b506040805190810160405280600681526020017f53494d504c45000000000000000000000000000000000000000000000000000081525060079080519060200190620001fe9291906200053b565b506040805190810160405280600581526020017f4552433230000000000000000000000000000000000000000000000000000000815250600690805190602001906200024c9291906200053b565b5081600160006101000a81548173ffffffffffffffffffffffffffffffffffffffff021916908373ffffffffffffffffffffffffffffffffffffffff160217905550620002f76040805190810160405280600f81526020017f72657175697265644465706f7369740000000000000000000000000000000000815250826000815181101515620002d857fe5b9060200190602002015162000445640100000000026401000000009004565b620003606040805190810160405280600d81526020017f6170706c7953746167654c656e000000000000000000000000000000000000008152508260018151811015156200034157fe5b9060200190602002015162000445640100000000026401000000009004565b620003c96040805190810160405280600c81526020017f766f746553746167654c656e0000000000000000000000000000000000000000815250826002815181101515620003aa57fe5b9060200190602002015162000445640100000000026401000000009004565b620004326040805190810160405280600f81526020017f64697370656e736174696f6e50637400000000000000000000000000000000008152508260038151811015156200041357fe5b9060200190602002015162000445640100000000026401000000009004565b60006008819055505050505050620005ea565b80600b6000846040516020018082805190602001908083835b6020831015156200048557805182526020820191506020810190506020830392506200045e565b6001836020036101000a0380198251168184511680821785525050505050509050019150506040516020818303038152906040526040518082805190602001908083835b602083101515620004f05780518252602082019150602081019050602083039250620004c9565b6001836020036101000a038019825116818451168082178552505050505050905001915050604051809103902060001916600019168152602001908152602001600020819055505050565b828054600181600116156101000203166002900490600052602060002090601f016020900481019282601f106200057e57805160ff1916838001178555620005af565b82800160010185558215620005af579182015b82811115620005ae57825182559160200191906001019062000591565b5b509050620005be9190620005c2565b5090565b620005e791905b80821115620005e3576000816000905550600101620005c9565b5090565b90565b61367180620005fa6000396000f3006080604052600436106101b7576000357c0100000000000000000000000000000000000000000000000000000000900463ffffffff16806301a5e3fe146101bc57806306fdde031461020557806307eb9c2a1461029557806313720578146102f65780631b7bbecb146103865780633b930294146103cb578063401bf084146104225780634250d2f41461044d578063691a38ab14610492578063693ec85e146104db5780637284e41614610558578063762ddcf5146105e857806377609a411461069257806389bb55c7146106db5780638a59eb561461072e5780638cf8151f1461075f5780638f1d3776146107a85780639e647aac1461084a578063a1bbfc05146108c7578063a210a8ce14610916578063a25236fe146109a6578063a4439dc5146109d3578063a8931a8214610a18578063aad4cad014610a43578063bd0ae40514610a70578063c18b8db414610ad1578063c512d8f714610b70578063c893b82f14610c00578063d9548e5314610c2d578063dc6ab52714610c72578063dd677cda14610cb7578063ebd969bb14610d47578063f8d9c26714610d90578063fc0c546a14610e20578063fd48cc4514610e77575b600080fd5b3480156101c857600080fd5b506101eb6004803603810190808035600019169060200190929190505050610ede565b604051808215151515815260200191505060405180910390f35b34801561021157600080fd5b5061021a610f13565b6040518080602001828103825283818151815260200191508051906020019080838360005b8381101561025a57808201518184015260208101905061023f565b50505050905090810190601f1680156102875780820380516001836020036101000a031916815260200191505b509250505060405180910390f35b3480156102a157600080fd5b506102e0600480360381019080803573ffffffffffffffffffffffffffffffffffffffff16906020019092919080359060200190929190505050610fb5565b6040518082815260200191505060405180910390f35b34801561030257600080fd5b5061030b610fc2565b6040518080602001828103825283818151815260200191508051906020019080838360005b8381101561034b578082015181840152602081019050610330565b50505050905090810190601f1680156103785780820380516001836020036101000a031916815260200191505b509250505060405180910390f35b34801561039257600080fd5b506103b56004803603810190808035600019169060200190929190505050611064565b6040518082815260200191505060405180910390f35b3480156103d757600080fd5b5061040c600480360381019080803573ffffffffffffffffffffffffffffffffffffffff1690602001909291905050506110d0565b6040518082815260200191505060405180910390f35b34801561042e57600080fd5b506104376110e8565b6040518082815260200191505060405180910390f35b34801561045957600080fd5b50610478600480360381019080803590602001909291905050506110ee565b604051808215151515815260200191505060405180910390f35b34801561049e57600080fd5b506104c16004803603810190808035600019169060200190929190505050611116565b604051808215151515815260200191505060405180910390f35b3480156104e757600080fd5b50610542600480360381019080803590602001908201803590602001908080601f01602080910402602001604051908101604052809392919081815260200183838082843782019150505050505091929192905050506111d5565b6040518082815260200191505060405180910390f35b34801561056457600080fd5b5061056d6112c8565b6040518080602001828103825283818151815260200191508051906020019080838360005b838110156105ad578082015181840152602081019050610592565b50505050905090810190601f1680156105da5780820380516001836020036101000a031916815260200191505b509250505060405180910390f35b3480156105f457600080fd5b50610617600480360381019080803560001916906020019092919050505061136a565b6040518080602001828103825283818151815260200191508051906020019080838360005b8381101561065757808201518184015260208101905061063c565b50505050905090810190601f1680156106845780820380516001836020036101000a031916815260200191505b509250505060405180910390f35b34801561069e57600080fd5b506106c160048036038101908080356000191690602001909291905050506113ae565b604051808215151515815260200191505060405180910390f35b3480156106e757600080fd5b5061072c6004803603810190808035600019169060200190929190803590602001909291908035906020019082018035906020019190919293919293905050506113fa565b005b34801561073a57600080fd5b5061075d600480360381019080803560001916906020019092919050505061171e565b005b34801561076b57600080fd5b5061078e600480360381019080803560001916906020019092919050505061175f565b604051808215151515815260200191505060405180910390f35b3480156107b457600080fd5b506107d360048036038101908080359060200190929190505050611789565b604051808973ffffffffffffffffffffffffffffffffffffffff1673ffffffffffffffffffffffffffffffffffffffff168152602001881515151581526020018781526020018681526020018581526020018481526020018381526020018281526020019850505050505050505060405180910390f35b34801561085657600080fd5b506108b1600480360381019080803590602001908201803590602001908080601f01602080910402602001604051908101604052809392919081815260200183838082843782019150505050505091929192905050506117fe565b6040518082815260200191505060405180910390f35b3480156108d357600080fd5b506109146004803603810190808035906020019092919080359060200190929190803590602001908201803590602001919091929391929390505050611810565b005b34801561092257600080fd5b5061092b611d6b565b6040518080602001828103825283818151815260200191508051906020019080838360005b8381101561096b578082015181840152602081019050610950565b50505050905090810190601f1680156109985780820380516001836020036101000a031916815260200191505b509250505060405180910390f35b3480156109b257600080fd5b506109d160048036038101908080359060200190929190505050611e0d565b005b3480156109df57600080fd5b506109fe60048036038101908080359060200190929190505050612138565b604051808215151515815260200191505060405180910390f35b348015610a2457600080fd5b50610a2d612166565b6040518082815260200191505060405180910390f35b348015610a4f57600080fd5b50610a6e6004803603810190808035906020019092919050505061216b565b005b348015610a7c57600080fd5b50610abb600480360381019080803573ffffffffffffffffffffffffffffffffffffffff16906020019092919080359060200190929190505050612227565b6040518082815260200191505060405180910390f35b348015610add57600080fd5b50610b0060048036038101908080356000191690602001909291905050506124b3565b60405180888152602001871515151581526020018673ffffffffffffffffffffffffffffffffffffffff1673ffffffffffffffffffffffffffffffffffffffff16815260200185815260200184815260200183815260200182815260200197505050505050505060405180910390f35b348015610b7c57600080fd5b50610b85612522565b6040518080602001828103825283818151815260200191508051906020019080838360005b83811015610bc5578082015181840152602081019050610baa565b50505050905090810190601f168015610bf25780820380516001836020036101000a031916815260200191505b509250505060405180910390f35b348015610c0c57600080fd5b50610c2b600480360381019080803590602001909291905050506125c4565b005b348015610c3957600080fd5b50610c5860048036038101908080359060200190929190505050612b08565b604051808215151515815260200191505060405180910390f35b348015610c7e57600080fd5b50610ca16004803603810190808035600019169060200190929190505050612b14565b6040518082815260200191505060405180910390f35b348015610cc357600080fd5b50610ccc612b2c565b6040518080602001828103825283818151815260200191508051906020019080838360005b83811015610d0c578082015181840152602081019050610cf1565b50505050905090810190601f168015610d395780820380516001836020036101000a031916815260200191505b509250505060405180910390f35b348015610d5357600080fd5b50610d8e6004803603810190808035600019169060200190929190803590602001908201803590602001919091929391929390505050612bce565b005b348015610d9c57600080fd5b50610da5612ce1565b6040518080602001828103825283818151815260200191508051906020019080838360005b83811015610de5578082015181840152602081019050610dca565b50505050905090810190601f168015610e125780820380516001836020036101000a031916815260200191505b509250505060405180910390f35b348015610e2c57600080fd5b50610e35612d83565b604051808273ffffffffffffffffffffffffffffffffffffffff1673ffffffffffffffffffffffffffffffffffffffff16815260200191505060405180910390f35b348015610e8357600080fd5b50610ec8600480360381019080803560001916906020019092919080359060200190929190803590602001908201803590602001919091929391929390505050612dad565b6040518082815260200191505060405180910390f35b6000600a6000836000191660001916815260200190815260200160002060010160009054906101000a900460ff169050919050565b606060008054600181600116156101000203166002900480601f016020809104026020016040519081016040528092919081815260200182805460018160011615610100020316600290048015610fab5780601f10610f8057610100808354040283529160200191610fab565b820191906000526020600020905b815481529060010190602001808311610f8e57829003601f168201915b5050505050905090565b600061012c905092915050565b606060058054600181600116156101000203166002900480601f01602080910402602001604051908101604052809291908181526020018280546001816001161561010002031660029004801561105a5780601f1061102f5761010080835404028352916020019161105a565b820191906000526020600020905b81548152906001019060200180831161103d57829003601f168201915b5050505050905090565b600080600a6000846000191660001916815260200190815260200160002060030154905060008114806110b857506009600082815260200190815260200160002060000160149054906101000a900460ff16155b156110c657600091506110ca565b8091505b50919050565b600c6020528060005260406000206000915090505481565b60085481565b600061110f6009600084815260200190815260200160002060040154612b08565b9050919050565b600080600a600084600019166000191681526020019081526020016000206003015490506111438361175f565b801561116c575042600a6000856000191660001916815260200190815260200160002060000154105b801561117e575061117c83610ede565b155b80156111bc575060008114806111bb5750600115156009600083815260200190815260200160002060000160149054906101000a900460ff161515145b5b156111ca57600191506111cf565b600091505b50919050565b6000600b6000836040516020018082805190602001908083835b60208310151561121457805182526020820191506020810190506020830392506111ef565b6001836020036101000a0380198251168184511680821785525050505050509050019150506040516020818303038152906040526040518082805190602001908083835b60208310151561127d5780518252602082019150602081019050602083039250611258565b6001836020036101000a038019825116818451168082178552505050505050905001915050604051809103902060001916600019168152602001908152602001600020549050919050565b606060028054600181600116156101000203166002900480601f0160208091040260200160405190810160405280929190818152602001828054600181600116156101000203166002900480156113605780601f1061133557610100808354040283529160200191611360565b820191906000526020600020905b81548152906001019060200180831161134357829003601f168201915b5050505050905090565b6060806040805190810160405280600281526020017f7b7d000000000000000000000000000000000000000000000000000000000000815250905080915050919050565b600080600a6000846000191660001916815260200190815260200160002060030154905060006113dd84611064565b1115156113e957600080fd5b6113f2816110ee565b915050919050565b600061140585610ede565b15151561141157600080fd5b61141a8561175f565b15151561142657600080fd5b6114646040805190810160405280600f81526020017f72657175697265644465706f73697400000000000000000000000000000000008152506111d5565b841015151561147257600080fd5b600a600086600019166000191681526020019081526020016000209050338160010160016101000a81548173ffffffffffffffffffffffffffffffffffffffff021916908373ffffffffffffffffffffffffffffffffffffffff1602179055506115226115136040805190810160405280600d81526020017f6170706c7953746167654c656e000000000000000000000000000000000000008152506111d5565b426132ea90919063ffffffff16565b8160000181905550838160020181905550600160009054906101000a900473ffffffffffffffffffffffffffffffffffffffff1673ffffffffffffffffffffffffffffffffffffffff166323b872dd8260010160019054906101000a900473ffffffffffffffffffffffffffffffffffffffff1630876040518463ffffffff167c0100000000000000000000000000000000000000000000000000000000028152600401808473ffffffffffffffffffffffffffffffffffffffff1673ffffffffffffffffffffffffffffffffffffffff1681526020018373ffffffffffffffffffffffffffffffffffffffff1673ffffffffffffffffffffffffffffffffffffffff1681526020018281526020019350505050602060405180830381600087803b15801561165057600080fd5b505af1158015611664573d6000803e3d6000fd5b505050506040513d602081101561167a57600080fd5b8101908080519060200190929190505050151561169657600080fd5b3373ffffffffffffffffffffffffffffffffffffffff1685600019167fa27f550c3c7a7c6d8369e5383fdc7a3b4850d8ce9e20066f9d496f6989f0086486846000015487876040518085815260200184815260200180602001828103825284848281815260200192508082843782019150509550505050505060405180910390a35050505050565b61172781611116565b1561173a576117358161330b565b61175c565b611743816113ae565b1561175657611751816133a9565b61175b565b600080fd5b5b50565b600080600a6000846000191660001916815260200190815260200160002060000154119050919050565b60096020528060005260406000206000915090508060000160009054906101000a900473ffffffffffffffffffffffffffffffffffffffff16908060000160149054906101000a900460ff16908060010154908060020154908060030154908060040154908060050154908060060154905088565b6000611809826111d5565b9050919050565b600080600061181e87612138565b151561182957600080fd5b60405160200180807f310000000000000000000000000000000000000000000000000000000000000081525060010190506040516020818303038152906040526040518082805190602001908083835b60208310151561189e5780518252602082019150602081019050602083039250611879565b6001836020036101000a0380198251168184511680821785525050505050509050019150506040518091039020600019168585604051602001808383808284378201915050925050506040516020818303038152906040526040518082805190602001908083835b60208310151561192b5780518252602082019150602081019050602083039250611906565b6001836020036101000a038019825116818451168082178552505050505050905001915050604051809103902060001916141561196b5760019250611ab3565b60405160200180807f300000000000000000000000000000000000000000000000000000000000000081525060010190506040516020818303038152906040526040518082805190602001908083835b6020831015156119e057805182526020820191506020810190506020830392506119bb565b6001836020036101000a0380198251168184511680821785525050505050509050019150506040518091039020600019168585604051602001808383808284378201915050925050506040516020818303038152906040526040518082805190602001908083835b602083101515611a6d5780518252602082019150602081019050602083039250611a48565b6001836020036101000a0380198251168184511680821785525050505050509050019150506040518091039020600019161415611aad5760009250611ab2565b600080fd5b5b60096000888152602001908152602001600020915060008260080160003373ffffffffffffffffffffffffffffffffffffffff1673ffffffffffffffffffffffffffffffffffffffff16815260200190815260200160002054141515611b1857600080fd5b60008714151515611b2857600080fd5b85600c60003373ffffffffffffffffffffffffffffffffffffffff1673ffffffffffffffffffffffffffffffffffffffff168152602001908152602001600020541015611bcd57611bc1600c60003373ffffffffffffffffffffffffffffffffffffffff1673ffffffffffffffffffffffffffffffffffffffff16815260200190815260200160002054876133d090919063ffffffff16565b9050611bcc81611e0d565b5b85600c60003373ffffffffffffffffffffffffffffffffffffffff1673ffffffffffffffffffffffffffffffffffffffff1681526020019081526020016000205410151515611c1b57600080fd5b858260080160003373ffffffffffffffffffffffffffffffffffffffff1673ffffffffffffffffffffffffffffffffffffffff16815260200190815260200160002081905550611c788260010154876132ea90919063ffffffff16565b82600101819055506001831415611cad57611ca08683600501546132ea90919063ffffffff16565b8260050181905550611ccd565b611cc48683600601546132ea90919063ffffffff16565b82600601819055505b828260090160003373ffffffffffffffffffffffffffffffffffffffff1673ffffffffffffffffffffffffffffffffffffffff168152602001908152602001600020819055503373ffffffffffffffffffffffffffffffffffffffff16877f119a05767ca36da71a12356456d863199cf4e96d6850f10338fa158a0011de1d886040518082815260200191505060405180910390a350505050505050565b606060038054600181600116156101000203166002900480601f016020809104026020016040519081016040528092919081815260200182805460018160011615610100020316600290048015611e035780601f10611dd857610100808354040283529160200191611e03565b820191906000526020600020905b815481529060010190602001808311611de657829003601f168201915b5050505050905090565b80600160009054906101000a900473ffffffffffffffffffffffffffffffffffffffff1673ffffffffffffffffffffffffffffffffffffffff166370a08231336040518263ffffffff167c0100000000000000000000000000000000000000000000000000000000028152600401808273ffffffffffffffffffffffffffffffffffffffff1673ffffffffffffffffffffffffffffffffffffffff168152602001915050602060405180830381600087803b158015611ecb57600080fd5b505af1158015611edf573d6000803e3d6000fd5b505050506040513d6020811015611ef557600080fd5b810190808051906020019092919050505010151515611f1357600080fd5b611f6581600c60003373ffffffffffffffffffffffffffffffffffffffff1673ffffffffffffffffffffffffffffffffffffffff168152602001908152602001600020546132ea90919063ffffffff16565b600c60003373ffffffffffffffffffffffffffffffffffffffff1673ffffffffffffffffffffffffffffffffffffffff16815260200190815260200160002081905550600160009054906101000a900473ffffffffffffffffffffffffffffffffffffffff1673ffffffffffffffffffffffffffffffffffffffff166323b872dd3330846040518463ffffffff167c0100000000000000000000000000000000000000000000000000000000028152600401808473ffffffffffffffffffffffffffffffffffffffff1673ffffffffffffffffffffffffffffffffffffffff1681526020018373ffffffffffffffffffffffffffffffffffffffff1673ffffffffffffffffffffffffffffffffffffffff1681526020018281526020019350505050602060405180830381600087803b1580156120a157600080fd5b505af11580156120b5573d6000803e3d6000fd5b505050506040513d60208110156120cb57600080fd5b810190808051906020019092919050505015156120e757600080fd5b3373ffffffffffffffffffffffffffffffffffffffff167ff7aaf024511d9982df8cd0d437c71c30106e6848cd1ba3d288d7a9c0e276aeda826040518082815260200191505060405180910390a250565b60008060096000848152602001908152602001600020905061215d8160040154612b08565b15915050919050565b600081565b60008060006009600085815260200190815260200160002092506009600085815260200190815260200160002060000160149054906101000a900460ff161515156121b557600080fd5b826006015483600501541015156121cf57600091506121d4565b600191505b600083600501541480156121ec575060008360060154145b156122005782600101546002029050612221565b61221e836003015484600101546002026133d090919063ffffffff16565b90505b50505050565b6000806000806000600960008781526020019081526020016000209350600015158460070160008973ffffffffffffffffffffffffffffffffffffffff1673ffffffffffffffffffffffffffffffffffffffff16815260200190815260200160002060009054906101000a900460ff16151514151561230e576040517f08c379a00000000000000000000000000000000000000000000000000000000081526004018080602001828103825260178152602001807f52657761726420616c72656164792072656465656d656400000000000000000081525060200191505060405180910390fd5b600115158460000160149054906101000a900460ff1615151415156123c1576040517f08c379a000000000000000000000000000000000000000000000000000000000815260040180806020018281038252603c8152602001807f4368616c6c656e6765206d757374206265207265736f6c766564206265666f7281526020017f6520747279696e6720746f20636c61696d20746865207265776172640000000081525060400191505060405180910390fd5b8360090160008873ffffffffffffffffffffffffffffffffffffffff1673ffffffffffffffffffffffffffffffffffffffff1681526020019081526020016000205492508360060154846005015410151561241f5760009150612424565b600191505b8360080160008873ffffffffffffffffffffffffffffffffffffffff1673ffffffffffffffffffffffffffffffffffffffff168152602001908152602001600020549050818314156124a45761249d846002015461248f8660030154846133f190919063ffffffff16565b61342f90919063ffffffff16565b94506124a9565b600094505b5050505092915050565b600a6020528060005260406000206000915090508060000154908060010160009054906101000a900460ff16908060010160019054906101000a900473ffffffffffffffffffffffffffffffffffffffff16908060020154908060030154908060040154908060050154905087565b606060078054600181600116156101000203166002900480601f0160208091040260200160405190810160405280929190818152602001828054600181600116156101000203166002900480156125ba5780601f1061258f576101008083540402835291602001916125ba565b820191906000526020600020905b81548152906001019060200180831161259d57829003601f168201915b5050505050905090565b6000806000600960008581526020019081526020016000209250600015158360070160003373ffffffffffffffffffffffffffffffffffffffff1673ffffffffffffffffffffffffffffffffffffffff16815260200190815260200160002060009054906101000a900460ff1615151415156126a8576040517f08c379a00000000000000000000000000000000000000000000000000000000081526004018080602001828103825260178152602001807f52657761726420616c72656164792072656465656d656400000000000000000081525060200191505060405180910390fd5b600115158360000160149054906101000a900460ff16151514151561275b576040517f08c379a000000000000000000000000000000000000000000000000000000000815260040180806020018281038252603c8152602001807f4368616c6c656e6765206d757374206265207265736f6c766564206265666f7281526020017f6520747279696e6720746f20636c61696d20746865207265776172640000000081525060400191505060405180910390fd5b6127653385612227565b91508260080160003373ffffffffffffffffffffffffffffffffffffffff1673ffffffffffffffffffffffffffffffffffffffff1681526020019081526020016000205490506000821115612958576127cb8184600201546133d090919063ffffffff16565b83600201819055506127ea8284600201546133d090919063ffffffff16565b836003018190555060018360070160003373ffffffffffffffffffffffffffffffffffffffff1673ffffffffffffffffffffffffffffffffffffffff16815260200190815260200160002060006101000a81548160ff021916908315150217905550600160009054906101000a900473ffffffffffffffffffffffffffffffffffffffff1673ffffffffffffffffffffffffffffffffffffffff1663a9059cbb33846040518363ffffffff167c0100000000000000000000000000000000000000000000000000000000028152600401808373ffffffffffffffffffffffffffffffffffffffff1673ffffffffffffffffffffffffffffffffffffffff16815260200182815260200192505050602060405180830381600087803b15801561291157600080fd5b505af1158015612925573d6000803e3d6000fd5b505050506040513d602081101561293b57600080fd5b8101908080519060200190929190505050151561295757600080fd5b5b6000811115612b02576129b381600c60003373ffffffffffffffffffffffffffffffffffffffff1673ffffffffffffffffffffffffffffffffffffffff168152602001908152602001600020546133d090919063ffffffff16565b600c60003373ffffffffffffffffffffffffffffffffffffffff1673ffffffffffffffffffffffffffffffffffffffff16815260200190815260200160002081905550600160009054906101000a900473ffffffffffffffffffffffffffffffffffffffff1673ffffffffffffffffffffffffffffffffffffffff1663a9059cbb33836040518363ffffffff167c0100000000000000000000000000000000000000000000000000000000028152600401808373ffffffffffffffffffffffffffffffffffffffff1673ffffffffffffffffffffffffffffffffffffffff16815260200182815260200192505050602060405180830381600087803b158015612abb57600080fd5b505af1158015612acf573d6000803e3d6000fd5b505050506040513d6020811015612ae557600080fd5b81019080805190602001909291905050501515612b0157600080fd5b5b50505050565b60008142119050919050565b600b6020528060005260406000206000915090505481565b606060048054600181600116156101000203166002900480601f016020809104026020016040519081016040528092919081815260200182805460018160011615610100020316600290048015612bc45780601f10612b9957610100808354040283529160200191612bc4565b820191906000526020600020905b815481529060010190602001808311612ba757829003601f168201915b5050505050905090565b6000600a6000856000191660001916815260200190815260200160002090508060010160019054906101000a900473ffffffffffffffffffffffffffffffffffffffff1673ffffffffffffffffffffffffffffffffffffffff163373ffffffffffffffffffffffffffffffffffffffff16141515612c4b57600080fd5b612c5484610ede565b1515612c5f57600080fd5b600081600301541480612c965750600960008260030154815260200190815260200160002060000160149054906101000a900460ff165b1515612ca157600080fd5b612caa84613459565b83600019167f811c926c259739c92d16507624c3d249021bfa661c5a64f2187dc46e8e93c63b60405160405180910390a250505050565b606060068054600181600116156101000203166002900480601f016020809104026020016040519081016040528092919081815260200182805460018160011615610100020316600290048015612d795780601f10612d4e57610100808354040283529160200191612d79565b820191906000526020600020905b815481529060010190602001808311612d5c57829003601f168201915b5050505050905090565b6000600160009054906101000a900473ffffffffffffffffffffffffffffffffffffffff16905090565b6000806000806000600a60008a600019166000191681526020019081526020016000209350612e106040805190810160405280600f81526020017f72657175697265644465706f73697400000000000000000000000000000000008152506111d5565b92508783141515612e2057600080fd5b612e298961175f565b80612e4257508360010160009054906101000a900460ff165b1515612e4d57600080fd5b600084600301541480612e845750600960008560030154815260200190815260200160002060000160149054906101000a900460ff165b1515612e8f57600080fd5b600160085401600881905550612eeb612edc6040805190810160405280600c81526020017f766f746553746167654c656e00000000000000000000000000000000000000008152506111d5565b426132ea90919063ffffffff16565b915060649050610100604051908101604052803373ffffffffffffffffffffffffffffffffffffffff168152602001600015158152602001612f616040805190810160405280600f81526020017f72657175697265644465706f73697400000000000000000000000000000000008152506111d5565b815260200160008152602001612fe26064612fd487612fc6612fb76040805190810160405280600f81526020017f64697370656e736174696f6e50637400000000000000000000000000000000008152506111d5565b886133d090919063ffffffff16565b6133f190919063ffffffff16565b61342f90919063ffffffff16565b81526020016130256040805190810160405280600d81526020017f636f6d6d6974456e6444617465000000000000000000000000000000000000008152506111d5565b815260200160008152602001600081525060096000600854815260200190815260200160002060008201518160000160006101000a81548173ffffffffffffffffffffffffffffffffffffffff021916908373ffffffffffffffffffffffffffffffffffffffff16021790555060208201518160000160146101000a81548160ff02191690831515021790555060408201518160010155606082015181600201556080820151816003015560a0820151816004015560c0820151816005015560e0820151816006015590505060085484600301819055506131138385600201546133d090919063ffffffff16565b8460020181905550600160009054906101000a900473ffffffffffffffffffffffffffffffffffffffff1673ffffffffffffffffffffffffffffffffffffffff166323b872dd3330866040518463ffffffff167c0100000000000000000000000000000000000000000000000000000000028152600401808473ffffffffffffffffffffffffffffffffffffffff1673ffffffffffffffffffffffffffffffffffffffff1681526020018373ffffffffffffffffffffffffffffffffffffffff1673ffffffffffffffffffffffffffffffffffffffff1681526020018281526020019350505050602060405180830381600087803b15801561321457600080fd5b505af1158015613228573d6000803e3d6000fd5b505050506040513d602081101561323e57600080fd5b8101908080519060200190929190505050151561325a57600080fd5b3373ffffffffffffffffffffffffffffffffffffffff1689600019167f49b14c82c36e78a2c0af88ec58604d127b5a0513b00e6a946376374c4c1c1b256008548a8a876040518085815260200180602001838152602001828103825285858281815260200192508082843782019150509550505050505060405180910390a3600854945050505050949350505050565b600080828401905083811015151561330157600080fd5b8091505092915050565b600a6000826000191660001916815260200190815260200160002060010160009054906101000a900460ff16151561336f5780600019167fa7bc1d57d9006d9d248707c7b6828c1bab8c51719cc06d78c82a3ee891ef967c60405160405180910390a25b6001600a6000836000191660001916815260200190815260200160002060010160006101000a81548160ff02191690831515021790555050565b6000600a600083600019166000191681526020019081526020016000206003015490505050565b6000808383111515156133e257600080fd5b82840390508091505092915050565b60008060008414156134065760009150613428565b828402905082848281151561341757fe5b0414151561342457600080fd5b8091505b5092915050565b60008060008311151561344157600080fd5b828481151561344c57fe5b0490508091505092915050565b6000806000600a6000856000191660001916815260200190815260200160002092508260010160019054906101000a900473ffffffffffffffffffffffffffffffffffffffff16915082600201549050600a600085600019166000191681526020019081526020016000206000808201600090556001820160006101000a81549060ff02191690556001820160016101000a81549073ffffffffffffffffffffffffffffffffffffffff021916905560028201600090556003820160009055600482016000905560058201600090555050600081111561363f57600160009054906101000a900473ffffffffffffffffffffffffffffffffffffffff1673ffffffffffffffffffffffffffffffffffffffff1663a9059cbb83836040518363ffffffff167c0100000000000000000000000000000000000000000000000000000000028152600401808373ffffffffffffffffffffffffffffffffffffffff1673ffffffffffffffffffffffffffffffffffffffff16815260200182815260200192505050602060405180830381600087803b1580156135f857600080fd5b505af115801561360c573d6000803e3d6000fd5b505050506040513d602081101561362257600080fd5b8101908080519060200190929190505050151561363e57600080fd5b5b505050505600a165627a7a723058205328373700b4fe0d2e647c0474052917b82d6c2c7af172f83e8809e43aecc7a30029",
  "source": "pragma solidity ^0.4.24;\n\nimport \"./ITCR20.sol\";\nimport \"./zeppelin/ERC20Tradable.sol\";\n\n/**\n* @title Simple implementation of TCRs\n* @author Team: Xivis <xivis.com>\n*/\ncontract SimpleTCR is ITCR20 {\n    // -------\n    // EVENTS:\n    // -------\n\n    event _Application(bytes32 indexed listingHash, uint deposit, uint appEndDate, string data, address indexed applicant);\n    event _Challenge(bytes32 indexed listingHash, uint challengeID, string data, uint commitEndDate, address indexed challenger);\n    event _PollCreated(uint voteQuorum, uint commitEndDate, uint indexed pollID, address indexed creator);\n    event _Vote(uint indexed challengeID, uint numTokens, address indexed voter);\n    event _VotingRightsGranted(uint numTokens, address indexed voter);\n    event _VotingRightsWithdrawn(uint numTokens, address indexed voter);\n    event _ChallengeResolved(bytes32 indexed listingHash, uint indexed challengeID, uint rewardPool, uint totalTokens, bool success);\n    event _ApplicationWhitelisted(bytes32 indexed listingHash);\n    event _ListingExited(bytes32 indexed listingHash);\n\n    using SafeMath for uint;\n\n    // Base registry variables\n    string private _name;\n    IERC20 private _token;\n    string private _description;\n    string private _acceptedDataType;\n    string private _applyScheme;\n    string private _voteScheme;\n    string private _tokenScheme;\n    string private _exitScheme;\n\n    // Challenge basic variables\n    uint constant public INITIAL_POLL_ID = 0;\n    uint public pollID;\n\n    struct Listing {\n        uint applicationExpiry; // Expiration date of apply stage\n        bool whitelisted;       // Indicates registry status\n        address owner;          // Owner of Listing\n        uint unstakedDeposit;   // Number of tokens in the listing not locked in a challenge\n        uint challengeID;       // Corresponds to a PollID in PLCRVoting\n        uint exitTime;          // Time the listing may leave the registry\n        uint exitTimeExpiry;    // Expiration date of exit period\n    }\n\n    struct Challenge {\n        address challenger;     // Owner of Challenge\n        bool resolved;          // Indication of if challenge is resolved\n        uint stake;             // Number of tokens at stake for either party during challenge\n        uint totalTokens;       // (remaining) Number of tokens used in voting by the winning side\n        uint rewardPool;        // (remaining) Pool of tokens to be distributed to winning voters\n        uint commitEndDate;     /// expiration date of commit period for poll\n        uint votesFor;          /// tally of votes supporting proposal\n        uint votesAgainst;      /// tally of votes countering proposal\n        mapping(address => bool) tokenClaims; // Indicates whether a voter has claimed a reward yet\n        mapping(address => uint) tokenStakes; // Indicates the amount of tokens locked by a voter\n        mapping(address => uint) votingOptions; // Indicates the amount of tokens locked by a voter\n    }\n\n    // Maps challengeIDs to associated challenge data\n    mapping(uint => Challenge) public challenges;\n\n    // Maps listingHashes to associated listingHash data\n    mapping(bytes32 => Listing) public listings;\n\n    // Maps parameters string hashes to values\n    mapping(bytes32 => uint) public params;\n\n    // Maps user's address to voteToken balance\n    mapping(address => uint) public voteTokenBalance; \n\n    /**\n    * @dev Initializer. Can only be called once.\n    * @param token The address where the ERC20 token contract is deployed\n    */\n    constructor(string name, string description, string acceptedDataType, address token, uint[] parameters) {\n        require(token != 0 && address(_token) == 0);\n        \n        // Base registry parameters\n        _name = name;\n        _description = description;\n        _acceptedDataType = acceptedDataType;\n        _applyScheme = \"SIMPLE\";\n        _voteScheme = \"SIMPLE\";\n        _exitScheme = \"SIMPLE\";\n\n        _tokenScheme = \"ERC20\";\n        _token = ERC20Tradable(token);\n\n        // required deposit for listing to be whitelisted. No more, no less.\n        set(\"requiredDeposit\", parameters[0]);\n\n        // period over which applicants wait to be whitelisted\n        set(\"applyStageLen\", parameters[1]);\n\n        // length of commit period for voting\n        set(\"voteStageLen\", parameters[2]);\n\n        // percentage of losing party's deposit distributed to winning party\n        set(\"dispensationPct\", parameters[3]);\n\n        // sets the initial pollID\n        pollID = INITIAL_POLL_ID;\n    }\n\n    function name() public view returns(string){\n        return _name;\n    }\n\n    function description() public view returns(string){\n        return _description;\n    }\n\n    function acceptedDataType() public view returns(string){\n        return _acceptedDataType;\n    }\n\n    function getParameter(string pName) public view returns (uint pValue) {\n        return get(pName);\n    }\n\n    function applyScheme() public view returns(string){\n        return _applyScheme;\n    }\n    \n    function voteScheme() public view returns(string){\n        return _voteScheme;\n    }\n\n    function tokenScheme() public view returns(string){\n        return _tokenScheme;\n    }\n\n    function exitScheme() public view returns(string){\n        return _exitScheme;\n    }\n\n    function token() public view returns(IERC20) {\n        return _token;\n    }\n\n    // Main functions\n    function apply(bytes32 _listingHash, uint _tokenAmount, string _data) external {\n        require(!isWhitelisted(_listingHash));\n        require(!appWasMade(_listingHash));\n        require(_tokenAmount >= get(\"requiredDeposit\"));\n\n        // Sets owner\n        Listing storage listing = listings[_listingHash];\n        listing.owner = msg.sender;\n\n        // Sets apply stage end time\n        listing.applicationExpiry = block.timestamp.add(get(\"applyStageLen\"));\n        listing.unstakedDeposit = _tokenAmount;\n\n        // Transfers tokens from user to Registry contract\n        require(_token.transferFrom(listing.owner, this, _tokenAmount));\n\n        emit _Application(_listingHash, _tokenAmount, listing.applicationExpiry, _data, msg.sender);\n    }\n\n    function getListingData(bytes32 _listingHash) external view returns (string memory jsonData) {\n        // copy the data into memory\n        // Listing memory l = listings[_listingHash];\n        \n        // break the struct's members out into a tuple\n        // in the same order that they appear in the struct\n        string memory result = \"{}\"; // TODO look how to concat this as a JSON File\n        // return (l.applicationExpiry, l.whitelisted, l.owner, l.unstakedDeposit, l.challengeID, l.exitTime, l.exitTimeExpiry);\n        return result;\n    }\n\n    /**\n    * Determines whether the given listingHash be whitelisted.\n    * @param _listingHash The listingHash whose status is to be examined\n    */\n    function canBeWhitelisted(bytes32 _listingHash) view public returns (bool) {\n        uint challengeID = listings[_listingHash].challengeID;\n        // Ensures that the application was made,\n        // the application period has ended,\n        // the listingHash can be whitelisted,\n        // and either: the challengeID == 0, or the challenge has been resolved.\n        if (\n            appWasMade(_listingHash) &&\n            listings[_listingHash].applicationExpiry < now &&\n            !isWhitelisted(_listingHash) &&\n            (challengeID == 0 || challenges[challengeID].resolved == true)\n        ) { return true; }\n\n        return false;\n    }\n\n    /**\n    * Add an already Applied listingHash to the whitelist\n    * @dev Called by updateStatus() if the applicationExpiry date passed without a challenge being made.\n    * @dev Called by resolveChallenge() if an application/listing beat a challenge.\n    * @param _listingHash The listingHash of an application/listingHash to be whitelisted\n    */\n    function whitelistApplication(bytes32 _listingHash) private {\n        if (!listings[_listingHash].whitelisted) {emit _ApplicationWhitelisted(_listingHash);}\n        listings[_listingHash].whitelisted = true;\n    }\n\n    /**\n    * Determines the winner in a challenge. Rewards the winner tokens and either whitelists\n    * or de-whitelists (reset) the listingHash.\n    * @param _listingHash A listingHash with a challenge that is to be resolved\n    */\n    function resolveChallenge(bytes32 _listingHash) private {\n        uint challengeID = listings[_listingHash].challengeID;\n\n    }\n\n    /**\n    * Updates a listingHash status from 'application' to 'listing' or resolves a challenge if one exists.\n    * @param _listingHash The listingHash whose status is being updated\n    */\n    function updateStatus(bytes32 _listingHash) public {\n        if (canBeWhitelisted(_listingHash)) {\n            whitelistApplication(_listingHash);\n        } else if (challengeCanBeResolved(_listingHash)) {\n            resolveChallenge(_listingHash);\n        } else {\n            revert();\n        }\n    }\n\n    /**\n    * Starts a poll for a listingHash which is either in the apply stage or already in the whitelist.\n    * @dev Tokens are taken from the challenger and the applicant's deposits are locked.\n    * @param _listingHash The listingHash being challenged, whether listed or in application\n    * @param _data Extra data relevant to the challenge. Think IPFS hashes.\n    */\n    function challenge(bytes32 _listingHash, uint _tokenAmount, string _data) external returns (uint challengeID) {\n        Listing storage listing = listings[_listingHash];\n        uint requiredDeposit = get(\"requiredDeposit\");\n\n        // _tokenAmount must match the requiredDeposit\n        require(requiredDeposit == _tokenAmount);\n\n        // Listing must be in apply stage or already on the whitelist\n        require(appWasMade(_listingHash) || listing.whitelisted);\n        // Prevent multiple challenges\n        require(listing.challengeID == 0 || challenges[listing.challengeID].resolved);\n\n        // Sets pollID\n        pollID = pollID + 1;\n\n        // Defines voting commit duration\n        uint commitEndDate = block.timestamp.add(get(\"voteStageLen\"));\n\n        uint oneHundred = 100;\n        // Kludge that we need to use SafeMath\n        challenges[pollID] = Challenge({\n            challenger : msg.sender,\n            rewardPool : ((oneHundred.sub(get(\"dispensationPct\"))).mul(requiredDeposit)).div(100),\n            stake : get(\"requiredDeposit\"),\n            resolved : false,\n            totalTokens : 0,\n            commitEndDate : get(\"commitEndDate\"),\n            votesFor: 0,\n            votesAgainst : 0\n            });\n\n        // Updates listingHash to store most recent challenge\n        listing.challengeID = pollID;\n\n        // Locks tokens for listingHash during challenge\n        listing.unstakedDeposit = listing.unstakedDeposit.sub(requiredDeposit);\n\n        // Takes tokens from challenger\n        require(_token.transferFrom(msg.sender, this, requiredDeposit));\n\n        emit _Challenge(_listingHash, pollID, _data, commitEndDate, msg.sender);\n        return pollID;\n    }\n\n    /**\n    * Loads _tokenAmount ERC20 tokens into the voting contract for one-to-one voting rights\n    * @dev Assumes that msg.sender has approved voting contract to spend on their behalf\n    * @param _tokenAmount The number of votingTokens desired in exchange for ERC20 tokens\n    */\n    function requestVotingRights(uint _tokenAmount) public {\n        require(_token.balanceOf(msg.sender) >= _tokenAmount);\n        voteTokenBalance[msg.sender] = voteTokenBalance[msg.sender].add(_tokenAmount);\n        require(_token.transferFrom(msg.sender, this, _tokenAmount));\n        emit _VotingRightsGranted(_tokenAmount, msg.sender);\n    }\n\n    /**\n    * Checks if an expiration date has been reached\n    * @param _terminationDate Integer timestamp of date to compare current timestamp with\n    * @return expired Boolean indication of whether the terminationDate has passed\n    */\n    function isExpired(uint _terminationDate) constant public returns (bool expired) {\n        return (block.timestamp > _terminationDate);\n    }\n\n    /**\n    * Checks if the commit period is still active for the specified poll\n    * @dev Checks isExpired for the specified poll's commitEndDate\n    * @param _challengeID Integer identifier associated with target poll\n    * @return Boolean indication of isCommitPeriodActive for target poll\n    */\n    function commitPeriodActive(uint _challengeID) constant public returns (bool active) {\n        // require(challengeExists(_challengeID) > 0);\n\n        Challenge storage _challenge = challenges[_challengeID];\n        return !isExpired(_challenge.commitEndDate);\n    }\n\n    /**\n    * Commits vote using hash of choice and secret salt to conceal vote until reveal\n    * @param _challengeID Integer identifier associated with target poll\n    * @param _tokenAmount The number of tokens to be committed towards the target poll\n    * @param _data Extra data relevant to the vote.\n    */\n    function vote(uint _challengeID, uint _tokenAmount, string _data) external {\n        require(commitPeriodActive(_challengeID));\n\n        // try to convert _data string to a valid _voteOption\n        uint _voteOption;\n        if (keccak256(abi.encodePacked(_data)) == keccak256(abi.encodePacked(\"1\"))) {\n            _voteOption = 1;\n        } else if (keccak256(abi.encodePacked(_data)) == keccak256(abi.encodePacked(\"0\"))) {\n            _voteOption = 0;\n        } else {\n            revert();\n        }\n\n        // get challenge \n        Challenge storage _challenge = challenges[_challengeID];\n\n        // voter can't change his previous vote\n        require(_challenge.tokenStakes[msg.sender] == 0);\n\n        // prevent user from committing to zero node placeholder\n        require(_challengeID != 0);\n\n        // if msg.sender doesn't have enough voting rights,\n        // request for enough voting rights\n        if (voteTokenBalance[msg.sender] < _tokenAmount) {\n            uint remainder = _tokenAmount.sub(voteTokenBalance[msg.sender]);\n            requestVotingRights(remainder);\n        }\n\n        // make sure msg.sender has enough voting rights\n        require(voteTokenBalance[msg.sender] >= _tokenAmount);\n\n        // set voter's tokenStakes\n        _challenge.tokenStakes[msg.sender] = _tokenAmount;\n\n        // adds voter's stake to total amount of tokens staked in this challenge\n        _challenge.stake = _tokenAmount.add(_challenge.stake);\n\n        // apply numTokens to appropriate poll choice\n        if (_voteOption == 1) {\n            _challenge.votesFor = _challenge.votesFor.add(_tokenAmount);\n        } else {\n            _challenge.votesAgainst = _challenge.votesAgainst.add(_tokenAmount);\n        }\n\n        // store voter's selected option\n        _challenge.votingOptions[msg.sender] = _voteOption;\n\n        emit _Vote(_challengeID, _tokenAmount, msg.sender);\n    }\n\n    function claimChallengeReward(uint _challengeID) public {\n        Challenge storage _challenge = challenges[_challengeID];\n        require(!challenges[_challengeID].resolved);\n        \n        // calculates the winning choice\n        uint winningChoice;\n        if (_challenge.votesFor >= _challenge.votesAgainst) {\n            winningChoice = 0;\n        } else {\n            winningChoice = 1;\n        }\n        uint reward;\n\n        // Edge case, nobody voted, give all tokens to the challenger.\n        if ((_challenge.votesFor == 0) && (_challenge.votesAgainst == 0)) {\n            reward = 2 * _challenge.stake;\n        } else {\n            reward = (2 * _challenge.stake).sub(_challenge.rewardPool);\n        }\n\n        // if (winningChoice == 0) {\n        //     whitelistApplication(_listingHash);\n\n        //     uint stake = _challenge[_challengeID].stake;\n\n        //     // Unlock stake and return it to the applier\n        //     listings[_listingHash].unstakedDeposit = listings[_listingHash].unstakedDeposit.add(stake);\n\n        //     // Transfer the remaining reward to the challenger\n        //     require(token.transfer(listings[_listingHash].owner, reward.sub(stake)));\n\n        //     emit _ChallengeFailed(_listingHash, _challengeID, challenges[_challengeID].rewardPool, challenges[_challengeID].totalTokens);\n        // }\n        // // Case: challenge succeeded or nobody voted\n        // else {\n        //     resetListing(_listingHash);\n\n        //     // Transfer the reward to the challenger\n        //     require(token.transfer(challenges[_challengeID].challenger, reward));\n\n        //     emit _ChallengeSucceeded(_listingHash, _challengeID, challenges[_challengeID].rewardPool, challenges[_challengeID].totalTokens);\n        // }\n    }\n\n    /**\n    * Called by a voter to their reward for each completed vote.\n    * @dev Someone must call updateStatus() before this can be called.\n    * @param _challengeID The voting pollID of the challenge a reward is being claimed for\n    */\n    function claimVoterReward(uint _challengeID) public {\n        Challenge storage _challenge = challenges[_challengeID];\n        // Ensures the voter has not already claimed tokens and _challenge results have\n        // been processed\n        require(_challenge.tokenClaims[msg.sender] == false, \"Reward already redeemed\");\n        require(_challenge.resolved == true, \"Challenge must be resolved before trying to claim the reward\");\n\n        uint reward = voterReward(msg.sender, _challengeID);\n        uint voterTokens = _challenge.tokenStakes[msg.sender];\n\n        if (reward > 0) {\n            // Subtracts the voter's information to preserve the participation ratios\n            // of other voters compared to the remaining pool of rewards\n            _challenge.totalTokens = _challenge.totalTokens.sub(voterTokens);\n            _challenge.rewardPool = _challenge.totalTokens.sub(reward);\n\n            // Ensures a voter cannot claim tokens again\n            _challenge.tokenClaims[msg.sender] = true;\n\n            require(_token.transfer(msg.sender, reward)); // Reward + Unlock could be implemented in one single transfer\n        }\n\n        // Unlock staked tokens in the challenge\n        if (voterTokens > 0) {\n            voteTokenBalance[msg.sender] = voteTokenBalance[msg.sender].sub(voterTokens);\n            require(_token.transfer(msg.sender, voterTokens));\n        }\n    }\n\n    /**\n    * Deletes a listingHash from the whitelist and transfers remaining tokens back to owner\n    * @param _listingHash The listing hash to delete\n    */\n    function resetListing(bytes32 _listingHash) private {\n        Listing storage listing = listings[_listingHash];\n\n        // Deleting listing to prevent reentry\n        address owner = listing.owner;\n        uint unstakedDeposit = listing.unstakedDeposit;\n        delete listings[_listingHash];\n\n        // Transfers any remaining balance back to the owner\n        if (unstakedDeposit > 0) {\n            require(_token.transfer(owner, unstakedDeposit));\n        }\n    }\n\n\n    function exit(bytes32 _listingHash, string _data) external {\n        Listing storage listing = listings[_listingHash];\n\n        require(msg.sender == listing.owner);\n        require(isWhitelisted(_listingHash));\n\n        // Cannot exit during ongoing challenge\n        require(listing.challengeID == 0 || challenges[listing.challengeID].resolved);\n\n        resetListing(_listingHash);\n\n        emit _ListingExited(_listingHash);\n    }\n\n    // Helpers/optional functions\n    function isWhitelisted(bytes32 _listingHash) public view returns (bool whitelisted) {\n        return listings[_listingHash].whitelisted;\n    }\n\n    function challengeExists(bytes32 _listingHash) public view returns (uint lastChallengeID) {\n        uint challengeID = listings[_listingHash].challengeID;\n\n        if (challengeID == 0 || !challenges[challengeID].resolved) {\n            return 0;\n        }\n\n        return challengeID;\n    }\n\n    /**\n    * Determines if poll is over\n    * @dev Checks isExpired for specified poll's revealEndDate\n    * @return Boolean indication of whether polling period is over\n    */\n    function challengeEnded(uint _challengeID) constant public returns (bool ended) {\n        // require(challengeExists(_challengeID) > 0);\n\n        return isExpired(challenges[_challengeID].commitEndDate);\n    }\n\n    /**\n    * Determines whether voting has concluded in a challenge for a given listingHash. Throws if no challenge exists.\n    * @param _listingHash A listingHash with an unresolved challenge\n    */\n    function challengeCanBeResolved(bytes32 _listingHash) public view returns (bool) {\n        uint challengeID = listings[_listingHash].challengeID;\n        require(challengeExists(_listingHash) > 0);\n\n        return challengeEnded(challengeID);\n    }\n\n    function voterReward(address _voter, uint _challengeID) public view returns (uint tokenAmount) {\n        Challenge storage _challenge = challenges[_challengeID];\n        // Ensures the voter has not already claimed tokens and _challenge results have\n        // been processed\n        require(_challenge.tokenClaims[_voter] == false, \"Reward already redeemed\");\n        require(_challenge.resolved == true, \"Challenge must be resolved before trying to claim the reward\");\n\n        uint _voterOption = _challenge.votingOptions[_voter];\n\n        // calculates the winning choice\n        uint winningChoice;\n        if (_challenge.votesFor >= _challenge.votesAgainst) {\n            winningChoice = 0;\n        } else {\n            winningChoice = 1;\n        }\n\n        // voter's tokens staked at this challenge \n        uint voterTokens = _challenge.tokenStakes[_voter];\n        if (_voterOption == winningChoice) {\n            return voterTokens.mul(_challenge.rewardPool).div(_challenge.totalTokens);\n        } else {\n            return 0;\n        }\n    }\n\n    function challengeReward(address _applierOrChallenger, uint _challengeID) public view returns (uint tokenAmount) {\n        return 300;\n    }\n\n    /**\n    * Returns true if apply was called for this listingHash\n    * @param _listingHash The listingHash whose status is to be examined\n    */\n    function appWasMade(bytes32 _listingHash) view public returns (bool exists) {\n        return listings[_listingHash].applicationExpiry > 0;\n    }\n\n    /**\n    * Gets the parameter keyed by the provided name value from the params mapping\n    * @param name The key whose value is to be determined\n    * @return name The key whose value is to be determined\n    */\n    function get(string name) public view returns (uint value) {\n        return params[keccak256(abi.encodePacked(name))];\n    }\n\n    /**\n    * Sets the param keyed by the provided name to the provided value\n    * @param name The name of the param to be set\n    * @param value The value to set the param to be set\n    */\n    function set(string name, uint value) private {\n        params[keccak256(abi.encodePacked(name))] = value;\n    }\n}",
  "sourcePath": "/home/marto/projects/opencurator/contracts/SimpleTCR.sol",
  "compiler": {
    "name": "solc",
    "version": "0.4.24+commit.e67f0147.Emscripten.clang"
  },
  "schemaVersion": "2.0.0",
  "updatedAt": "2019-02-17T09:03:03.064Z"
}