{
  "contractName": "SimpleTCR",
  "abi": [
    {
      "constant": true,
      "inputs": [
        {
          "name": "",
          "type": "address"
        }
      ],
      "name": "voteTokenBalance",
      "outputs": [
        {
          "name": "",
          "type": "uint256"
        }
      ],
      "payable": false,
      "stateMutability": "view",
      "type": "function"
    },
    {
      "constant": true,
      "inputs": [],
      "name": "pollID",
      "outputs": [
        {
          "name": "",
          "type": "uint256"
        }
      ],
      "payable": false,
      "stateMutability": "view",
      "type": "function"
    },
    {
      "constant": true,
      "inputs": [
        {
          "name": "",
          "type": "uint256"
        }
      ],
      "name": "challenges",
      "outputs": [
        {
          "name": "listingHash",
          "type": "bytes32"
        },
        {
          "name": "challenger",
          "type": "address"
        },
        {
          "name": "resolved",
          "type": "bool"
        },
        {
          "name": "stake",
          "type": "uint256"
        },
        {
          "name": "totalTokens",
          "type": "uint256"
        },
        {
          "name": "rewardPool",
          "type": "uint256"
        },
        {
          "name": "voteEndDate",
          "type": "uint256"
        },
        {
          "name": "votesFor",
          "type": "uint256"
        },
        {
          "name": "votesAgainst",
          "type": "uint256"
        }
      ],
      "payable": false,
      "stateMutability": "view",
      "type": "function"
    },
    {
      "constant": true,
      "inputs": [],
      "name": "INITIAL_POLL_ID",
      "outputs": [
        {
          "name": "",
          "type": "uint256"
        }
      ],
      "payable": false,
      "stateMutability": "view",
      "type": "function"
    },
    {
      "constant": true,
      "inputs": [
        {
          "name": "",
          "type": "bytes32"
        }
      ],
      "name": "listings",
      "outputs": [
        {
          "name": "applicationExpiry",
          "type": "uint256"
        },
        {
          "name": "whitelisted",
          "type": "bool"
        },
        {
          "name": "owner",
          "type": "address"
        },
        {
          "name": "unstakedDeposit",
          "type": "uint256"
        },
        {
          "name": "challengeID",
          "type": "uint256"
        },
        {
          "name": "exitTime",
          "type": "uint256"
        },
        {
          "name": "exitTimeExpiry",
          "type": "uint256"
        },
        {
          "name": "data",
          "type": "string"
        }
      ],
      "payable": false,
      "stateMutability": "view",
      "type": "function"
    },
    {
      "constant": true,
      "inputs": [
        {
          "name": "",
          "type": "bytes32"
        }
      ],
      "name": "params",
      "outputs": [
        {
          "name": "",
          "type": "uint256"
        }
      ],
      "payable": false,
      "stateMutability": "view",
      "type": "function"
    },
    {
      "anonymous": false,
      "inputs": [
        {
          "indexed": true,
          "name": "listingHash",
          "type": "bytes32"
        },
        {
          "indexed": false,
          "name": "deposit",
          "type": "uint256"
        },
        {
          "indexed": false,
          "name": "appEndDate",
          "type": "uint256"
        },
        {
          "indexed": false,
          "name": "data",
          "type": "string"
        },
        {
          "indexed": true,
          "name": "applicant",
          "type": "address"
        }
      ],
      "name": "_Application",
      "type": "event"
    },
    {
      "anonymous": false,
      "inputs": [
        {
          "indexed": true,
          "name": "listingHash",
          "type": "bytes32"
        },
        {
          "indexed": false,
          "name": "challengeID",
          "type": "uint256"
        },
        {
          "indexed": false,
          "name": "data",
          "type": "string"
        },
        {
          "indexed": false,
          "name": "voteEndDate",
          "type": "uint256"
        },
        {
          "indexed": true,
          "name": "challenger",
          "type": "address"
        }
      ],
      "name": "_Challenge",
      "type": "event"
    },
    {
      "anonymous": false,
      "inputs": [
        {
          "indexed": true,
          "name": "challengeID",
          "type": "uint256"
        },
        {
          "indexed": false,
          "name": "numTokens",
          "type": "uint256"
        },
        {
          "indexed": true,
          "name": "voter",
          "type": "address"
        }
      ],
      "name": "_Vote",
      "type": "event"
    },
    {
      "anonymous": false,
      "inputs": [
        {
          "indexed": false,
          "name": "numTokens",
          "type": "uint256"
        },
        {
          "indexed": true,
          "name": "voter",
          "type": "address"
        }
      ],
      "name": "_VotingRightsGranted",
      "type": "event"
    },
    {
      "anonymous": false,
      "inputs": [
        {
          "indexed": false,
          "name": "numTokens",
          "type": "uint256"
        },
        {
          "indexed": true,
          "name": "voter",
          "type": "address"
        }
      ],
      "name": "_VotingRightsWithdrawn",
      "type": "event"
    },
    {
      "anonymous": false,
      "inputs": [
        {
          "indexed": true,
          "name": "listingHash",
          "type": "bytes32"
        },
        {
          "indexed": true,
          "name": "challengeID",
          "type": "uint256"
        },
        {
          "indexed": false,
          "name": "rewardPool",
          "type": "uint256"
        },
        {
          "indexed": false,
          "name": "totalTokens",
          "type": "uint256"
        },
        {
          "indexed": false,
          "name": "success",
          "type": "bool"
        }
      ],
      "name": "_ChallengeResolved",
      "type": "event"
    },
    {
      "anonymous": false,
      "inputs": [
        {
          "indexed": true,
          "name": "listingHash",
          "type": "bytes32"
        }
      ],
      "name": "_ApplicationWhitelisted",
      "type": "event"
    },
    {
      "anonymous": false,
      "inputs": [
        {
          "indexed": true,
          "name": "listingHash",
          "type": "bytes32"
        }
      ],
      "name": "_ListingExited",
      "type": "event"
    },
    {
      "anonymous": false,
      "inputs": [
        {
          "indexed": true,
          "name": "listingHash",
          "type": "bytes32"
        },
        {
          "indexed": false,
          "name": "deposit",
          "type": "uint256"
        },
        {
          "indexed": false,
          "name": "appEndDate",
          "type": "uint256"
        },
        {
          "indexed": true,
          "name": "applier",
          "type": "address"
        },
        {
          "indexed": false,
          "name": "data",
          "type": "string"
        }
      ],
      "name": "_Application",
      "type": "event"
    },
    {
      "anonymous": false,
      "inputs": [
        {
          "indexed": true,
          "name": "listingHash",
          "type": "bytes32"
        },
        {
          "indexed": false,
          "name": "challengeID",
          "type": "uint256"
        },
        {
          "indexed": false,
          "name": "voteEndDate",
          "type": "uint256"
        },
        {
          "indexed": true,
          "name": "challenger",
          "type": "address"
        },
        {
          "indexed": false,
          "name": "data",
          "type": "string"
        }
      ],
      "name": "_Challenge",
      "type": "event"
    },
    {
      "anonymous": false,
      "inputs": [
        {
          "indexed": true,
          "name": "challengeID",
          "type": "uint256"
        },
        {
          "indexed": false,
          "name": "numTokens",
          "type": "uint256"
        },
        {
          "indexed": true,
          "name": "voter",
          "type": "address"
        },
        {
          "indexed": false,
          "name": "_data",
          "type": "string"
        }
      ],
      "name": "_Vote",
      "type": "event"
    },
    {
      "anonymous": false,
      "inputs": [
        {
          "indexed": true,
          "name": "listingHash",
          "type": "bytes32"
        },
        {
          "indexed": false,
          "name": "voteEndDate",
          "type": "uint256"
        },
        {
          "indexed": false,
          "name": "data",
          "type": "string"
        }
      ],
      "name": "_ListingExited",
      "type": "event"
    },
    {
      "constant": false,
      "inputs": [
        {
          "name": "name",
          "type": "string"
        },
        {
          "name": "description",
          "type": "string"
        },
        {
          "name": "acceptedDataType",
          "type": "string"
        },
        {
          "name": "token",
          "type": "address"
        },
        {
          "name": "parameters",
          "type": "uint256[]"
        }
      ],
      "name": "init",
      "outputs": [],
      "payable": false,
      "stateMutability": "nonpayable",
      "type": "function"
    },
    {
      "constant": true,
      "inputs": [],
      "name": "name",
      "outputs": [
        {
          "name": "",
          "type": "string"
        }
      ],
      "payable": false,
      "stateMutability": "view",
      "type": "function"
    },
    {
      "constant": true,
      "inputs": [],
      "name": "description",
      "outputs": [
        {
          "name": "",
          "type": "string"
        }
      ],
      "payable": false,
      "stateMutability": "view",
      "type": "function"
    },
    {
      "constant": true,
      "inputs": [],
      "name": "acceptedDataType",
      "outputs": [
        {
          "name": "",
          "type": "string"
        }
      ],
      "payable": false,
      "stateMutability": "view",
      "type": "function"
    },
    {
      "constant": true,
      "inputs": [
        {
          "name": "pName",
          "type": "string"
        }
      ],
      "name": "getParameter",
      "outputs": [
        {
          "name": "pValue",
          "type": "uint256"
        }
      ],
      "payable": false,
      "stateMutability": "view",
      "type": "function"
    },
    {
      "constant": true,
      "inputs": [],
      "name": "applyScheme",
      "outputs": [
        {
          "name": "",
          "type": "string"
        }
      ],
      "payable": false,
      "stateMutability": "view",
      "type": "function"
    },
    {
      "constant": true,
      "inputs": [],
      "name": "voteScheme",
      "outputs": [
        {
          "name": "",
          "type": "string"
        }
      ],
      "payable": false,
      "stateMutability": "view",
      "type": "function"
    },
    {
      "constant": true,
      "inputs": [],
      "name": "tokenScheme",
      "outputs": [
        {
          "name": "",
          "type": "string"
        }
      ],
      "payable": false,
      "stateMutability": "view",
      "type": "function"
    },
    {
      "constant": true,
      "inputs": [],
      "name": "exitScheme",
      "outputs": [
        {
          "name": "",
          "type": "string"
        }
      ],
      "payable": false,
      "stateMutability": "view",
      "type": "function"
    },
    {
      "constant": true,
      "inputs": [],
      "name": "token",
      "outputs": [
        {
          "name": "",
          "type": "address"
        }
      ],
      "payable": false,
      "stateMutability": "view",
      "type": "function"
    },
    {
      "constant": false,
      "inputs": [
        {
          "name": "_listingHash",
          "type": "bytes32"
        },
        {
          "name": "_tokenAmount",
          "type": "uint256"
        },
        {
          "name": "_data",
          "type": "string"
        }
      ],
      "name": "apply",
      "outputs": [],
      "payable": false,
      "stateMutability": "nonpayable",
      "type": "function"
    },
    {
      "constant": true,
      "inputs": [
        {
          "name": "_listingHash",
          "type": "bytes32"
        }
      ],
      "name": "getListingData",
      "outputs": [
        {
          "name": "jsonData",
          "type": "string"
        }
      ],
      "payable": false,
      "stateMutability": "view",
      "type": "function"
    },
    {
      "constant": true,
      "inputs": [
        {
          "name": "_listingHash",
          "type": "bytes32"
        }
      ],
      "name": "canBeWhitelisted",
      "outputs": [
        {
          "name": "",
          "type": "bool"
        }
      ],
      "payable": false,
      "stateMutability": "view",
      "type": "function"
    },
    {
      "constant": true,
      "inputs": [
        {
          "name": "_challengeID",
          "type": "uint256"
        }
      ],
      "name": "determineReward",
      "outputs": [
        {
          "name": "",
          "type": "uint256"
        }
      ],
      "payable": false,
      "stateMutability": "view",
      "type": "function"
    },
    {
      "constant": false,
      "inputs": [
        {
          "name": "_listingHash",
          "type": "bytes32"
        }
      ],
      "name": "updateStatus",
      "outputs": [],
      "payable": false,
      "stateMutability": "nonpayable",
      "type": "function"
    },
    {
      "constant": false,
      "inputs": [
        {
          "name": "_listingHash",
          "type": "bytes32"
        },
        {
          "name": "_tokenAmount",
          "type": "uint256"
        },
        {
          "name": "_data",
          "type": "string"
        }
      ],
      "name": "challenge",
      "outputs": [
        {
          "name": "challengeID",
          "type": "uint256"
        }
      ],
      "payable": false,
      "stateMutability": "nonpayable",
      "type": "function"
    },
    {
      "constant": false,
      "inputs": [
        {
          "name": "_tokenAmount",
          "type": "uint256"
        }
      ],
      "name": "requestVotingRights",
      "outputs": [],
      "payable": false,
      "stateMutability": "nonpayable",
      "type": "function"
    },
    {
      "constant": true,
      "inputs": [
        {
          "name": "_terminationDate",
          "type": "uint256"
        }
      ],
      "name": "isExpired",
      "outputs": [
        {
          "name": "expired",
          "type": "bool"
        }
      ],
      "payable": false,
      "stateMutability": "view",
      "type": "function"
    },
    {
      "constant": true,
      "inputs": [
        {
          "name": "_challengeID",
          "type": "uint256"
        }
      ],
      "name": "votePeriodActive",
      "outputs": [
        {
          "name": "active",
          "type": "bool"
        }
      ],
      "payable": false,
      "stateMutability": "view",
      "type": "function"
    },
    {
      "constant": false,
      "inputs": [
        {
          "name": "_challengeID",
          "type": "uint256"
        },
        {
          "name": "_tokenAmount",
          "type": "uint256"
        },
        {
          "name": "_data",
          "type": "string"
        }
      ],
      "name": "vote",
      "outputs": [],
      "payable": false,
      "stateMutability": "nonpayable",
      "type": "function"
    },
    {
      "constant": false,
      "inputs": [
        {
          "name": "_challengeID",
          "type": "uint256"
        }
      ],
      "name": "claimChallengeReward",
      "outputs": [],
      "payable": false,
      "stateMutability": "nonpayable",
      "type": "function"
    },
    {
      "constant": false,
      "inputs": [
        {
          "name": "_challengeID",
          "type": "uint256"
        }
      ],
      "name": "claimVoterReward",
      "outputs": [],
      "payable": false,
      "stateMutability": "nonpayable",
      "type": "function"
    },
    {
      "constant": false,
      "inputs": [
        {
          "name": "_listingHash",
          "type": "bytes32"
        },
        {
          "name": "_data",
          "type": "string"
        }
      ],
      "name": "exit",
      "outputs": [],
      "payable": false,
      "stateMutability": "nonpayable",
      "type": "function"
    },
    {
      "constant": true,
      "inputs": [
        {
          "name": "_listingHash",
          "type": "bytes32"
        }
      ],
      "name": "isWhitelisted",
      "outputs": [
        {
          "name": "whitelisted",
          "type": "bool"
        }
      ],
      "payable": false,
      "stateMutability": "view",
      "type": "function"
    },
    {
      "constant": true,
      "inputs": [
        {
          "name": "_listingHash",
          "type": "bytes32"
        }
      ],
      "name": "challengeExists",
      "outputs": [
        {
          "name": "lastChallengeID",
          "type": "uint256"
        }
      ],
      "payable": false,
      "stateMutability": "view",
      "type": "function"
    },
    {
      "constant": true,
      "inputs": [
        {
          "name": "_challengeID",
          "type": "uint256"
        }
      ],
      "name": "challengeEnded",
      "outputs": [
        {
          "name": "ended",
          "type": "bool"
        }
      ],
      "payable": false,
      "stateMutability": "view",
      "type": "function"
    },
    {
      "constant": true,
      "inputs": [
        {
          "name": "_listingHash",
          "type": "bytes32"
        }
      ],
      "name": "challengeCanBeResolved",
      "outputs": [
        {
          "name": "",
          "type": "bool"
        }
      ],
      "payable": false,
      "stateMutability": "view",
      "type": "function"
    },
    {
      "constant": true,
      "inputs": [
        {
          "name": "_voter",
          "type": "address"
        },
        {
          "name": "_challengeID",
          "type": "uint256"
        }
      ],
      "name": "voterReward",
      "outputs": [
        {
          "name": "tokenAmount",
          "type": "uint256"
        }
      ],
      "payable": false,
      "stateMutability": "view",
      "type": "function"
    },
    {
      "constant": true,
      "inputs": [
        {
          "name": "_applierOrChallenger",
          "type": "address"
        },
        {
          "name": "_challengeID",
          "type": "uint256"
        }
      ],
      "name": "challengeReward",
      "outputs": [
        {
          "name": "tokenAmount",
          "type": "uint256"
        }
      ],
      "payable": false,
      "stateMutability": "view",
      "type": "function"
    },
    {
      "constant": true,
      "inputs": [
        {
          "name": "_challengeID",
          "type": "uint256"
        }
      ],
      "name": "challengeSucceeded",
      "outputs": [
        {
          "name": "succeeded",
          "type": "bool"
        }
      ],
      "payable": false,
      "stateMutability": "view",
      "type": "function"
    },
    {
      "constant": true,
      "inputs": [
        {
          "name": "_listingHash",
          "type": "bytes32"
        }
      ],
      "name": "appWasMade",
      "outputs": [
        {
          "name": "exists",
          "type": "bool"
        }
      ],
      "payable": false,
      "stateMutability": "view",
      "type": "function"
    },
    {
      "constant": true,
      "inputs": [
        {
          "name": "pName",
          "type": "string"
        }
      ],
      "name": "get",
      "outputs": [
        {
          "name": "value",
          "type": "uint256"
        }
      ],
      "payable": false,
      "stateMutability": "view",
      "type": "function"
    }
  ],
  "bytecode": "0x608060405234801561001057600080fd5b50614b00806100206000396000f3006080604052600436106101d8576000357c0100000000000000000000000000000000000000000000000000000000900463ffffffff16806301a5e3fe146101dd57806301e5e7171461022657806306fdde031461026b57806307eb9c2a146102fb578063137205781461035c5780631b7bbecb146103ec5780633b93029414610431578063401bf084146104885780634250d2f4146104b3578063691a38ab146104f8578063693ec85e146105415780637284e416146105be578063762ddcf51461064e57806377609a41146106f857806389bb55c7146107415780638a59eb56146107945780638cf8151f146107c55780638f1d37761461080e5780639e647aac146108bf578063a1bbfc051461093c578063a210a8ce1461098b578063a25236fe14610a1b578063a8931a8214610a48578063aad4cad014610a73578063b21af81814610aa0578063bd0ae40514610ae5578063c18b8db414610b46578063c512d8f714610c51578063c8187cf114610ce1578063c893b82f14610d22578063d9548e5314610d4f578063dc6ab52714610d94578063dd677cda14610dd9578063e94c41cc14610e69578063ebd969bb14610fc1578063f8d9c2671461100a578063fc0c546a1461109a578063fd48cc45146110f1575b600080fd5b3480156101e957600080fd5b5061020c6004803603810190808035600019169060200190929190505050611158565b604051808215151515815260200191505060405180910390f35b34801561023257600080fd5b506102516004803603810190808035906020019092919050505061118d565b604051808215151515815260200191505060405180910390f35b34801561027757600080fd5b506102806111d6565b6040518080602001828103825283818151815260200191508051906020019080838360005b838110156102c05780820151818401526020810190506102a5565b50505050905090810190601f1680156102ed5780820380516001836020036101000a031916815260200191505b509250505060405180910390f35b34801561030757600080fd5b50610346600480360381019080803573ffffffffffffffffffffffffffffffffffffffff16906020019092919080359060200190929190505050611278565b6040518082815260200191505060405180910390f35b34801561036857600080fd5b50610371611469565b6040518080602001828103825283818151815260200191508051906020019080838360005b838110156103b1578082015181840152602081019050610396565b50505050905090810190601f1680156103de5780820380516001836020036101000a031916815260200191505b509250505060405180910390f35b3480156103f857600080fd5b5061041b600480360381019080803560001916906020019092919050505061150b565b6040518082815260200191505060405180910390f35b34801561043d57600080fd5b50610472600480360381019080803573ffffffffffffffffffffffffffffffffffffffff169060200190929190505050611577565b6040518082815260200191505060405180910390f35b34801561049457600080fd5b5061049d61158f565b6040518082815260200191505060405180910390f35b3480156104bf57600080fd5b506104de60048036038101908080359060200190929190505050611595565b604051808215151515815260200191505060405180910390f35b34801561050457600080fd5b5061052760048036038101908080356000191690602001909291905050506115bd565b604051808215151515815260200191505060405180910390f35b34801561054d57600080fd5b506105a8600480360381019080803590602001908201803590602001908080601f016020809104026020016040519081016040528093929190818152602001838380828437820191505050505050919291929050505061167c565b6040518082815260200191505060405180910390f35b3480156105ca57600080fd5b506105d361176f565b6040518080602001828103825283818151815260200191508051906020019080838360005b838110156106135780820151818401526020810190506105f8565b50505050905090810190601f1680156106405780820380516001836020036101000a031916815260200191505b509250505060405180910390f35b34801561065a57600080fd5b5061067d6004803603810190808035600019169060200190929190505050611811565b6040518080602001828103825283818151815260200191508051906020019080838360005b838110156106bd5780820151818401526020810190506106a2565b50505050905090810190601f1680156106ea5780820380516001836020036101000a031916815260200191505b509250505060405180910390f35b34801561070457600080fd5b506107276004803603810190808035600019169060200190929190505050611997565b604051808215151515815260200191505060405180910390f35b34801561074d57600080fd5b506107926004803603810190808035600019169060200190929190803590602001909291908035906020019082018035906020019190919293919293905050506119e3565b005b3480156107a057600080fd5b506107c36004803603810190808035600019169060200190929190505050611f30565b005b3480156107d157600080fd5b506107f46004803603810190808035600019169060200190929190505050611f71565b604051808215151515815260200191505060405180910390f35b34801561081a57600080fd5b5061083960048036038101908080359060200190929190505050611f9b565b604051808a600019166000191681526020018973ffffffffffffffffffffffffffffffffffffffff1673ffffffffffffffffffffffffffffffffffffffff16815260200188151515158152602001878152602001868152602001858152602001848152602001838152602001828152602001995050505050505050505060405180910390f35b3480156108cb57600080fd5b50610926600480360381019080803590602001908201803590602001908080601f0160208091040260200160405190810160405280939291908181526020018383808284378201915050505050509192919290505050612016565b6040518082815260200191505060405180910390f35b34801561094857600080fd5b506109896004803603810190808035906020019092919080359060200190929190803590602001908201803590602001919091929391929390505050612028565b005b34801561099757600080fd5b506109a0612583565b6040518080602001828103825283818151815260200191508051906020019080838360005b838110156109e05780820151818401526020810190506109c5565b50505050905090810190601f168015610a0d5780820380516001836020036101000a031916815260200191505b509250505060405180910390f35b348015610a2757600080fd5b50610a4660048036038101908080359060200190929190505050612625565b005b348015610a5457600080fd5b50610a5d612950565b6040518082815260200191505060405180910390f35b348015610a7f57600080fd5b50610a9e60048036038101908080359060200190929190505050612955565b005b348015610aac57600080fd5b50610acb60048036038101908080359060200190929190505050612d31565b604051808215151515815260200191505060405180910390f35b348015610af157600080fd5b50610b30600480360381019080803573ffffffffffffffffffffffffffffffffffffffff16906020019092919080359060200190929190505050612e10565b6040518082815260200191505060405180910390f35b348015610b5257600080fd5b50610b756004803603810190808035600019169060200190929190505050613094565b60405180898152602001881515151581526020018773ffffffffffffffffffffffffffffffffffffffff1673ffffffffffffffffffffffffffffffffffffffff16815260200186815260200185815260200184815260200183815260200180602001828103825283818151815260200191508051906020019080838360005b83811015610c0f578082015181840152602081019050610bf4565b50505050905090810190601f168015610c3c5780820380516001836020036101000a031916815260200191505b50995050505050505050505060405180910390f35b348015610c5d57600080fd5b50610c666131a1565b6040518080602001828103825283818151815260200191508051906020019080838360005b83811015610ca6578082015181840152602081019050610c8b565b50505050905090810190601f168015610cd35780820380516001836020036101000a031916815260200191505b509250505060405180910390f35b348015610ced57600080fd5b50610d0c60048036038101908080359060200190929190505050613243565b6040518082815260200191505060405180910390f35b348015610d2e57600080fd5b50610d4d60048036038101908080359060200190929190505050613338565b005b348015610d5b57600080fd5b50610d7a6004803603810190808035906020019092919050505061387c565b604051808215151515815260200191505060405180910390f35b348015610da057600080fd5b50610dc36004803603810190808035600019169060200190929190505050613888565b6040518082815260200191505060405180910390f35b348015610de557600080fd5b50610dee6138a0565b6040518080602001828103825283818151815260200191508051906020019080838360005b83811015610e2e578082015181840152602081019050610e13565b50505050905090810190601f168015610e5b5780820380516001836020036101000a031916815260200191505b509250505060405180910390f35b348015610e7557600080fd5b50610fbf600480360381019080803590602001908201803590602001908080601f0160208091040260200160405190810160405280939291908181526020018383808284378201915050505050509192919290803590602001908201803590602001908080601f0160208091040260200160405190810160405280939291908181526020018383808284378201915050505050509192919290803590602001908201803590602001908080601f0160208091040260200160405190810160405280939291908181526020018383808284378201915050505050509192919290803573ffffffffffffffffffffffffffffffffffffffff16906020019092919080359060200190820180359060200190808060200260200160405190810160405280939291908181526020018383602002808284378201915050505050509192919290505050613942565b005b348015610fcd57600080fd5b506110086004803603810190808035600019169060200190929190803590602001908201803590602001919091929391929390505050613ccd565b005b34801561101657600080fd5b5061101f613e0e565b6040518080602001828103825283818151815260200191508051906020019080838360005b8381101561105f578082015181840152602081019050611044565b50505050905090810190601f16801561108c5780820380516001836020036101000a031916815260200191505b509250505060405180910390f35b3480156110a657600080fd5b506110af613eb0565b604051808273ffffffffffffffffffffffffffffffffffffffff1673ffffffffffffffffffffffffffffffffffffffff16815260200191505060405180910390f35b3480156110fd57600080fd5b50611142600480360381019080803560001916906020019092919080359060200190929190803590602001908201803590602001919091929391929390505050613eda565b6040518082815260200191505060405180910390f35b6000600a6000836000191660001916815260200190815260200160002060010160009054906101000a900460ff169050919050565b60008060096000848152602001908152602001600020905060006111b4826000015461150b565b1115156111c057600080fd5b6111cd816005015461387c565b15915050919050565b606060008054600181600116156101000203166002900480601f01602080910402602001604051908101604052809291908181526020018280546001816001161561010002031660029004801561126e5780601f106112435761010080835404028352916020019161126e565b820191906000526020600020905b81548152906001019060200180831161125157829003601f168201915b5050505050905090565b6000806000806000600960008781526020019081526020016000209350600115158460010160149054906101000a900460ff161515141515611348576040517f08c379a000000000000000000000000000000000000000000000000000000000815260040180806020018281038252603c8152602001807f4368616c6c656e6765206d757374206265207265736f6c766564206265666f7281526020017f6520747279696e6720746f20636c61696d20746865207265776172640000000081525060400191505060405180910390fd5b61135186613243565b9250600a600085600001546000191660001916815260200190815260200160002060010160019054906101000a900473ffffffffffffffffffffffffffffffffffffffff1691508360010160009054906101000a900473ffffffffffffffffffffffffffffffffffffffff1690506113c886612d31565b80156113ff57508073ffffffffffffffffffffffffffffffffffffffff168773ffffffffffffffffffffffffffffffffffffffff16145b1561140c5782945061145f565b61141586612d31565b15801561144d57508173ffffffffffffffffffffffffffffffffffffffff168773ffffffffffffffffffffffffffffffffffffffff16145b1561145a5782945061145f565b600094505b5050505092915050565b606060058054600181600116156101000203166002900480601f0160208091040260200160405190810160405280929190818152602001828054600181600116156101000203166002900480156115015780601f106114d657610100808354040283529160200191611501565b820191906000526020600020905b8154815290600101906020018083116114e457829003601f168201915b5050505050905090565b600080600a60008460001916600019168152602001908152602001600020600301549050600081148061155f57506009600082815260200190815260200160002060010160149054906101000a900460ff16155b1561156d5760009150611571565b8091505b50919050565b600c6020528060005260406000206000915090505481565b60085481565b60006115b6600960008481526020019081526020016000206005015461387c565b9050919050565b600080600a600084600019166000191681526020019081526020016000206003015490506115ea83611f71565b8015611613575042600a6000856000191660001916815260200190815260200160002060000154105b8015611625575061162383611158565b155b8015611663575060008114806116625750600115156009600083815260200190815260200160002060010160149054906101000a900460ff161515145b5b156116715760019150611676565b600091505b50919050565b6000600b6000836040516020018082805190602001908083835b6020831015156116bb5780518252602082019150602081019050602083039250611696565b6001836020036101000a0380198251168184511680821785525050505050509050019150506040516020818303038152906040526040518082805190602001908083835b60208310151561172457805182526020820191506020810190506020830392506116ff565b6001836020036101000a038019825116818451168082178552505050505050905001915050604051809103902060001916600019168152602001908152602001600020549050919050565b606060028054600181600116156101000203166002900480601f0160208091040260200160405190810160405280929190818152602001828054600181600116156101000203166002900480156118075780601f106117dc57610100808354040283529160200191611807565b820191906000526020600020905b8154815290600101906020018083116117ea57829003601f168201915b5050505050905090565b606061181b614909565b600a600084600019166000191681526020019081526020016000206101006040519081016040529081600082015481526020016001820160009054906101000a900460ff161515151581526020016001820160019054906101000a900473ffffffffffffffffffffffffffffffffffffffff1673ffffffffffffffffffffffffffffffffffffffff1673ffffffffffffffffffffffffffffffffffffffff16815260200160028201548152602001600382015481526020016004820154815260200160058201548152602001600682018054600181600116156101000203166002900480601f01602080910402602001604051908101604052809291908181526020018280546001816001161561010002031660029004801561197f5780601f106119545761010080835404028352916020019161197f565b820191906000526020600020905b81548152906001019060200180831161196257829003601f168201915b50505050508152505090508060e00151915050919050565b600080600a6000846000191660001916815260200190815260200160002060030154905060006119c68461150b565b1115156119d257600080fd5b6119db81611595565b915050919050565b60006119ee85611158565b151515611a89576040517f08c379a00000000000000000000000000000000000000000000000000000000081526004018080602001828103825260228152602001807f4c697374696e674861736820697320616c72656164792077686974656c69737481526020017f656400000000000000000000000000000000000000000000000000000000000081525060400191505060405180910390fd5b611a9285611f71565b151515611b2d576040517f08c379a00000000000000000000000000000000000000000000000000000000081526004018080602001828103825260318152602001807f4170706c69636174696f6e2077617320616c7265616479206d61646520666f7281526020017f2074686973206c697374696e674861736800000000000000000000000000000081525060400191505060405180910390fd5b611b6b6040805190810160405280600f81526020017f72657175697265644465706f736974000000000000000000000000000000000081525061167c565b84141515611c07576040517f08c379a000000000000000000000000000000000000000000000000000000000815260040180806020018281038252602e8152602001807f5374616b656420746f6b656e73206d75737420626520657175616c20746f207281526020017f657175697265644465706f73697400000000000000000000000000000000000081525060400191505060405180910390fd5b600a600086600019166000191681526020019081526020016000209050338160010160016101000a81548173ffffffffffffffffffffffffffffffffffffffff021916908373ffffffffffffffffffffffffffffffffffffffff1602179055508282826006019190611c7a929190614967565b50611ccb611cbc6040805190810160405280600d81526020017f6170706c7953746167654c656e0000000000000000000000000000000000000081525061167c565b426143f590919063ffffffff16565b8160000181905550838160020181905550600160009054906101000a900473ffffffffffffffffffffffffffffffffffffffff1673ffffffffffffffffffffffffffffffffffffffff166323b872dd8260010160019054906101000a900473ffffffffffffffffffffffffffffffffffffffff1630876040518463ffffffff167c0100000000000000000000000000000000000000000000000000000000028152600401808473ffffffffffffffffffffffffffffffffffffffff1673ffffffffffffffffffffffffffffffffffffffff1681526020018373ffffffffffffffffffffffffffffffffffffffff1673ffffffffffffffffffffffffffffffffffffffff1681526020018281526020019350505050602060405180830381600087803b158015611df957600080fd5b505af1158015611e0d573d6000803e3d6000fd5b505050506040513d6020811015611e2357600080fd5b81019080805190602001909291905050501515611ea8576040517f08c379a000000000000000000000000000000000000000000000000000000000815260040180806020018281038252601f8152602001807f5472616e7366657246726f6d207472616e73616374696f6e206661696c65640081525060200191505060405180910390fd5b3373ffffffffffffffffffffffffffffffffffffffff1685600019167fa27f550c3c7a7c6d8369e5383fdc7a3b4850d8ce9e20066f9d496f6989f0086486846000015487876040518085815260200184815260200180602001828103825284848281815260200192508082843782019150509550505050505060405180910390a35050505050565b611f39816115bd565b15611f4c57611f4781614416565b611f6e565b611f5581611997565b15611f6857611f63816144b4565b611f6d565b600080fd5b5b50565b600080600a6000846000191660001916815260200190815260200160002060000154119050919050565b60096020528060005260406000206000915090508060000154908060010160009054906101000a900473ffffffffffffffffffffffffffffffffffffffff16908060010160149054906101000a900460ff16908060020154908060030154908060040154908060050154908060060154908060070154905089565b60006120218261167c565b9050919050565b60008060006120368761118d565b151561204157600080fd5b60405160200180807f310000000000000000000000000000000000000000000000000000000000000081525060010190506040516020818303038152906040526040518082805190602001908083835b6020831015156120b65780518252602082019150602081019050602083039250612091565b6001836020036101000a0380198251168184511680821785525050505050509050019150506040518091039020600019168585604051602001808383808284378201915050925050506040516020818303038152906040526040518082805190602001908083835b602083101515612143578051825260208201915060208101905060208303925061211e565b6001836020036101000a038019825116818451168082178552505050505050905001915050604051809103902060001916141561218357600192506122cb565b60405160200180807f300000000000000000000000000000000000000000000000000000000000000081525060010190506040516020818303038152906040526040518082805190602001908083835b6020831015156121f857805182526020820191506020810190506020830392506121d3565b6001836020036101000a0380198251168184511680821785525050505050509050019150506040518091039020600019168585604051602001808383808284378201915050925050506040516020818303038152906040526040518082805190602001908083835b6020831015156122855780518252602082019150602081019050602083039250612260565b6001836020036101000a03801982511681845116808217855250505050505090500191505060405180910390206000191614156122c557600092506122ca565b600080fd5b5b60096000888152602001908152602001600020915060008260090160003373ffffffffffffffffffffffffffffffffffffffff1673ffffffffffffffffffffffffffffffffffffffff1681526020019081526020016000205414151561233057600080fd5b6000871415151561234057600080fd5b85600c60003373ffffffffffffffffffffffffffffffffffffffff1673ffffffffffffffffffffffffffffffffffffffff1681526020019081526020016000205410156123e5576123d9600c60003373ffffffffffffffffffffffffffffffffffffffff1673ffffffffffffffffffffffffffffffffffffffff168152602001908152602001600020548761459290919063ffffffff16565b90506123e481612625565b5b85600c60003373ffffffffffffffffffffffffffffffffffffffff1673ffffffffffffffffffffffffffffffffffffffff168152602001908152602001600020541015151561243357600080fd5b858260090160003373ffffffffffffffffffffffffffffffffffffffff1673ffffffffffffffffffffffffffffffffffffffff168152602001908152602001600020819055506124908260020154876143f590919063ffffffff16565b826002018190555060018314156124c5576124b88683600601546143f590919063ffffffff16565b82600601819055506124e5565b6124dc8683600701546143f590919063ffffffff16565b82600701819055505b8282600a0160003373ffffffffffffffffffffffffffffffffffffffff1673ffffffffffffffffffffffffffffffffffffffff168152602001908152602001600020819055503373ffffffffffffffffffffffffffffffffffffffff16877f119a05767ca36da71a12356456d863199cf4e96d6850f10338fa158a0011de1d886040518082815260200191505060405180910390a350505050505050565b606060038054600181600116156101000203166002900480601f01602080910402602001604051908101604052809291908181526020018280546001816001161561010002031660029004801561261b5780601f106125f05761010080835404028352916020019161261b565b820191906000526020600020905b8154815290600101906020018083116125fe57829003601f168201915b5050505050905090565b80600160009054906101000a900473ffffffffffffffffffffffffffffffffffffffff1673ffffffffffffffffffffffffffffffffffffffff166370a08231336040518263ffffffff167c0100000000000000000000000000000000000000000000000000000000028152600401808273ffffffffffffffffffffffffffffffffffffffff1673ffffffffffffffffffffffffffffffffffffffff168152602001915050602060405180830381600087803b1580156126e357600080fd5b505af11580156126f7573d6000803e3d6000fd5b505050506040513d602081101561270d57600080fd5b81019080805190602001909291905050501015151561272b57600080fd5b61277d81600c60003373ffffffffffffffffffffffffffffffffffffffff1673ffffffffffffffffffffffffffffffffffffffff168152602001908152602001600020546143f590919063ffffffff16565b600c60003373ffffffffffffffffffffffffffffffffffffffff1673ffffffffffffffffffffffffffffffffffffffff16815260200190815260200160002081905550600160009054906101000a900473ffffffffffffffffffffffffffffffffffffffff1673ffffffffffffffffffffffffffffffffffffffff166323b872dd3330846040518463ffffffff167c0100000000000000000000000000000000000000000000000000000000028152600401808473ffffffffffffffffffffffffffffffffffffffff1673ffffffffffffffffffffffffffffffffffffffff1681526020018373ffffffffffffffffffffffffffffffffffffffff1673ffffffffffffffffffffffffffffffffffffffff1681526020018281526020019350505050602060405180830381600087803b1580156128b957600080fd5b505af11580156128cd573d6000803e3d6000fd5b505050506040513d60208110156128e357600080fd5b810190808051906020019092919050505015156128ff57600080fd5b3373ffffffffffffffffffffffffffffffffffffffff167ff7aaf024511d9982df8cd0d437c71c30106e6848cd1ba3d288d7a9c0e276aeda826040518082815260200191505060405180910390a250565b600081565b60008060008060008060006009600089815260200190815260200160002096506009600089815260200190815260200160002060010160149054906101000a900460ff161515156129a557600080fd5b866007015487600601541015156129bf57600095506129c4565b600195505b6129cd88613243565b9450600a600088600001546000191660001916815260200190815260200160002093508360010160019054906101000a900473ffffffffffffffffffffffffffffffffffffffff1692508660010160009054906101000a900473ffffffffffffffffffffffffffffffffffffffff169150612a4788612d31565b8015612a7e57508173ffffffffffffffffffffffffffffffffffffffff163373ffffffffffffffffffffffffffffffffffffffff16145b15612bcb5786600201549050612aa18185600201546143f590919063ffffffff16565b8460020181905550600160009054906101000a900473ffffffffffffffffffffffffffffffffffffffff1673ffffffffffffffffffffffffffffffffffffffff1663a9059cbb84612afb848961459290919063ffffffff16565b6040518363ffffffff167c0100000000000000000000000000000000000000000000000000000000028152600401808373ffffffffffffffffffffffffffffffffffffffff1673ffffffffffffffffffffffffffffffffffffffff16815260200182815260200192505050602060405180830381600087803b158015612b8057600080fd5b505af1158015612b94573d6000803e3d6000fd5b505050506040513d6020811015612baa57600080fd5b81019080805190602001909291905050501515612bc657600080fd5b612d27565b612bd488612d31565b158015612c0c57508273ffffffffffffffffffffffffffffffffffffffff163373ffffffffffffffffffffffffffffffffffffffff16145b15612d2157600160009054906101000a900473ffffffffffffffffffffffffffffffffffffffff1673ffffffffffffffffffffffffffffffffffffffff1663a9059cbb83876040518363ffffffff167c0100000000000000000000000000000000000000000000000000000000028152600401808373ffffffffffffffffffffffffffffffffffffffff1673ffffffffffffffffffffffffffffffffffffffff16815260200182815260200192505050602060405180830381600087803b158015612cd657600080fd5b505af1158015612cea573d6000803e3d6000fd5b505050506040513d6020811015612d0057600080fd5b81019080805190602001909291905050501515612d1c57600080fd5b612d26565b600080fd5b5b5050505050505050565b600080600960008481526020019081526020016000209050600115158160010160149054906101000a900460ff161515141515612dfc576040517f08c379a000000000000000000000000000000000000000000000000000000000815260040180806020018281038252603c8152602001807f4368616c6c656e6765206d757374206265207265736f6c766564206265666f7281526020017f6520747279696e6720746f20636c61696d20746865207265776172640000000081525060400191505060405180910390fd5b806007015481600601541015915050919050565b6000806000806000600960008781526020019081526020016000209350600015158460080160008973ffffffffffffffffffffffffffffffffffffffff1673ffffffffffffffffffffffffffffffffffffffff16815260200190815260200160002060009054906101000a900460ff161515141515612ef7576040517f08c379a00000000000000000000000000000000000000000000000000000000081526004018080602001828103825260178152602001807f52657761726420616c72656164792072656465656d656400000000000000000081525060200191505060405180910390fd5b600115158460010160149054906101000a900460ff161515141515612faa576040517f08c379a000000000000000000000000000000000000000000000000000000000815260040180806020018281038252603c8152602001807f4368616c6c656e6765206d757374206265207265736f6c766564206265666f7281526020017f6520747279696e6720746f20636c61696d20746865207265776172640000000081525060400191505060405180910390fd5b60019250612fb786612d31565b15612fc157600092505b83600a0160008873ffffffffffffffffffffffffffffffffffffffff1673ffffffffffffffffffffffffffffffffffffffff16815260200190815260200160002054915082821415613085578360090160008873ffffffffffffffffffffffffffffffffffffffff1673ffffffffffffffffffffffffffffffffffffffff16815260200190815260200160002054905061307e84600301546130708660040154846145b390919063ffffffff16565b6145f190919063ffffffff16565b945061308a565b600094505b5050505092915050565b600a6020528060005260406000206000915090508060000154908060010160009054906101000a900460ff16908060010160019054906101000a900473ffffffffffffffffffffffffffffffffffffffff1690806002015490806003015490806004015490806005015490806006018054600181600116156101000203166002900480601f0160208091040260200160405190810160405280929190818152602001828054600181600116156101000203166002900480156131975780601f1061316c57610100808354040283529160200191613197565b820191906000526020600020905b81548152906001019060200180831161317a57829003601f168201915b5050505050905088565b606060078054600181600116156101000203166002900480601f0160208091040260200160405190810160405280929190818152602001828054600181600116156101000203166002900480156132395780601f1061320e57610100808354040283529160200191613239565b820191906000526020600020905b81548152906001019060200180831161321c57829003601f168201915b5050505050905090565b60006009600083815260200190815260200160002060010160149054906101000a900460ff1615801561327b575061327a82611595565b5b151561328657600080fd5b60006132c7600960008581526020019081526020016000206007015460096000868152602001908152602001600020600601546143f590919063ffffffff16565b14156132ee5760096000838152602001908152602001600020600201546002029050613333565b6133306009600084815260200190815260200160002060040154600960008581526020019081526020016000206002015460020261459290919063ffffffff16565b90505b919050565b6000806000600960008581526020019081526020016000209250600015158360080160003373ffffffffffffffffffffffffffffffffffffffff1673ffffffffffffffffffffffffffffffffffffffff16815260200190815260200160002060009054906101000a900460ff16151514151561341c576040517f08c379a00000000000000000000000000000000000000000000000000000000081526004018080602001828103825260178152602001807f52657761726420616c72656164792072656465656d656400000000000000000081525060200191505060405180910390fd5b600115158360010160149054906101000a900460ff1615151415156134cf576040517f08c379a000000000000000000000000000000000000000000000000000000000815260040180806020018281038252603c8152602001807f4368616c6c656e6765206d757374206265207265736f6c766564206265666f7281526020017f6520747279696e6720746f20636c61696d20746865207265776172640000000081525060400191505060405180910390fd5b6134d93385612e10565b91508260090160003373ffffffffffffffffffffffffffffffffffffffff1673ffffffffffffffffffffffffffffffffffffffff16815260200190815260200160002054905060008211156136cc5761353f81846003015461459290919063ffffffff16565b836003018190555061355e82846003015461459290919063ffffffff16565b836004018190555060018360080160003373ffffffffffffffffffffffffffffffffffffffff1673ffffffffffffffffffffffffffffffffffffffff16815260200190815260200160002060006101000a81548160ff021916908315150217905550600160009054906101000a900473ffffffffffffffffffffffffffffffffffffffff1673ffffffffffffffffffffffffffffffffffffffff1663a9059cbb33846040518363ffffffff167c0100000000000000000000000000000000000000000000000000000000028152600401808373ffffffffffffffffffffffffffffffffffffffff1673ffffffffffffffffffffffffffffffffffffffff16815260200182815260200192505050602060405180830381600087803b15801561368557600080fd5b505af1158015613699573d6000803e3d6000fd5b505050506040513d60208110156136af57600080fd5b810190808051906020019092919050505015156136cb57600080fd5b5b60008111156138765761372781600c60003373ffffffffffffffffffffffffffffffffffffffff1673ffffffffffffffffffffffffffffffffffffffff1681526020019081526020016000205461459290919063ffffffff16565b600c60003373ffffffffffffffffffffffffffffffffffffffff1673ffffffffffffffffffffffffffffffffffffffff16815260200190815260200160002081905550600160009054906101000a900473ffffffffffffffffffffffffffffffffffffffff1673ffffffffffffffffffffffffffffffffffffffff1663a9059cbb33836040518363ffffffff167c0100000000000000000000000000000000000000000000000000000000028152600401808373ffffffffffffffffffffffffffffffffffffffff1673ffffffffffffffffffffffffffffffffffffffff16815260200182815260200192505050602060405180830381600087803b15801561382f57600080fd5b505af1158015613843573d6000803e3d6000fd5b505050506040513d602081101561385957600080fd5b8101908080519060200190929190505050151561387557600080fd5b5b50505050565b60008142119050919050565b600b6020528060005260406000206000915090505481565b606060048054600181600116156101000203166002900480601f0160208091040260200160405190810160405280929190818152602001828054600181600116156101000203166002900480156139385780601f1061390d57610100808354040283529160200191613938565b820191906000526020600020905b81548152906001019060200180831161391b57829003601f168201915b5050505050905090565b60008273ffffffffffffffffffffffffffffffffffffffff16141580156139a157506000600160009054906101000a900473ffffffffffffffffffffffffffffffffffffffff1673ffffffffffffffffffffffffffffffffffffffff16145b15156139ac57600080fd5b84600090805190602001906139c29291906149e7565b5083600290805190602001906139d99291906149e7565b5082600390805190602001906139f09291906149e7565b506040805190810160405280600681526020017f53494d504c45000000000000000000000000000000000000000000000000000081525060049080519060200190613a3c9291906149e7565b506040805190810160405280600681526020017f53494d504c45000000000000000000000000000000000000000000000000000081525060059080519060200190613a889291906149e7565b506040805190810160405280600681526020017f53494d504c45000000000000000000000000000000000000000000000000000081525060079080519060200190613ad49291906149e7565b506040805190810160405280600581526020017f455243323000000000000000000000000000000000000000000000000000000081525060069080519060200190613b209291906149e7565b5081600160006101000a81548173ffffffffffffffffffffffffffffffffffffffff021916908373ffffffffffffffffffffffffffffffffffffffff160217905550613bb96040805190810160405280600f81526020017f72657175697265644465706f7369740000000000000000000000000000000000815250826000815181101515613baa57fe5b9060200190602002015161461b565b613c106040805190810160405280600d81526020017f6170706c7953746167654c656e00000000000000000000000000000000000000815250826001815181101515613c0157fe5b9060200190602002015161461b565b613c676040805190810160405280600c81526020017f766f746553746167654c656e0000000000000000000000000000000000000000815250826002815181101515613c5857fe5b9060200190602002015161461b565b613cbe6040805190810160405280600f81526020017f64697370656e736174696f6e5063740000000000000000000000000000000000815250826003815181101515613caf57fe5b9060200190602002015161461b565b60006008819055505050505050565b6000600a6000856000191660001916815260200190815260200160002090508060010160019054906101000a900473ffffffffffffffffffffffffffffffffffffffff1673ffffffffffffffffffffffffffffffffffffffff163373ffffffffffffffffffffffffffffffffffffffff16141515613d4a57600080fd5b613d5384611158565b1515613d5e57600080fd5b600081600301541480613d955750600960008260030154815260200190815260200160002060010160149054906101000a900460ff165b1515613da057600080fd5b613da98461470d565b83600019167f4622774f9cec86def02b7366bc58fdcc14bea4651f318b494917efc00d35333c6000858560405180848152602001806020018281038252848482818152602001925080828437820191505094505050505060405180910390a250505050565b606060068054600181600116156101000203166002900480601f016020809104026020016040519081016040528092919081815260200182805460018160011615610100020316600290048015613ea65780601f10613e7b57610100808354040283529160200191613ea6565b820191906000526020600020905b815481529060010190602001808311613e8957829003601f168201915b5050505050905090565b6000600160009054906101000a900473ffffffffffffffffffffffffffffffffffffffff16905090565b6000806000806000613f206040805190810160405280600f81526020017f72657175697265644465706f736974000000000000000000000000000000000081525061167c565b93508784141515613f3057600080fd5b600a60008a600019166000191681526020019081526020016000209250613f5689611f71565b80613f6f57508260010160009054906101000a900460ff165b1515613f7a57600080fd5b600083600301541480613fb15750600960008460030154815260200190815260200160002060010160149054906101000a900460ff165b1515613fbc57600080fd5b6001600854016008819055506140186140096040805190810160405280600c81526020017f766f746553746167654c656e000000000000000000000000000000000000000081525061167c565b426143f590919063ffffffff16565b915060649050610120604051908101604052808a6000191681526020013373ffffffffffffffffffffffffffffffffffffffff1681526020016000151581526020016140986040805190810160405280600f81526020017f72657175697265644465706f736974000000000000000000000000000000000081525061167c565b815260200160008152602001614119606461410b886140fd6140ee6040805190810160405280600f81526020017f64697370656e736174696f6e506374000000000000000000000000000000000081525061167c565b8861459290919063ffffffff16565b6145b390919063ffffffff16565b6145f190919063ffffffff16565b81526020018381526020016000815260200160008152506009600060085481526020019081526020016000206000820151816000019060001916905560208201518160010160006101000a81548173ffffffffffffffffffffffffffffffffffffffff021916908373ffffffffffffffffffffffffffffffffffffffff16021790555060408201518160010160146101000a81548160ff021916908315150217905550606082015181600201556080820151816003015560a0820151816004015560c0820151816005015560e082015181600601556101008201518160070155905050600854836003018190555061421e84846002015461459290919063ffffffff16565b8360020181905550600160009054906101000a900473ffffffffffffffffffffffffffffffffffffffff1673ffffffffffffffffffffffffffffffffffffffff166323b872dd3330876040518463ffffffff167c0100000000000000000000000000000000000000000000000000000000028152600401808473ffffffffffffffffffffffffffffffffffffffff1673ffffffffffffffffffffffffffffffffffffffff1681526020018373ffffffffffffffffffffffffffffffffffffffff1673ffffffffffffffffffffffffffffffffffffffff1681526020018281526020019350505050602060405180830381600087803b15801561431f57600080fd5b505af1158015614333573d6000803e3d6000fd5b505050506040513d602081101561434957600080fd5b8101908080519060200190929190505050151561436557600080fd5b3373ffffffffffffffffffffffffffffffffffffffff1689600019167f49b14c82c36e78a2c0af88ec58604d127b5a0513b00e6a946376374c4c1c1b256008548a8a876040518085815260200180602001838152602001828103825285858281815260200192508082843782019150509550505050505060405180910390a3600854945050505050949350505050565b600080828401905083811015151561440c57600080fd5b8091505092915050565b600a6000826000191660001916815260200190815260200160002060010160009054906101000a900460ff16151561447a5780600019167fa7bc1d57d9006d9d248707c7b6828c1bab8c51719cc06d78c82a3ee891ef967c60405160405180910390a25b6001600a6000836000191660001916815260200190815260200160002060010160006101000a81548160ff02191690831515021790555050565b6000600a6000836000191660001916815260200190815260200160002060030154905060016009600083815260200190815260200160002060010160146101000a81548160ff02191690831515021790555061450f81612d31565b15614553576009600082815260200190815260200160002060060154600960008381526020019081526020016000206003018190555061454e82614416565b61458e565b6009600082815260200190815260200160002060070154600960008381526020019081526020016000206003018190555061458d8261470d565b5b5050565b6000808383111515156145a457600080fd5b82840390508091505092915050565b60008060008414156145c857600091506145ea565b82840290508284828115156145d957fe5b041415156145e657600080fd5b8091505b5092915050565b60008060008311151561460357600080fd5b828481151561460e57fe5b0490508091505092915050565b80600b6000846040516020018082805190602001908083835b6020831015156146595780518252602082019150602081019050602083039250614634565b6001836020036101000a0380198251168184511680821785525050505050509050019150506040516020818303038152906040526040518082805190602001908083835b6020831015156146c2578051825260208201915060208101905060208303925061469d565b6001836020036101000a038019825116818451168082178552505050505050905001915050604051809103902060001916600019168152602001908152602001600020819055505050565b6000806000600a6000856000191660001916815260200190815260200160002092508260010160019054906101000a900473ffffffffffffffffffffffffffffffffffffffff16915082600201549050600a600085600019166000191681526020019081526020016000206000808201600090556001820160006101000a81549060ff02191690556001820160016101000a81549073ffffffffffffffffffffffffffffffffffffffff021916905560028201600090556003820160009055600482016000905560058201600090556006820160006147ec9190614a67565b5050600081111561490357600160009054906101000a900473ffffffffffffffffffffffffffffffffffffffff1673ffffffffffffffffffffffffffffffffffffffff1663a9059cbb83836040518363ffffffff167c0100000000000000000000000000000000000000000000000000000000028152600401808373ffffffffffffffffffffffffffffffffffffffff1673ffffffffffffffffffffffffffffffffffffffff16815260200182815260200192505050602060405180830381600087803b1580156148bc57600080fd5b505af11580156148d0573d6000803e3d6000fd5b505050506040513d60208110156148e657600080fd5b8101908080519060200190929190505050151561490257600080fd5b5b50505050565b6101006040519081016040528060008152602001600015158152602001600073ffffffffffffffffffffffffffffffffffffffff16815260200160008152602001600081526020016000815260200160008152602001606081525090565b828054600181600116156101000203166002900490600052602060002090601f016020900481019282601f106149a857803560ff19168380011785556149d6565b828001600101855582156149d6579182015b828111156149d55782358255916020019190600101906149ba565b5b5090506149e39190614aaf565b5090565b828054600181600116156101000203166002900490600052602060002090601f016020900481019282601f10614a2857805160ff1916838001178555614a56565b82800160010185558215614a56579182015b82811115614a55578251825591602001919060010190614a3a565b5b509050614a639190614aaf565b5090565b50805460018160011615610100020316600290046000825580601f10614a8d5750614aac565b601f016020900490600052602060002090810190614aab9190614aaf565b5b50565b614ad191905b80821115614acd576000816000905550600101614ab5565b5090565b905600a165627a7a72305820174f7c4b05fbf35268784085bc28e869e5e3a1ba00f5e37efabe1815befb7e4d0029",
  "source": "pragma solidity ^0.4.24;\n\nimport \"./zeppelin/ERC20Tradable.sol\";\nimport \"./ITCR20.sol\";\n\n/**\n* @title Simple implementation of TCRs\n* @author Team Xivis <xivis.com>\n*/\ncontract SimpleTCR is ITCR20 {\n    // -------\n    // EVENTS:\n    // -------\n\n    event _Application(bytes32 indexed listingHash, uint deposit, uint appEndDate, string data, address indexed applicant);\n    event _Challenge(bytes32 indexed listingHash, uint challengeID, string data, uint voteEndDate, address indexed challenger);\n    event _Vote(uint indexed challengeID, uint numTokens, address indexed voter);\n    event _VotingRightsGranted(uint numTokens, address indexed voter);\n    event _VotingRightsWithdrawn(uint numTokens, address indexed voter);\n    event _ChallengeResolved(bytes32 indexed listingHash, uint indexed challengeID, uint rewardPool, uint totalTokens, bool success);\n    event _ApplicationWhitelisted(bytes32 indexed listingHash);\n    event _ListingExited(bytes32 indexed listingHash);\n\n    using SafeMath for uint;\n\n    // Base registry variables\n    string private _name;\n    IERC20 private _token;\n    string private _description;\n    string private _acceptedDataType;\n    string private _applyScheme;\n    string private _voteScheme;\n    string private _tokenScheme;\n    string private _exitScheme;\n\n    // Challenge basic variables\n    uint constant public INITIAL_POLL_ID = 0;\n    uint public pollID;\n\n    struct Listing {\n        uint applicationExpiry; // Expiration date of apply stage\n        bool whitelisted;       // Indicates registry status\n        address owner;          // Owner of Listing\n        uint unstakedDeposit;   // Number of tokens in the listing not locked in a challenge\n        uint challengeID;       // Corresponds to a PollID in PLCRVoting\n        uint exitTime;          // Time the listing may leave the registry\n        uint exitTimeExpiry;    // Expiration date of exit period\n        string data;\n    }\n\n    struct Challenge {\n        bytes32 listingHash;    // listing hash of the challenge\n        address challenger;     // Owner of Challenge\n        bool resolved;          // Indication of if challenge is resolved\n        uint stake;             // Number of tokens at stake for either party during challenge\n        uint totalTokens;       // (remaining) Number of tokens used in voting by the winning side\n        uint rewardPool;        // (remaining) Pool of tokens to be distributed to winning voters\n        uint voteEndDate;       /// expiration date of commit period for poll\n        uint votesFor;          /// all token votes supporting proposal\n        uint votesAgainst;      /// all token votes countering proposal\n        mapping(address => bool) tokenClaims;   // Indicates whether a voter has claimed a reward yet\n        mapping(address => uint) tokenStakes;   // Indicates the amount of tokens locked by a voter\n        mapping(address => uint) votingOptions; // Indicates the amount of tokens locked by a voter\n    }\n\n    // Maps challengeIDs to associated challenge data\n    mapping(uint => Challenge) public challenges;\n\n    // Maps listingHashes to associated listingHash data\n    mapping(bytes32 => Listing) public listings;\n\n    // Maps parameters string hashes to values\n    mapping(bytes32 => uint) public params;\n\n    // Maps user's address to voteToken balance\n    mapping(address => uint) public voteTokenBalance;\n\n    /**\n    * @dev Initializer. Can only be called once.\n    * @param token The address where the ERC20 token contract is deployed\n    */\n    function init(string name, string description, string acceptedDataType, address token, uint[] parameters) public {\n        require(token != 0 && address(_token) == 0);\n\n        // Base registry parameters\n        _name = name;\n        _description = description;\n        _acceptedDataType = acceptedDataType;\n        _applyScheme = \"SIMPLE\";\n        _voteScheme = \"SIMPLE\";\n        _exitScheme = \"SIMPLE\";\n\n        _tokenScheme = \"ERC20\";\n        _token = ERC20Tradable(token);\n\n        // required deposit for listing to be whitelisted. No more, no less.\n        set(\"requiredDeposit\", parameters[0]);\n\n        // period over which applicants wait to be whitelisted\n        set(\"applyStageLen\", parameters[1]);\n\n        // length of commit period for voting\n        set(\"voteStageLen\", parameters[2]);\n\n        // percentage of losing party's deposit distributed to winning party\n        set(\"dispensationPct\", parameters[3]);\n\n        // sets the initial pollID\n        pollID = INITIAL_POLL_ID;\n    }\n\n    function name() public view returns (string){\n        return _name;\n    }\n\n    function description() public view returns (string){\n        return _description;\n    }\n\n    function acceptedDataType() public view returns (string){\n        return _acceptedDataType;\n    }\n\n    function getParameter(string pName) public view returns (uint pValue) {\n        return get(pName);\n    }\n\n    function applyScheme() public view returns (string){\n        return _applyScheme;\n    }\n\n    function voteScheme() public view returns (string){\n        return _voteScheme;\n    }\n\n    function tokenScheme() public view returns (string){\n        return _tokenScheme;\n    }\n\n    function exitScheme() public view returns (string){\n        return _exitScheme;\n    }\n\n    function token() public view returns (IERC20) {\n        return _token;\n    }\n\n    // Main functions\n    function apply(bytes32 _listingHash, uint _tokenAmount, string _data) external {\n        require(!isWhitelisted(_listingHash), \"ListingHash is already whitelisted\");\n        require(!appWasMade(_listingHash), \"Application was already made for this listingHash\");\n        require(_tokenAmount == get(\"requiredDeposit\"), \"Staked tokens must be equal to requiredDeposit\");\n\n        // Sets owner\n        Listing storage listing = listings[_listingHash];\n        listing.owner = msg.sender;\n        listing.data = _data;\n\n        // Sets apply stage end time\n        listing.applicationExpiry = block.timestamp.add(get(\"applyStageLen\"));\n        listing.unstakedDeposit = _tokenAmount;\n\n        // Transfers tokens from user to Registry contract\n        require(_token.transferFrom(listing.owner, this, _tokenAmount), \"TransferFrom transaction failed\");\n\n        emit _Application(_listingHash, _tokenAmount, listing.applicationExpiry, _data, msg.sender);\n    }\n\n    function getListingData(bytes32 _listingHash) external view returns (string memory jsonData) {\n        Listing memory listing = listings[_listingHash];\n        // You can do some kind of data transformation here\n        return listing.data;\n    }\n\n    /**\n    * Determines whether the given listingHash be whitelisted.\n    * @param _listingHash The listingHash whose status is to be examined\n    */\n    function canBeWhitelisted(bytes32 _listingHash) view public returns (bool) {\n        uint challengeID = listings[_listingHash].challengeID;\n        // Ensures that the application was made,\n        // the application period has ended,\n        // the listingHash can be whitelisted,\n        // and either: the challengeID == 0, or the challenge has been resolved.\n        if (\n            appWasMade(_listingHash) &&\n            listings[_listingHash].applicationExpiry < now &&\n            !isWhitelisted(_listingHash) &&\n            (challengeID == 0 || challenges[challengeID].resolved == true)\n        ) {return true;}\n\n        return false;\n    }\n\n    /**\n    * Add an already Applied listingHash to the whitelist\n    * @dev Called by updateStatus() if the applicationExpiry date passed without a challenge being made.\n    * @dev Called by resolveChallenge() if an application/listing beat a challenge.\n    * @param _listingHash The listingHash of an application/listingHash to be whitelisted\n    */\n    function whitelistApplication(bytes32 _listingHash) private {\n        if (!listings[_listingHash].whitelisted) {emit _ApplicationWhitelisted(_listingHash);}\n        listings[_listingHash].whitelisted = true;\n    }\n\n    /**\n    * Determines the winner in a challenge. Rewards the winner tokens and either whitelists\n    * or de-whitelists (reset) the listingHash.\n    * @param _listingHash A listingHash with a challenge that is to be resolved\n    */\n    function resolveChallenge(bytes32 _listingHash) private {\n        uint challengeID = listings[_listingHash].challengeID;\n\n        // Sets flag on challenge being processed\n        challenges[challengeID].resolved = true;\n\n        if (challengeSucceeded(challengeID)) {\n            challenges[challengeID].totalTokens = challenges[challengeID].votesFor;\n            whitelistApplication(_listingHash);\n        } else {\n            challenges[challengeID].totalTokens = challenges[challengeID].votesAgainst;\n            resetListing(_listingHash);\n        }\n    }\n\n    /**\n     * Determines the number of tokens awarded to the winning party in a challenge.\n     * @param _challengeID The challengeID to determine a reward for\n     */\n    function determineReward(uint _challengeID) public view returns (uint) {\n        require(!challenges[_challengeID].resolved && challengeEnded(_challengeID));\n\n        // Edge case, nobody voted, give all tokens to the challenger.\n        if (challenges[_challengeID].votesFor.add(challenges[_challengeID].votesAgainst) == 0) {\n            return 2 * challenges[_challengeID].stake;\n        }\n\n        return (2 * challenges[_challengeID].stake).sub(challenges[_challengeID].rewardPool);\n    }\n\n    /**\n    * Updates a listingHash status from 'application' to 'listing' or resolves a challenge if one exists.\n    * @param _listingHash The listingHash whose status is being updated\n    */\n    function updateStatus(bytes32 _listingHash) public {\n        if (canBeWhitelisted(_listingHash)) {\n            whitelistApplication(_listingHash);\n        } else if (challengeCanBeResolved(_listingHash)) {\n            resolveChallenge(_listingHash);\n        } else {\n            revert();\n        }\n    }\n\n    /**\n    * Starts a poll for a listingHash which is either in the apply stage or already in the whitelist.\n    * @dev Tokens are taken from the challenger and the applicant's deposits are locked.\n    * @param _listingHash The listingHash being challenged, whether listed or in application\n    * @param _data Extra data relevant to the challenge. Think IPFS hashes.\n    */\n    function challenge(bytes32 _listingHash, uint _tokenAmount, string _data) external returns (uint challengeID) {\n        uint requiredDeposit = get(\"requiredDeposit\");\n\n        // _tokenAmount must match the requiredDeposit\n        require(requiredDeposit == _tokenAmount);\n\n        Listing storage listing = listings[_listingHash];\n\n        // Listing must be in apply stage or already on the whitelist\n        require(appWasMade(_listingHash) || listing.whitelisted);\n        // Prevent multiple challenges\n        require(listing.challengeID == 0 || challenges[listing.challengeID].resolved);\n\n        // Sets pollID\n        pollID = pollID + 1;\n\n        // Defines voting commit duration\n        uint voteEndDate = block.timestamp.add(get(\"voteStageLen\"));\n\n        uint oneHundred = 100;\n        // Kludge that we need to use SafeMath\n        challenges[pollID] = Challenge({\n            listingHash : _listingHash,\n            challenger : msg.sender,\n            rewardPool : ((oneHundred.sub(get(\"dispensationPct\"))).mul(requiredDeposit)).div(100),\n            stake : get(\"requiredDeposit\"),\n            resolved : false,\n            totalTokens : 0,\n            voteEndDate : voteEndDate,\n            votesFor : 0,\n            votesAgainst : 0\n            });\n\n        // Updates listingHash to store most recent challenge\n        listing.challengeID = pollID;\n\n        // Locks tokens for listingHash during challenge\n        listing.unstakedDeposit = listing.unstakedDeposit.sub(requiredDeposit);\n\n        // Takes tokens from challenger\n        require(_token.transferFrom(msg.sender, this, requiredDeposit));\n\n        emit _Challenge(_listingHash, pollID, _data, voteEndDate, msg.sender);\n        return pollID;\n    }\n\n    /**\n    * Loads _tokenAmount ERC20 tokens into the voting contract for one-to-one voting rights\n    * @dev Assumes that msg.sender has approved voting contract to spend on their behalf\n    * @param _tokenAmount The number of votingTokens desired in exchange for ERC20 tokens\n    */\n    function requestVotingRights(uint _tokenAmount) public {\n        require(_token.balanceOf(msg.sender) >= _tokenAmount);\n        voteTokenBalance[msg.sender] = voteTokenBalance[msg.sender].add(_tokenAmount);\n        require(_token.transferFrom(msg.sender, this, _tokenAmount));\n        emit _VotingRightsGranted(_tokenAmount, msg.sender);\n    }\n\n    /**\n    * Checks if an expiration date has been reached\n    * @param _terminationDate Integer timestamp of date to compare current timestamp with\n    * @return expired Boolean indication of whether the terminationDate has passed\n    */\n    function isExpired(uint _terminationDate) constant public returns (bool expired) {\n        return (block.timestamp > _terminationDate);\n    }\n\n    /**\n    * Checks if the vote period is still active for the specified poll\n    * @dev Checks isExpired for the specified poll's voteEndDate\n    * @param _challengeID Integer identifier associated with target poll\n    * @return Boolean indication of isCommitPeriodActive for target poll\n    */\n    function votePeriodActive(uint _challengeID) constant public returns (bool active) {\n        Challenge storage _challenge = challenges[_challengeID];\n        require(challengeExists(_challenge.listingHash) > 0);\n        return !isExpired(_challenge.voteEndDate);\n    }\n\n    /**\n    * Commits vote using hash of choice and secret salt to conceal vote until reveal\n    * @param _challengeID Integer identifier associated with target poll\n    * @param _tokenAmount The number of tokens to be committed towards the target poll\n    * @param _data Extra data relevant to the vote.\n    */\n    function vote(uint _challengeID, uint _tokenAmount, string _data) external {\n        require(votePeriodActive(_challengeID));\n\n        // try to convert _data string to a valid _voteOption\n        uint _voteOption;\n        if (keccak256(abi.encodePacked(_data)) == keccak256(abi.encodePacked(\"1\"))) {\n            _voteOption = 1;\n        } else if (keccak256(abi.encodePacked(_data)) == keccak256(abi.encodePacked(\"0\"))) {\n            _voteOption = 0;\n        } else {\n            revert();\n        }\n\n        // get challenge \n        Challenge storage _challenge = challenges[_challengeID];\n\n        // voter can't change his previous vote\n        require(_challenge.tokenStakes[msg.sender] == 0);\n\n        // prevent user from committing to zero node placeholder\n        require(_challengeID != 0);\n\n        // if msg.sender doesn't have enough voting rights,\n        // request for enough voting rights\n        if (voteTokenBalance[msg.sender] < _tokenAmount) {\n            uint remainder = _tokenAmount.sub(voteTokenBalance[msg.sender]);\n            requestVotingRights(remainder);\n        }\n\n        // make sure msg.sender has enough voting rights\n        require(voteTokenBalance[msg.sender] >= _tokenAmount);\n\n        // set voter's tokenStakes\n        _challenge.tokenStakes[msg.sender] = _tokenAmount;\n\n        // adds voter's stake to total amount of tokens staked in this challenge\n        _challenge.stake = _tokenAmount.add(_challenge.stake);\n\n        // apply numTokens to appropriate poll choice\n        if (_voteOption == 1) {\n            _challenge.votesFor = _challenge.votesFor.add(_tokenAmount);\n        } else {\n            _challenge.votesAgainst = _challenge.votesAgainst.add(_tokenAmount);\n        }\n\n        // store voter's selected option\n        _challenge.votingOptions[msg.sender] = _voteOption;\n\n        emit _Vote(_challengeID, _tokenAmount, msg.sender);\n    }\n\n    /**\n    * Called by a applier or challenger to get their reward\n    * @dev Someone must call updateStatus() before this can be called.\n    * @param _challengeID The voting pollID of the challenge a reward is being claimed for\n    */\n    function claimChallengeReward(uint _challengeID) public {\n        Challenge storage _challenge = challenges[_challengeID];\n        require(!challenges[_challengeID].resolved);\n\n        // calculates the winning choice\n        uint winningChoice;\n        if (_challenge.votesFor >= _challenge.votesAgainst) {\n            winningChoice = 0;\n        } else {\n            winningChoice = 1;\n        }\n\n        uint reward = determineReward(_challengeID);\n\n        Listing storage listing = listings[_challenge.listingHash];\n        address owner = listing.owner;\n        address challenger = _challenge.challenger;\n\n        if (challengeSucceeded(_challengeID) && msg.sender == challenger) {\n            // Send to challenger\n            uint stake = _challenge.stake;\n\n            // Unlock stake and return it to the applier\n            listing.unstakedDeposit = listing.unstakedDeposit.add(stake);\n\n            // Transfer the remaining reward to the challenger\n            require(_token.transfer(owner, reward.sub(stake)));\n        } else if (!challengeSucceeded(_challengeID) && msg.sender == owner) {\n            // Transfer the reward to the challenger\n            require(_token.transfer(challenger, reward));\n        } else {\n            revert();\n        }\n    }\n\n    /**\n    * Called by a voter to get their reward\n    * @dev Someone must call updateStatus() before this can be called.\n    * @param _challengeID The voting pollID of the challenge a reward is being claimed for\n    */\n    function claimVoterReward(uint _challengeID) public {\n        Challenge storage _challenge = challenges[_challengeID];\n        // Ensures the voter has not already claimed tokens and _challenge results have\n        // been processed\n        require(_challenge.tokenClaims[msg.sender] == false, \"Reward already redeemed\");\n        require(_challenge.resolved == true, \"Challenge must be resolved before trying to claim the reward\");\n\n        uint reward = voterReward(msg.sender, _challengeID);\n        uint voterTokens = _challenge.tokenStakes[msg.sender];\n\n        if (reward > 0) {\n            // Subtracts the voter's information to preserve the participation ratios\n            // of other voters compared to the remaining pool of rewards\n            _challenge.totalTokens = _challenge.totalTokens.sub(voterTokens);\n            _challenge.rewardPool = _challenge.totalTokens.sub(reward);\n\n            // Ensures a voter cannot claim tokens again\n            _challenge.tokenClaims[msg.sender] = true;\n\n            require(_token.transfer(msg.sender, reward));\n            // Reward + Unlock could be implemented in one single transfer\n        }\n\n        // Unlock staked tokens in the challenge\n        if (voterTokens > 0) {\n            voteTokenBalance[msg.sender] = voteTokenBalance[msg.sender].sub(voterTokens);\n            require(_token.transfer(msg.sender, voterTokens));\n        }\n    }\n\n    /**\n    * Deletes a listingHash from the whitelist and transfers remaining tokens back to owner\n    * @param _listingHash The listing hash to delete\n    */\n    function resetListing(bytes32 _listingHash) private {\n        Listing storage listing = listings[_listingHash];\n\n        // Deleting listing to prevent reentry\n        address owner = listing.owner;\n        uint unstakedDeposit = listing.unstakedDeposit;\n        delete listings[_listingHash];\n\n        // Transfers any remaining balance back to the owner\n        if (unstakedDeposit > 0) {\n            require(_token.transfer(owner, unstakedDeposit));\n        }\n    }\n\n    /**\n    * Inits the exit of the listing (deletes a listingHash and transfers remaining tokens back to owner)\n    * @param _listingHash The listing hash to delete\n    * @param _data Extra info added to this function\n    */\n    function exit(bytes32 _listingHash, string _data) external {\n        Listing storage listing = listings[_listingHash];\n\n        require(msg.sender == listing.owner);\n        require(isWhitelisted(_listingHash));\n\n        // Cannot exit during ongoing challenge\n        require(listing.challengeID == 0 || challenges[listing.challengeID].resolved);\n\n        resetListing(_listingHash);\n\n        emit _ListingExited(_listingHash, 0, _data);\n    }\n\n    /**\n    * Determines if a listingHash is whitelisted\n    * @param _listingHash of an application\n    */\n    function isWhitelisted(bytes32 _listingHash) public view returns (bool whitelisted) {\n        return listings[_listingHash].whitelisted;\n    }\n\n    /**\n    * Determines if a challenge exists\n    * @param _listingHash of an application\n    * @return lastChallengeID indicating 0 if the challenge not exits or is not resolved\n    */\n    function challengeExists(bytes32 _listingHash) public view returns (uint lastChallengeID) {\n        uint challengeID = listings[_listingHash].challengeID;\n\n        if (challengeID == 0 || !challenges[challengeID].resolved) {\n            return 0;\n        }\n\n        return challengeID;\n    }\n\n    /**\n    * Determines if poll is over\n    * @dev Checks isExpired for specified poll's revealEndDate\n    * @return Boolean indication of whether polling period is over\n    */\n    function challengeEnded(uint _challengeID) constant public returns (bool ended) {\n        // require(challengeExists(_challengeID) > 0);\n\n        return isExpired(challenges[_challengeID].voteEndDate);\n    }\n\n    /**\n    * Determines whether voting has concluded in a challenge for a given listingHash. Throws if no challenge exists.\n    * @param _listingHash A listingHash with an unresolved challenge\n    */\n    function challengeCanBeResolved(bytes32 _listingHash) public view returns (bool) {\n        uint challengeID = listings[_listingHash].challengeID;\n        require(challengeExists(_listingHash) > 0);\n\n        return challengeEnded(challengeID);\n    }\n\n    /**\n    * Get the amount of tokens rewarded to be rewarded\n    * @param _voter address of the voter\n    * @param _challengeID ID of the challenge\n    */\n    function voterReward(address _voter, uint _challengeID) public view returns (uint tokenAmount) {\n        Challenge storage _challenge = challenges[_challengeID];\n        // Ensures the voter has not already claimed tokens and _challenge results have been processed\n        require(_challenge.tokenClaims[_voter] == false, \"Reward already redeemed\");\n        require(_challenge.resolved == true, \"Challenge must be resolved before trying to claim the reward\");\n\n        // calculates the winning choice\n        uint winningChoice = 1;\n        if (challengeSucceeded(_challengeID)) {\n            winningChoice = 0;\n        }\n\n        // voter's tokens staked at this challenge \n        uint _voterOption = _challenge.votingOptions[_voter];\n        if (_voterOption == winningChoice) {\n            uint voterTokens = _challenge.tokenStakes[_voter];\n            return voterTokens.mul(_challenge.rewardPool).div(_challenge.totalTokens);\n        } else {\n            return 0;\n        }\n    }\n\n    /**\n    * Get the amount of tokens rewarded to the challenger\n    * @param _applierOrChallenger address of the challenger\n    * @param _challengeID ID of the challenge\n    */\n    function challengeReward(address _applierOrChallenger, uint _challengeID) public view returns (uint tokenAmount) {\n        Challenge storage _challenge = challenges[_challengeID];\n        require(_challenge.resolved == true, \"Challenge must be resolved before trying to claim the reward\");\n\n        uint reward = determineReward(_challengeID);\n        address applier = listings[_challenge.listingHash].owner;\n        address challenger = _challenge.challenger;\n\n        if(challengeSucceeded(_challengeID) && _applierOrChallenger == challenger){\n            return reward;\n        } else if (!challengeSucceeded(_challengeID) && _applierOrChallenger == applier){\n            return reward;\n        }\n\n        return 0;\n    }\n\n    /**\n    * Determines if challenge has challengeSucceeded\n    * @dev Check if votesFor won\n    * @param _challengeID Integer identifier associated with listing challenge\n    */\n    function challengeSucceeded(uint _challengeID) constant public returns (bool succeeded) {\n        Challenge storage _challenge = challenges[_challengeID];\n        require(_challenge.resolved == true, \"Challenge must be resolved before trying to claim the reward\");\n        return _challenge.votesFor >= _challenge.votesAgainst;\n    }\n\n    /**\n    * Returns true if apply was called for this listingHash\n    * @param _listingHash The listingHash whose status is to be examined\n    */\n    function appWasMade(bytes32 _listingHash) view public returns (bool exists) {\n        return listings[_listingHash].applicationExpiry > 0;\n    }\n\n    /**\n    * Gets the parameter keyed by the provided name value from the params mapping\n    * @param pName The key whose value is to be determined\n    * @return value The value of the parameter\n    */\n    function get(string pName) public view returns (uint value) {\n        return params[keccak256(abi.encodePacked(pName))];\n    }\n\n    /**\n    * Sets the param keyed by the provided name to the provided value\n    * @param pName The name of the param to be set\n    * @param value The value to set the param to be set\n    */\n    function set(string pName, uint value) private {\n        params[keccak256(abi.encodePacked(pName))] = value;\n    }\n}",
  "sourcePath": "/home/marto/projects/opencurator/contracts/SimpleTCR.sol",
  "compiler": {
    "name": "solc",
    "version": "0.4.24+commit.e67f0147.Emscripten.clang"
  },
  "schemaVersion": "2.0.0",
  "updatedAt": "2019-02-17T14:17:35.435Z"
}