{
  "contractName": "SimpleTCR",
  "abi": [
    {
      "constant": true,
      "inputs": [
        {
          "name": "",
          "type": "address"
        }
      ],
      "name": "voteTokenBalance",
      "outputs": [
        {
          "name": "",
          "type": "uint256"
        }
      ],
      "payable": false,
      "stateMutability": "view",
      "type": "function"
    },
    {
      "constant": true,
      "inputs": [],
      "name": "pollID",
      "outputs": [
        {
          "name": "",
          "type": "uint256"
        }
      ],
      "payable": false,
      "stateMutability": "view",
      "type": "function"
    },
    {
      "constant": true,
      "inputs": [
        {
          "name": "",
          "type": "uint256"
        }
      ],
      "name": "challenges",
      "outputs": [
        {
          "name": "challenger",
          "type": "address"
        },
        {
          "name": "resolved",
          "type": "bool"
        },
        {
          "name": "stake",
          "type": "uint256"
        },
        {
          "name": "totalTokens",
          "type": "uint256"
        },
        {
          "name": "rewardPool",
          "type": "uint256"
        },
        {
          "name": "commitEndDate",
          "type": "uint256"
        },
        {
          "name": "votesFor",
          "type": "uint256"
        },
        {
          "name": "votesAgainst",
          "type": "uint256"
        }
      ],
      "payable": false,
      "stateMutability": "view",
      "type": "function"
    },
    {
      "constant": true,
      "inputs": [],
      "name": "INITIAL_POLL_ID",
      "outputs": [
        {
          "name": "",
          "type": "uint256"
        }
      ],
      "payable": false,
      "stateMutability": "view",
      "type": "function"
    },
    {
      "constant": true,
      "inputs": [
        {
          "name": "",
          "type": "bytes32"
        }
      ],
      "name": "listings",
      "outputs": [
        {
          "name": "applicationExpiry",
          "type": "uint256"
        },
        {
          "name": "whitelisted",
          "type": "bool"
        },
        {
          "name": "owner",
          "type": "address"
        },
        {
          "name": "unstakedDeposit",
          "type": "uint256"
        },
        {
          "name": "challengeID",
          "type": "uint256"
        },
        {
          "name": "exitTime",
          "type": "uint256"
        },
        {
          "name": "exitTimeExpiry",
          "type": "uint256"
        }
      ],
      "payable": false,
      "stateMutability": "view",
      "type": "function"
    },
    {
      "constant": true,
      "inputs": [
        {
          "name": "",
          "type": "bytes32"
        }
      ],
      "name": "params",
      "outputs": [
        {
          "name": "",
          "type": "uint256"
        }
      ],
      "payable": false,
      "stateMutability": "view",
      "type": "function"
    },
    {
      "anonymous": false,
      "inputs": [
        {
          "indexed": true,
          "name": "listingHash",
          "type": "bytes32"
        },
        {
          "indexed": false,
          "name": "deposit",
          "type": "uint256"
        },
        {
          "indexed": false,
          "name": "appEndDate",
          "type": "uint256"
        },
        {
          "indexed": false,
          "name": "data",
          "type": "string"
        },
        {
          "indexed": true,
          "name": "applicant",
          "type": "address"
        }
      ],
      "name": "_Application",
      "type": "event"
    },
    {
      "anonymous": false,
      "inputs": [
        {
          "indexed": true,
          "name": "listingHash",
          "type": "bytes32"
        },
        {
          "indexed": false,
          "name": "challengeID",
          "type": "uint256"
        },
        {
          "indexed": false,
          "name": "data",
          "type": "string"
        },
        {
          "indexed": false,
          "name": "commitEndDate",
          "type": "uint256"
        },
        {
          "indexed": true,
          "name": "challenger",
          "type": "address"
        }
      ],
      "name": "_Challenge",
      "type": "event"
    },
    {
      "anonymous": false,
      "inputs": [
        {
          "indexed": false,
          "name": "voteQuorum",
          "type": "uint256"
        },
        {
          "indexed": false,
          "name": "commitEndDate",
          "type": "uint256"
        },
        {
          "indexed": true,
          "name": "pollID",
          "type": "uint256"
        },
        {
          "indexed": true,
          "name": "creator",
          "type": "address"
        }
      ],
      "name": "_PollCreated",
      "type": "event"
    },
    {
      "anonymous": false,
      "inputs": [
        {
          "indexed": true,
          "name": "challengeID",
          "type": "uint256"
        },
        {
          "indexed": false,
          "name": "numTokens",
          "type": "uint256"
        },
        {
          "indexed": true,
          "name": "voter",
          "type": "address"
        }
      ],
      "name": "_Vote",
      "type": "event"
    },
    {
      "anonymous": false,
      "inputs": [
        {
          "indexed": false,
          "name": "numTokens",
          "type": "uint256"
        },
        {
          "indexed": true,
          "name": "voter",
          "type": "address"
        }
      ],
      "name": "_VotingRightsGranted",
      "type": "event"
    },
    {
      "anonymous": false,
      "inputs": [
        {
          "indexed": false,
          "name": "numTokens",
          "type": "uint256"
        },
        {
          "indexed": true,
          "name": "voter",
          "type": "address"
        }
      ],
      "name": "_VotingRightsWithdrawn",
      "type": "event"
    },
    {
      "anonymous": false,
      "inputs": [
        {
          "indexed": true,
          "name": "listingHash",
          "type": "bytes32"
        },
        {
          "indexed": true,
          "name": "challengeID",
          "type": "uint256"
        },
        {
          "indexed": false,
          "name": "rewardPool",
          "type": "uint256"
        },
        {
          "indexed": false,
          "name": "totalTokens",
          "type": "uint256"
        },
        {
          "indexed": false,
          "name": "success",
          "type": "bool"
        }
      ],
      "name": "_ChallengeResolved",
      "type": "event"
    },
    {
      "anonymous": false,
      "inputs": [
        {
          "indexed": true,
          "name": "listingHash",
          "type": "bytes32"
        }
      ],
      "name": "_ApplicationWhitelisted",
      "type": "event"
    },
    {
      "anonymous": false,
      "inputs": [
        {
          "indexed": true,
          "name": "listingHash",
          "type": "bytes32"
        }
      ],
      "name": "_ListingExited",
      "type": "event"
    },
    {
      "anonymous": false,
      "inputs": [
        {
          "indexed": true,
          "name": "listingHash",
          "type": "bytes32"
        },
        {
          "indexed": false,
          "name": "deposit",
          "type": "uint256"
        },
        {
          "indexed": false,
          "name": "appEndDate",
          "type": "uint256"
        },
        {
          "indexed": true,
          "name": "applier",
          "type": "address"
        },
        {
          "indexed": false,
          "name": "data",
          "type": "string"
        }
      ],
      "name": "_Application",
      "type": "event"
    },
    {
      "anonymous": false,
      "inputs": [
        {
          "indexed": true,
          "name": "listingHash",
          "type": "bytes32"
        },
        {
          "indexed": false,
          "name": "challengeID",
          "type": "uint256"
        },
        {
          "indexed": false,
          "name": "voteEndDate",
          "type": "uint256"
        },
        {
          "indexed": true,
          "name": "challenger",
          "type": "address"
        },
        {
          "indexed": false,
          "name": "data",
          "type": "string"
        }
      ],
      "name": "_Challenge",
      "type": "event"
    },
    {
      "anonymous": false,
      "inputs": [
        {
          "indexed": true,
          "name": "challengeID",
          "type": "uint256"
        },
        {
          "indexed": false,
          "name": "numTokens",
          "type": "uint256"
        },
        {
          "indexed": true,
          "name": "voter",
          "type": "address"
        },
        {
          "indexed": false,
          "name": "_data",
          "type": "string"
        }
      ],
      "name": "_Vote",
      "type": "event"
    },
    {
      "anonymous": false,
      "inputs": [
        {
          "indexed": true,
          "name": "listingHash",
          "type": "bytes32"
        },
        {
          "indexed": false,
          "name": "voteEndDate",
          "type": "uint256"
        },
        {
          "indexed": false,
          "name": "data",
          "type": "string"
        }
      ],
      "name": "_ListingExited",
      "type": "event"
    },
    {
      "constant": false,
      "inputs": [
        {
          "name": "name",
          "type": "string"
        },
        {
          "name": "description",
          "type": "string"
        },
        {
          "name": "acceptedDataType",
          "type": "string"
        },
        {
          "name": "token",
          "type": "address"
        },
        {
          "name": "parameters",
          "type": "uint256[]"
        }
      ],
      "name": "init",
      "outputs": [],
      "payable": false,
      "stateMutability": "nonpayable",
      "type": "function"
    },
    {
      "constant": true,
      "inputs": [],
      "name": "name",
      "outputs": [
        {
          "name": "",
          "type": "string"
        }
      ],
      "payable": false,
      "stateMutability": "view",
      "type": "function"
    },
    {
      "constant": true,
      "inputs": [],
      "name": "description",
      "outputs": [
        {
          "name": "",
          "type": "string"
        }
      ],
      "payable": false,
      "stateMutability": "view",
      "type": "function"
    },
    {
      "constant": true,
      "inputs": [],
      "name": "acceptedDataType",
      "outputs": [
        {
          "name": "",
          "type": "string"
        }
      ],
      "payable": false,
      "stateMutability": "view",
      "type": "function"
    },
    {
      "constant": true,
      "inputs": [
        {
          "name": "pName",
          "type": "string"
        }
      ],
      "name": "getParameter",
      "outputs": [
        {
          "name": "pValue",
          "type": "uint256"
        }
      ],
      "payable": false,
      "stateMutability": "view",
      "type": "function"
    },
    {
      "constant": true,
      "inputs": [],
      "name": "applyScheme",
      "outputs": [
        {
          "name": "",
          "type": "string"
        }
      ],
      "payable": false,
      "stateMutability": "view",
      "type": "function"
    },
    {
      "constant": true,
      "inputs": [],
      "name": "voteScheme",
      "outputs": [
        {
          "name": "",
          "type": "string"
        }
      ],
      "payable": false,
      "stateMutability": "view",
      "type": "function"
    },
    {
      "constant": true,
      "inputs": [],
      "name": "tokenScheme",
      "outputs": [
        {
          "name": "",
          "type": "string"
        }
      ],
      "payable": false,
      "stateMutability": "view",
      "type": "function"
    },
    {
      "constant": true,
      "inputs": [],
      "name": "exitScheme",
      "outputs": [
        {
          "name": "",
          "type": "string"
        }
      ],
      "payable": false,
      "stateMutability": "view",
      "type": "function"
    },
    {
      "constant": true,
      "inputs": [],
      "name": "token",
      "outputs": [
        {
          "name": "",
          "type": "address"
        }
      ],
      "payable": false,
      "stateMutability": "view",
      "type": "function"
    },
    {
      "constant": false,
      "inputs": [
        {
          "name": "_listingHash",
          "type": "bytes32"
        },
        {
          "name": "_tokenAmount",
          "type": "uint256"
        },
        {
          "name": "_data",
          "type": "string"
        }
      ],
      "name": "apply",
      "outputs": [],
      "payable": false,
      "stateMutability": "nonpayable",
      "type": "function"
    },
    {
      "constant": true,
      "inputs": [
        {
          "name": "_listingHash",
          "type": "bytes32"
        }
      ],
      "name": "getListingData",
      "outputs": [
        {
          "name": "jsonData",
          "type": "string"
        }
      ],
      "payable": false,
      "stateMutability": "view",
      "type": "function"
    },
    {
      "constant": true,
      "inputs": [
        {
          "name": "_listingHash",
          "type": "bytes32"
        }
      ],
      "name": "canBeWhitelisted",
      "outputs": [
        {
          "name": "",
          "type": "bool"
        }
      ],
      "payable": false,
      "stateMutability": "view",
      "type": "function"
    },
    {
      "constant": false,
      "inputs": [
        {
          "name": "_listingHash",
          "type": "bytes32"
        }
      ],
      "name": "updateStatus",
      "outputs": [],
      "payable": false,
      "stateMutability": "nonpayable",
      "type": "function"
    },
    {
      "constant": false,
      "inputs": [
        {
          "name": "_listingHash",
          "type": "bytes32"
        },
        {
          "name": "_tokenAmount",
          "type": "uint256"
        },
        {
          "name": "_data",
          "type": "string"
        }
      ],
      "name": "challenge",
      "outputs": [
        {
          "name": "challengeID",
          "type": "uint256"
        }
      ],
      "payable": false,
      "stateMutability": "nonpayable",
      "type": "function"
    },
    {
      "constant": false,
      "inputs": [
        {
          "name": "_tokenAmount",
          "type": "uint256"
        }
      ],
      "name": "requestVotingRights",
      "outputs": [],
      "payable": false,
      "stateMutability": "nonpayable",
      "type": "function"
    },
    {
      "constant": true,
      "inputs": [
        {
          "name": "_terminationDate",
          "type": "uint256"
        }
      ],
      "name": "isExpired",
      "outputs": [
        {
          "name": "expired",
          "type": "bool"
        }
      ],
      "payable": false,
      "stateMutability": "view",
      "type": "function"
    },
    {
      "constant": true,
      "inputs": [
        {
          "name": "_challengeID",
          "type": "uint256"
        }
      ],
      "name": "commitPeriodActive",
      "outputs": [
        {
          "name": "active",
          "type": "bool"
        }
      ],
      "payable": false,
      "stateMutability": "view",
      "type": "function"
    },
    {
      "constant": false,
      "inputs": [
        {
          "name": "_challengeID",
          "type": "uint256"
        },
        {
          "name": "_tokenAmount",
          "type": "uint256"
        },
        {
          "name": "_data",
          "type": "string"
        }
      ],
      "name": "vote",
      "outputs": [],
      "payable": false,
      "stateMutability": "nonpayable",
      "type": "function"
    },
    {
      "constant": false,
      "inputs": [
        {
          "name": "_challengeID",
          "type": "uint256"
        }
      ],
      "name": "claimChallengeReward",
      "outputs": [],
      "payable": false,
      "stateMutability": "nonpayable",
      "type": "function"
    },
    {
      "constant": false,
      "inputs": [
        {
          "name": "_challengeID",
          "type": "uint256"
        }
      ],
      "name": "claimVoterReward",
      "outputs": [],
      "payable": false,
      "stateMutability": "nonpayable",
      "type": "function"
    },
    {
      "constant": false,
      "inputs": [
        {
          "name": "_listingHash",
          "type": "bytes32"
        },
        {
          "name": "_data",
          "type": "string"
        }
      ],
      "name": "exit",
      "outputs": [],
      "payable": false,
      "stateMutability": "nonpayable",
      "type": "function"
    },
    {
      "constant": true,
      "inputs": [
        {
          "name": "_listingHash",
          "type": "bytes32"
        }
      ],
      "name": "isWhitelisted",
      "outputs": [
        {
          "name": "whitelisted",
          "type": "bool"
        }
      ],
      "payable": false,
      "stateMutability": "view",
      "type": "function"
    },
    {
      "constant": true,
      "inputs": [
        {
          "name": "_listingHash",
          "type": "bytes32"
        }
      ],
      "name": "challengeExists",
      "outputs": [
        {
          "name": "lastChallengeID",
          "type": "uint256"
        }
      ],
      "payable": false,
      "stateMutability": "view",
      "type": "function"
    },
    {
      "constant": true,
      "inputs": [
        {
          "name": "_challengeID",
          "type": "uint256"
        }
      ],
      "name": "challengeEnded",
      "outputs": [
        {
          "name": "ended",
          "type": "bool"
        }
      ],
      "payable": false,
      "stateMutability": "view",
      "type": "function"
    },
    {
      "constant": true,
      "inputs": [
        {
          "name": "_listingHash",
          "type": "bytes32"
        }
      ],
      "name": "challengeCanBeResolved",
      "outputs": [
        {
          "name": "",
          "type": "bool"
        }
      ],
      "payable": false,
      "stateMutability": "view",
      "type": "function"
    },
    {
      "constant": true,
      "inputs": [
        {
          "name": "_voter",
          "type": "address"
        },
        {
          "name": "_challengeID",
          "type": "uint256"
        }
      ],
      "name": "voterReward",
      "outputs": [
        {
          "name": "tokenAmount",
          "type": "uint256"
        }
      ],
      "payable": false,
      "stateMutability": "view",
      "type": "function"
    },
    {
      "constant": true,
      "inputs": [
        {
          "name": "_applierOrChallenger",
          "type": "address"
        },
        {
          "name": "_challengeID",
          "type": "uint256"
        }
      ],
      "name": "challengeReward",
      "outputs": [
        {
          "name": "tokenAmount",
          "type": "uint256"
        }
      ],
      "payable": false,
      "stateMutability": "view",
      "type": "function"
    },
    {
      "constant": true,
      "inputs": [
        {
          "name": "_listingHash",
          "type": "bytes32"
        }
      ],
      "name": "appWasMade",
      "outputs": [
        {
          "name": "exists",
          "type": "bool"
        }
      ],
      "payable": false,
      "stateMutability": "view",
      "type": "function"
    },
    {
      "constant": true,
      "inputs": [
        {
          "name": "name",
          "type": "string"
        }
      ],
      "name": "get",
      "outputs": [
        {
          "name": "value",
          "type": "uint256"
        }
      ],
      "payable": false,
      "stateMutability": "view",
      "type": "function"
    }
  ],
  "bytecode": "0x608060405234801561001057600080fd5b50613cf6806100206000396000f3006080604052600436106101c2576000357c0100000000000000000000000000000000000000000000000000000000900463ffffffff16806301a5e3fe146101c757806306fdde031461021057806307eb9c2a146102a057806313720578146103015780631b7bbecb146103915780633b930294146103d6578063401bf0841461042d5780634250d2f414610458578063691a38ab1461049d578063693ec85e146104e65780637284e41614610563578063762ddcf5146105f357806377609a411461069d57806389bb55c7146106e65780638a59eb56146107395780638cf8151f1461076a5780638f1d3776146107b35780639e647aac14610855578063a1bbfc05146108d2578063a210a8ce14610921578063a25236fe146109b1578063a4439dc5146109de578063a8931a8214610a23578063aad4cad014610a4e578063bd0ae40514610a7b578063c18b8db414610adc578063c512d8f714610b7b578063c893b82f14610c0b578063d9548e5314610c38578063dc6ab52714610c7d578063dd677cda14610cc2578063e94c41cc14610d52578063ebd969bb14610eaa578063f8d9c26714610ef3578063fc0c546a14610f83578063fd48cc4514610fda575b600080fd5b3480156101d357600080fd5b506101f66004803603810190808035600019169060200190929190505050611041565b604051808215151515815260200191505060405180910390f35b34801561021c57600080fd5b50610225611076565b6040518080602001828103825283818151815260200191508051906020019080838360005b8381101561026557808201518184015260208101905061024a565b50505050905090810190601f1680156102925780820380516001836020036101000a031916815260200191505b509250505060405180910390f35b3480156102ac57600080fd5b506102eb600480360381019080803573ffffffffffffffffffffffffffffffffffffffff16906020019092919080359060200190929190505050611118565b6040518082815260200191505060405180910390f35b34801561030d57600080fd5b50610316611125565b6040518080602001828103825283818151815260200191508051906020019080838360005b8381101561035657808201518184015260208101905061033b565b50505050905090810190601f1680156103835780820380516001836020036101000a031916815260200191505b509250505060405180910390f35b34801561039d57600080fd5b506103c060048036038101908080356000191690602001909291905050506111c7565b6040518082815260200191505060405180910390f35b3480156103e257600080fd5b50610417600480360381019080803573ffffffffffffffffffffffffffffffffffffffff169060200190929190505050611233565b6040518082815260200191505060405180910390f35b34801561043957600080fd5b5061044261124b565b6040518082815260200191505060405180910390f35b34801561046457600080fd5b5061048360048036038101908080359060200190929190505050611251565b604051808215151515815260200191505060405180910390f35b3480156104a957600080fd5b506104cc6004803603810190808035600019169060200190929190505050611279565b604051808215151515815260200191505060405180910390f35b3480156104f257600080fd5b5061054d600480360381019080803590602001908201803590602001908080601f0160208091040260200160405190810160405280939291908181526020018383808284378201915050505050509192919290505050611338565b6040518082815260200191505060405180910390f35b34801561056f57600080fd5b5061057861142b565b6040518080602001828103825283818151815260200191508051906020019080838360005b838110156105b857808201518184015260208101905061059d565b50505050905090810190601f1680156105e55780820380516001836020036101000a031916815260200191505b509250505060405180910390f35b3480156105ff57600080fd5b5061062260048036038101908080356000191690602001909291905050506114cd565b6040518080602001828103825283818151815260200191508051906020019080838360005b83811015610662578082015181840152602081019050610647565b50505050905090810190601f16801561068f5780820380516001836020036101000a031916815260200191505b509250505060405180910390f35b3480156106a957600080fd5b506106cc6004803603810190808035600019169060200190929190505050611511565b604051808215151515815260200191505060405180910390f35b3480156106f257600080fd5b5061073760048036038101908080356000191690602001909291908035906020019092919080359060200190820180359060200191909192939192939050505061155d565b005b34801561074557600080fd5b506107686004803603810190808035600019169060200190929190505050611881565b005b34801561077657600080fd5b5061079960048036038101908080356000191690602001909291905050506118c2565b604051808215151515815260200191505060405180910390f35b3480156107bf57600080fd5b506107de600480360381019080803590602001909291905050506118ec565b604051808973ffffffffffffffffffffffffffffffffffffffff1673ffffffffffffffffffffffffffffffffffffffff168152602001881515151581526020018781526020018681526020018581526020018481526020018381526020018281526020019850505050505050505060405180910390f35b34801561086157600080fd5b506108bc600480360381019080803590602001908201803590602001908080601f0160208091040260200160405190810160405280939291908181526020018383808284378201915050505050509192919290505050611961565b6040518082815260200191505060405180910390f35b3480156108de57600080fd5b5061091f6004803603810190808035906020019092919080359060200190929190803590602001908201803590602001919091929391929390505050611973565b005b34801561092d57600080fd5b50610936611ece565b6040518080602001828103825283818151815260200191508051906020019080838360005b8381101561097657808201518184015260208101905061095b565b50505050905090810190601f1680156109a35780820380516001836020036101000a031916815260200191505b509250505060405180910390f35b3480156109bd57600080fd5b506109dc60048036038101908080359060200190929190505050611f70565b005b3480156109ea57600080fd5b50610a096004803603810190808035906020019092919050505061229b565b604051808215151515815260200191505060405180910390f35b348015610a2f57600080fd5b50610a386122c9565b6040518082815260200191505060405180910390f35b348015610a5a57600080fd5b50610a79600480360381019080803590602001909291905050506122ce565b005b348015610a8757600080fd5b50610ac6600480360381019080803573ffffffffffffffffffffffffffffffffffffffff1690602001909291908035906020019092919050505061238a565b6040518082815260200191505060405180910390f35b348015610ae857600080fd5b50610b0b6004803603810190808035600019169060200190929190505050612616565b60405180888152602001871515151581526020018673ffffffffffffffffffffffffffffffffffffffff1673ffffffffffffffffffffffffffffffffffffffff16815260200185815260200184815260200183815260200182815260200197505050505050505060405180910390f35b348015610b8757600080fd5b50610b90612685565b6040518080602001828103825283818151815260200191508051906020019080838360005b83811015610bd0578082015181840152602081019050610bb5565b50505050905090810190601f168015610bfd5780820380516001836020036101000a031916815260200191505b509250505060405180910390f35b348015610c1757600080fd5b50610c3660048036038101908080359060200190929190505050612727565b005b348015610c4457600080fd5b50610c6360048036038101908080359060200190929190505050612c6b565b604051808215151515815260200191505060405180910390f35b348015610c8957600080fd5b50610cac6004803603810190808035600019169060200190929190505050612c77565b6040518082815260200191505060405180910390f35b348015610cce57600080fd5b50610cd7612c8f565b6040518080602001828103825283818151815260200191508051906020019080838360005b83811015610d17578082015181840152602081019050610cfc565b50505050905090810190601f168015610d445780820380516001836020036101000a031916815260200191505b509250505060405180910390f35b348015610d5e57600080fd5b50610ea8600480360381019080803590602001908201803590602001908080601f0160208091040260200160405190810160405280939291908181526020018383808284378201915050505050509192919290803590602001908201803590602001908080601f0160208091040260200160405190810160405280939291908181526020018383808284378201915050505050509192919290803590602001908201803590602001908080601f0160208091040260200160405190810160405280939291908181526020018383808284378201915050505050509192919290803573ffffffffffffffffffffffffffffffffffffffff16906020019092919080359060200190820180359060200190808060200260200160405190810160405280939291908181526020018383602002808284378201915050505050509192919290505050612d31565b005b348015610eb657600080fd5b50610ef160048036038101908080356000191690602001909291908035906020019082018035906020019190919293919293905050506130bc565b005b348015610eff57600080fd5b50610f086131cf565b6040518080602001828103825283818151815260200191508051906020019080838360005b83811015610f48578082015181840152602081019050610f2d565b50505050905090810190601f168015610f755780820380516001836020036101000a031916815260200191505b509250505060405180910390f35b348015610f8f57600080fd5b50610f98613271565b604051808273ffffffffffffffffffffffffffffffffffffffff1673ffffffffffffffffffffffffffffffffffffffff16815260200191505060405180910390f35b348015610fe657600080fd5b5061102b60048036038101908080356000191690602001909291908035906020019092919080359060200190820180359060200191909192939192939050505061329b565b6040518082815260200191505060405180910390f35b6000600a6000836000191660001916815260200190815260200160002060010160009054906101000a900460ff169050919050565b606060008054600181600116156101000203166002900480601f01602080910402602001604051908101604052809291908181526020018280546001816001161561010002031660029004801561110e5780601f106110e35761010080835404028352916020019161110e565b820191906000526020600020905b8154815290600101906020018083116110f157829003601f168201915b5050505050905090565b600061012c905092915050565b606060058054600181600116156101000203166002900480601f0160208091040260200160405190810160405280929190818152602001828054600181600116156101000203166002900480156111bd5780601f10611192576101008083540402835291602001916111bd565b820191906000526020600020905b8154815290600101906020018083116111a057829003601f168201915b5050505050905090565b600080600a60008460001916600019168152602001908152602001600020600301549050600081148061121b57506009600082815260200190815260200160002060000160149054906101000a900460ff16155b15611229576000915061122d565b8091505b50919050565b600c6020528060005260406000206000915090505481565b60085481565b60006112726009600084815260200190815260200160002060040154612c6b565b9050919050565b600080600a600084600019166000191681526020019081526020016000206003015490506112a6836118c2565b80156112cf575042600a6000856000191660001916815260200190815260200160002060000154105b80156112e157506112df83611041565b155b801561131f5750600081148061131e5750600115156009600083815260200190815260200160002060000160149054906101000a900460ff161515145b5b1561132d5760019150611332565b600091505b50919050565b6000600b6000836040516020018082805190602001908083835b6020831015156113775780518252602082019150602081019050602083039250611352565b6001836020036101000a0380198251168184511680821785525050505050509050019150506040516020818303038152906040526040518082805190602001908083835b6020831015156113e057805182526020820191506020810190506020830392506113bb565b6001836020036101000a038019825116818451168082178552505050505050905001915050604051809103902060001916600019168152602001908152602001600020549050919050565b606060028054600181600116156101000203166002900480601f0160208091040260200160405190810160405280929190818152602001828054600181600116156101000203166002900480156114c35780601f10611498576101008083540402835291602001916114c3565b820191906000526020600020905b8154815290600101906020018083116114a657829003601f168201915b5050505050905090565b6060806040805190810160405280600281526020017f7b7d000000000000000000000000000000000000000000000000000000000000815250905080915050919050565b600080600a600084600019166000191681526020019081526020016000206003015490506000611540846111c7565b11151561154c57600080fd5b61155581611251565b915050919050565b600061156885611041565b15151561157457600080fd5b61157d856118c2565b15151561158957600080fd5b6115c76040805190810160405280600f81526020017f72657175697265644465706f7369740000000000000000000000000000000000815250611338565b84101515156115d557600080fd5b600a600086600019166000191681526020019081526020016000209050338160010160016101000a81548173ffffffffffffffffffffffffffffffffffffffff021916908373ffffffffffffffffffffffffffffffffffffffff1602179055506116856116766040805190810160405280600d81526020017f6170706c7953746167654c656e00000000000000000000000000000000000000815250611338565b426137d890919063ffffffff16565b8160000181905550838160020181905550600160009054906101000a900473ffffffffffffffffffffffffffffffffffffffff1673ffffffffffffffffffffffffffffffffffffffff166323b872dd8260010160019054906101000a900473ffffffffffffffffffffffffffffffffffffffff1630876040518463ffffffff167c0100000000000000000000000000000000000000000000000000000000028152600401808473ffffffffffffffffffffffffffffffffffffffff1673ffffffffffffffffffffffffffffffffffffffff1681526020018373ffffffffffffffffffffffffffffffffffffffff1673ffffffffffffffffffffffffffffffffffffffff1681526020018281526020019350505050602060405180830381600087803b1580156117b357600080fd5b505af11580156117c7573d6000803e3d6000fd5b505050506040513d60208110156117dd57600080fd5b810190808051906020019092919050505015156117f957600080fd5b3373ffffffffffffffffffffffffffffffffffffffff1685600019167fa27f550c3c7a7c6d8369e5383fdc7a3b4850d8ce9e20066f9d496f6989f0086486846000015487876040518085815260200184815260200180602001828103825284848281815260200192508082843782019150509550505050505060405180910390a35050505050565b61188a81611279565b1561189d57611898816137f9565b6118bf565b6118a681611511565b156118b9576118b481613897565b6118be565b600080fd5b5b50565b600080600a6000846000191660001916815260200190815260200160002060000154119050919050565b60096020528060005260406000206000915090508060000160009054906101000a900473ffffffffffffffffffffffffffffffffffffffff16908060000160149054906101000a900460ff16908060010154908060020154908060030154908060040154908060050154908060060154905088565b600061196c82611338565b9050919050565b60008060006119818761229b565b151561198c57600080fd5b60405160200180807f310000000000000000000000000000000000000000000000000000000000000081525060010190506040516020818303038152906040526040518082805190602001908083835b602083101515611a0157805182526020820191506020810190506020830392506119dc565b6001836020036101000a0380198251168184511680821785525050505050509050019150506040518091039020600019168585604051602001808383808284378201915050925050506040516020818303038152906040526040518082805190602001908083835b602083101515611a8e5780518252602082019150602081019050602083039250611a69565b6001836020036101000a0380198251168184511680821785525050505050509050019150506040518091039020600019161415611ace5760019250611c16565b60405160200180807f300000000000000000000000000000000000000000000000000000000000000081525060010190506040516020818303038152906040526040518082805190602001908083835b602083101515611b435780518252602082019150602081019050602083039250611b1e565b6001836020036101000a0380198251168184511680821785525050505050509050019150506040518091039020600019168585604051602001808383808284378201915050925050506040516020818303038152906040526040518082805190602001908083835b602083101515611bd05780518252602082019150602081019050602083039250611bab565b6001836020036101000a0380198251168184511680821785525050505050509050019150506040518091039020600019161415611c105760009250611c15565b600080fd5b5b60096000888152602001908152602001600020915060008260080160003373ffffffffffffffffffffffffffffffffffffffff1673ffffffffffffffffffffffffffffffffffffffff16815260200190815260200160002054141515611c7b57600080fd5b60008714151515611c8b57600080fd5b85600c60003373ffffffffffffffffffffffffffffffffffffffff1673ffffffffffffffffffffffffffffffffffffffff168152602001908152602001600020541015611d3057611d24600c60003373ffffffffffffffffffffffffffffffffffffffff1673ffffffffffffffffffffffffffffffffffffffff16815260200190815260200160002054876138be90919063ffffffff16565b9050611d2f81611f70565b5b85600c60003373ffffffffffffffffffffffffffffffffffffffff1673ffffffffffffffffffffffffffffffffffffffff1681526020019081526020016000205410151515611d7e57600080fd5b858260080160003373ffffffffffffffffffffffffffffffffffffffff1673ffffffffffffffffffffffffffffffffffffffff16815260200190815260200160002081905550611ddb8260010154876137d890919063ffffffff16565b82600101819055506001831415611e1057611e038683600501546137d890919063ffffffff16565b8260050181905550611e30565b611e278683600601546137d890919063ffffffff16565b82600601819055505b828260090160003373ffffffffffffffffffffffffffffffffffffffff1673ffffffffffffffffffffffffffffffffffffffff168152602001908152602001600020819055503373ffffffffffffffffffffffffffffffffffffffff16877f119a05767ca36da71a12356456d863199cf4e96d6850f10338fa158a0011de1d886040518082815260200191505060405180910390a350505050505050565b606060038054600181600116156101000203166002900480601f016020809104026020016040519081016040528092919081815260200182805460018160011615610100020316600290048015611f665780601f10611f3b57610100808354040283529160200191611f66565b820191906000526020600020905b815481529060010190602001808311611f4957829003601f168201915b5050505050905090565b80600160009054906101000a900473ffffffffffffffffffffffffffffffffffffffff1673ffffffffffffffffffffffffffffffffffffffff166370a08231336040518263ffffffff167c0100000000000000000000000000000000000000000000000000000000028152600401808273ffffffffffffffffffffffffffffffffffffffff1673ffffffffffffffffffffffffffffffffffffffff168152602001915050602060405180830381600087803b15801561202e57600080fd5b505af1158015612042573d6000803e3d6000fd5b505050506040513d602081101561205857600080fd5b81019080805190602001909291905050501015151561207657600080fd5b6120c881600c60003373ffffffffffffffffffffffffffffffffffffffff1673ffffffffffffffffffffffffffffffffffffffff168152602001908152602001600020546137d890919063ffffffff16565b600c60003373ffffffffffffffffffffffffffffffffffffffff1673ffffffffffffffffffffffffffffffffffffffff16815260200190815260200160002081905550600160009054906101000a900473ffffffffffffffffffffffffffffffffffffffff1673ffffffffffffffffffffffffffffffffffffffff166323b872dd3330846040518463ffffffff167c0100000000000000000000000000000000000000000000000000000000028152600401808473ffffffffffffffffffffffffffffffffffffffff1673ffffffffffffffffffffffffffffffffffffffff1681526020018373ffffffffffffffffffffffffffffffffffffffff1673ffffffffffffffffffffffffffffffffffffffff1681526020018281526020019350505050602060405180830381600087803b15801561220457600080fd5b505af1158015612218573d6000803e3d6000fd5b505050506040513d602081101561222e57600080fd5b8101908080519060200190929190505050151561224a57600080fd5b3373ffffffffffffffffffffffffffffffffffffffff167ff7aaf024511d9982df8cd0d437c71c30106e6848cd1ba3d288d7a9c0e276aeda826040518082815260200191505060405180910390a250565b6000806009600084815260200190815260200160002090506122c08160040154612c6b565b15915050919050565b600081565b60008060006009600085815260200190815260200160002092506009600085815260200190815260200160002060000160149054906101000a900460ff1615151561231857600080fd5b826006015483600501541015156123325760009150612337565b600191505b6000836005015414801561234f575060008360060154145b156123635782600101546002029050612384565b612381836003015484600101546002026138be90919063ffffffff16565b90505b50505050565b6000806000806000600960008781526020019081526020016000209350600015158460070160008973ffffffffffffffffffffffffffffffffffffffff1673ffffffffffffffffffffffffffffffffffffffff16815260200190815260200160002060009054906101000a900460ff161515141515612471576040517f08c379a00000000000000000000000000000000000000000000000000000000081526004018080602001828103825260178152602001807f52657761726420616c72656164792072656465656d656400000000000000000081525060200191505060405180910390fd5b600115158460000160149054906101000a900460ff161515141515612524576040517f08c379a000000000000000000000000000000000000000000000000000000000815260040180806020018281038252603c8152602001807f4368616c6c656e6765206d757374206265207265736f6c766564206265666f7281526020017f6520747279696e6720746f20636c61696d20746865207265776172640000000081525060400191505060405180910390fd5b8360090160008873ffffffffffffffffffffffffffffffffffffffff1673ffffffffffffffffffffffffffffffffffffffff168152602001908152602001600020549250836006015484600501541015156125825760009150612587565b600191505b8360080160008873ffffffffffffffffffffffffffffffffffffffff1673ffffffffffffffffffffffffffffffffffffffff168152602001908152602001600020549050818314156126075761260084600201546125f28660030154846138df90919063ffffffff16565b61391d90919063ffffffff16565b945061260c565b600094505b5050505092915050565b600a6020528060005260406000206000915090508060000154908060010160009054906101000a900460ff16908060010160019054906101000a900473ffffffffffffffffffffffffffffffffffffffff16908060020154908060030154908060040154908060050154905087565b606060078054600181600116156101000203166002900480601f01602080910402602001604051908101604052809291908181526020018280546001816001161561010002031660029004801561271d5780601f106126f25761010080835404028352916020019161271d565b820191906000526020600020905b81548152906001019060200180831161270057829003601f168201915b5050505050905090565b6000806000600960008581526020019081526020016000209250600015158360070160003373ffffffffffffffffffffffffffffffffffffffff1673ffffffffffffffffffffffffffffffffffffffff16815260200190815260200160002060009054906101000a900460ff16151514151561280b576040517f08c379a00000000000000000000000000000000000000000000000000000000081526004018080602001828103825260178152602001807f52657761726420616c72656164792072656465656d656400000000000000000081525060200191505060405180910390fd5b600115158360000160149054906101000a900460ff1615151415156128be576040517f08c379a000000000000000000000000000000000000000000000000000000000815260040180806020018281038252603c8152602001807f4368616c6c656e6765206d757374206265207265736f6c766564206265666f7281526020017f6520747279696e6720746f20636c61696d20746865207265776172640000000081525060400191505060405180910390fd5b6128c8338561238a565b91508260080160003373ffffffffffffffffffffffffffffffffffffffff1673ffffffffffffffffffffffffffffffffffffffff1681526020019081526020016000205490506000821115612abb5761292e8184600201546138be90919063ffffffff16565b836002018190555061294d8284600201546138be90919063ffffffff16565b836003018190555060018360070160003373ffffffffffffffffffffffffffffffffffffffff1673ffffffffffffffffffffffffffffffffffffffff16815260200190815260200160002060006101000a81548160ff021916908315150217905550600160009054906101000a900473ffffffffffffffffffffffffffffffffffffffff1673ffffffffffffffffffffffffffffffffffffffff1663a9059cbb33846040518363ffffffff167c0100000000000000000000000000000000000000000000000000000000028152600401808373ffffffffffffffffffffffffffffffffffffffff1673ffffffffffffffffffffffffffffffffffffffff16815260200182815260200192505050602060405180830381600087803b158015612a7457600080fd5b505af1158015612a88573d6000803e3d6000fd5b505050506040513d6020811015612a9e57600080fd5b81019080805190602001909291905050501515612aba57600080fd5b5b6000811115612c6557612b1681600c60003373ffffffffffffffffffffffffffffffffffffffff1673ffffffffffffffffffffffffffffffffffffffff168152602001908152602001600020546138be90919063ffffffff16565b600c60003373ffffffffffffffffffffffffffffffffffffffff1673ffffffffffffffffffffffffffffffffffffffff16815260200190815260200160002081905550600160009054906101000a900473ffffffffffffffffffffffffffffffffffffffff1673ffffffffffffffffffffffffffffffffffffffff1663a9059cbb33836040518363ffffffff167c0100000000000000000000000000000000000000000000000000000000028152600401808373ffffffffffffffffffffffffffffffffffffffff1673ffffffffffffffffffffffffffffffffffffffff16815260200182815260200192505050602060405180830381600087803b158015612c1e57600080fd5b505af1158015612c32573d6000803e3d6000fd5b505050506040513d6020811015612c4857600080fd5b81019080805190602001909291905050501515612c6457600080fd5b5b50505050565b60008142119050919050565b600b6020528060005260406000206000915090505481565b606060048054600181600116156101000203166002900480601f016020809104026020016040519081016040528092919081815260200182805460018160011615610100020316600290048015612d275780601f10612cfc57610100808354040283529160200191612d27565b820191906000526020600020905b815481529060010190602001808311612d0a57829003601f168201915b5050505050905090565b60008273ffffffffffffffffffffffffffffffffffffffff1614158015612d9057506000600160009054906101000a900473ffffffffffffffffffffffffffffffffffffffff1673ffffffffffffffffffffffffffffffffffffffff16145b1515612d9b57600080fd5b8460009080519060200190612db1929190613c25565b508360029080519060200190612dc8929190613c25565b508260039080519060200190612ddf929190613c25565b506040805190810160405280600681526020017f53494d504c45000000000000000000000000000000000000000000000000000081525060049080519060200190612e2b929190613c25565b506040805190810160405280600681526020017f53494d504c45000000000000000000000000000000000000000000000000000081525060059080519060200190612e77929190613c25565b506040805190810160405280600681526020017f53494d504c45000000000000000000000000000000000000000000000000000081525060079080519060200190612ec3929190613c25565b506040805190810160405280600581526020017f455243323000000000000000000000000000000000000000000000000000000081525060069080519060200190612f0f929190613c25565b5081600160006101000a81548173ffffffffffffffffffffffffffffffffffffffff021916908373ffffffffffffffffffffffffffffffffffffffff160217905550612fa86040805190810160405280600f81526020017f72657175697265644465706f7369740000000000000000000000000000000000815250826000815181101515612f9957fe5b90602001906020020151613947565b612fff6040805190810160405280600d81526020017f6170706c7953746167654c656e00000000000000000000000000000000000000815250826001815181101515612ff057fe5b90602001906020020151613947565b6130566040805190810160405280600c81526020017f766f746553746167654c656e000000000000000000000000000000000000000081525082600281518110151561304757fe5b90602001906020020151613947565b6130ad6040805190810160405280600f81526020017f64697370656e736174696f6e506374000000000000000000000000000000000081525082600381518110151561309e57fe5b90602001906020020151613947565b60006008819055505050505050565b6000600a6000856000191660001916815260200190815260200160002090508060010160019054906101000a900473ffffffffffffffffffffffffffffffffffffffff1673ffffffffffffffffffffffffffffffffffffffff163373ffffffffffffffffffffffffffffffffffffffff1614151561313957600080fd5b61314284611041565b151561314d57600080fd5b6000816003015414806131845750600960008260030154815260200190815260200160002060000160149054906101000a900460ff165b151561318f57600080fd5b61319884613a39565b83600019167f811c926c259739c92d16507624c3d249021bfa661c5a64f2187dc46e8e93c63b60405160405180910390a250505050565b606060068054600181600116156101000203166002900480601f0160208091040260200160405190810160405280929190818152602001828054600181600116156101000203166002900480156132675780601f1061323c57610100808354040283529160200191613267565b820191906000526020600020905b81548152906001019060200180831161324a57829003601f168201915b5050505050905090565b6000600160009054906101000a900473ffffffffffffffffffffffffffffffffffffffff16905090565b6000806000806000600a60008a6000191660001916815260200190815260200160002093506132fe6040805190810160405280600f81526020017f72657175697265644465706f7369740000000000000000000000000000000000815250611338565b9250878314151561330e57600080fd5b613317896118c2565b8061333057508360010160009054906101000a900460ff165b151561333b57600080fd5b6000846003015414806133725750600960008560030154815260200190815260200160002060000160149054906101000a900460ff165b151561337d57600080fd5b6001600854016008819055506133d96133ca6040805190810160405280600c81526020017f766f746553746167654c656e0000000000000000000000000000000000000000815250611338565b426137d890919063ffffffff16565b915060649050610100604051908101604052803373ffffffffffffffffffffffffffffffffffffffff16815260200160001515815260200161344f6040805190810160405280600f81526020017f72657175697265644465706f7369740000000000000000000000000000000000815250611338565b8152602001600081526020016134d060646134c2876134b46134a56040805190810160405280600f81526020017f64697370656e736174696f6e5063740000000000000000000000000000000000815250611338565b886138be90919063ffffffff16565b6138df90919063ffffffff16565b61391d90919063ffffffff16565b81526020016135136040805190810160405280600d81526020017f636f6d6d6974456e644461746500000000000000000000000000000000000000815250611338565b815260200160008152602001600081525060096000600854815260200190815260200160002060008201518160000160006101000a81548173ffffffffffffffffffffffffffffffffffffffff021916908373ffffffffffffffffffffffffffffffffffffffff16021790555060208201518160000160146101000a81548160ff02191690831515021790555060408201518160010155606082015181600201556080820151816003015560a0820151816004015560c0820151816005015560e0820151816006015590505060085484600301819055506136018385600201546138be90919063ffffffff16565b8460020181905550600160009054906101000a900473ffffffffffffffffffffffffffffffffffffffff1673ffffffffffffffffffffffffffffffffffffffff166323b872dd3330866040518463ffffffff167c0100000000000000000000000000000000000000000000000000000000028152600401808473ffffffffffffffffffffffffffffffffffffffff1673ffffffffffffffffffffffffffffffffffffffff1681526020018373ffffffffffffffffffffffffffffffffffffffff1673ffffffffffffffffffffffffffffffffffffffff1681526020018281526020019350505050602060405180830381600087803b15801561370257600080fd5b505af1158015613716573d6000803e3d6000fd5b505050506040513d602081101561372c57600080fd5b8101908080519060200190929190505050151561374857600080fd5b3373ffffffffffffffffffffffffffffffffffffffff1689600019167f49b14c82c36e78a2c0af88ec58604d127b5a0513b00e6a946376374c4c1c1b256008548a8a876040518085815260200180602001838152602001828103825285858281815260200192508082843782019150509550505050505060405180910390a3600854945050505050949350505050565b60008082840190508381101515156137ef57600080fd5b8091505092915050565b600a6000826000191660001916815260200190815260200160002060010160009054906101000a900460ff16151561385d5780600019167fa7bc1d57d9006d9d248707c7b6828c1bab8c51719cc06d78c82a3ee891ef967c60405160405180910390a25b6001600a6000836000191660001916815260200190815260200160002060010160006101000a81548160ff02191690831515021790555050565b6000600a600083600019166000191681526020019081526020016000206003015490505050565b6000808383111515156138d057600080fd5b82840390508091505092915050565b60008060008414156138f45760009150613916565b828402905082848281151561390557fe5b0414151561391257600080fd5b8091505b5092915050565b60008060008311151561392f57600080fd5b828481151561393a57fe5b0490508091505092915050565b80600b6000846040516020018082805190602001908083835b6020831015156139855780518252602082019150602081019050602083039250613960565b6001836020036101000a0380198251168184511680821785525050505050509050019150506040516020818303038152906040526040518082805190602001908083835b6020831015156139ee57805182526020820191506020810190506020830392506139c9565b6001836020036101000a038019825116818451168082178552505050505050905001915050604051809103902060001916600019168152602001908152602001600020819055505050565b6000806000600a6000856000191660001916815260200190815260200160002092508260010160019054906101000a900473ffffffffffffffffffffffffffffffffffffffff16915082600201549050600a600085600019166000191681526020019081526020016000206000808201600090556001820160006101000a81549060ff02191690556001820160016101000a81549073ffffffffffffffffffffffffffffffffffffffff0219169055600282016000905560038201600090556004820160009055600582016000905550506000811115613c1f57600160009054906101000a900473ffffffffffffffffffffffffffffffffffffffff1673ffffffffffffffffffffffffffffffffffffffff1663a9059cbb83836040518363ffffffff167c0100000000000000000000000000000000000000000000000000000000028152600401808373ffffffffffffffffffffffffffffffffffffffff1673ffffffffffffffffffffffffffffffffffffffff16815260200182815260200192505050602060405180830381600087803b158015613bd857600080fd5b505af1158015613bec573d6000803e3d6000fd5b505050506040513d6020811015613c0257600080fd5b81019080805190602001909291905050501515613c1e57600080fd5b5b50505050565b828054600181600116156101000203166002900490600052602060002090601f016020900481019282601f10613c6657805160ff1916838001178555613c94565b82800160010185558215613c94579182015b82811115613c93578251825591602001919060010190613c78565b5b509050613ca19190613ca5565b5090565b613cc791905b80821115613cc3576000816000905550600101613cab565b5090565b905600a165627a7a72305820a2f841945a3d970b1ddea7fb7c728c7eaff623d75d8ba600b430f80b5b068efd0029",
  "source": "pragma solidity ^0.4.24;\n\nimport \"./zeppelin/ERC20Tradable.sol\";\nimport \"./ITCR20.sol\";\n\n/**\n* @title Simple implementation of TCRs\n* @author Team: Xivis <xivis.com>\n*/\ncontract SimpleTCR is ITCR20 {\n    // -------\n    // EVENTS:\n    // -------\n\n    event _Application(bytes32 indexed listingHash, uint deposit, uint appEndDate, string data, address indexed applicant);\n    event _Challenge(bytes32 indexed listingHash, uint challengeID, string data, uint commitEndDate, address indexed challenger);\n    event _PollCreated(uint voteQuorum, uint commitEndDate, uint indexed pollID, address indexed creator);\n    event _Vote(uint indexed challengeID, uint numTokens, address indexed voter);\n    event _VotingRightsGranted(uint numTokens, address indexed voter);\n    event _VotingRightsWithdrawn(uint numTokens, address indexed voter);\n    event _ChallengeResolved(bytes32 indexed listingHash, uint indexed challengeID, uint rewardPool, uint totalTokens, bool success);\n    event _ApplicationWhitelisted(bytes32 indexed listingHash);\n    event _ListingExited(bytes32 indexed listingHash);\n\n    using SafeMath for uint;\n\n    // Base registry variables\n    string private _name;\n    IERC20 private _token;\n    string private _description;\n    string private _acceptedDataType;\n    string private _applyScheme;\n    string private _voteScheme;\n    string private _tokenScheme;\n    string private _exitScheme;\n\n    // Challenge basic variables\n    uint constant public INITIAL_POLL_ID = 0;\n    uint public pollID;\n\n    struct Listing {\n        uint applicationExpiry; // Expiration date of apply stage\n        bool whitelisted;       // Indicates registry status\n        address owner;          // Owner of Listing\n        uint unstakedDeposit;   // Number of tokens in the listing not locked in a challenge\n        uint challengeID;       // Corresponds to a PollID in PLCRVoting\n        uint exitTime;          // Time the listing may leave the registry\n        uint exitTimeExpiry;    // Expiration date of exit period\n    }\n\n    struct Challenge {\n        address challenger;     // Owner of Challenge\n        bool resolved;          // Indication of if challenge is resolved\n        uint stake;             // Number of tokens at stake for either party during challenge\n        uint totalTokens;       // (remaining) Number of tokens used in voting by the winning side\n        uint rewardPool;        // (remaining) Pool of tokens to be distributed to winning voters\n        uint commitEndDate;     /// expiration date of commit period for poll\n        uint votesFor;          /// tally of votes supporting proposal\n        uint votesAgainst;      /// tally of votes countering proposal\n        mapping(address => bool) tokenClaims; // Indicates whether a voter has claimed a reward yet\n        mapping(address => uint) tokenStakes; // Indicates the amount of tokens locked by a voter\n        mapping(address => uint) votingOptions; // Indicates the amount of tokens locked by a voter\n    }\n\n    // Maps challengeIDs to associated challenge data\n    mapping(uint => Challenge) public challenges;\n\n    // Maps listingHashes to associated listingHash data\n    mapping(bytes32 => Listing) public listings;\n\n    // Maps parameters string hashes to values\n    mapping(bytes32 => uint) public params;\n\n    // Maps user's address to voteToken balance\n    mapping(address => uint) public voteTokenBalance; \n\n    /**\n    * @dev Initializer. Can only be called once.\n    * @param token The address where the ERC20 token contract is deployed\n    */\n    function init(string name, string description, string acceptedDataType, address token, uint[] parameters) public {\n        require(token != 0 && address(_token) == 0);\n\n        // Base registry parameters\n        _name = name;\n        _description = description;\n        _acceptedDataType = acceptedDataType;\n        _applyScheme = \"SIMPLE\";\n        _voteScheme = \"SIMPLE\";\n        _exitScheme = \"SIMPLE\";\n\n        _tokenScheme = \"ERC20\";\n        _token = ERC20Tradable(token);\n\n        // required deposit for listing to be whitelisted. No more, no less.\n        set(\"requiredDeposit\", parameters[0]);\n\n        // period over which applicants wait to be whitelisted\n        set(\"applyStageLen\", parameters[1]);\n\n        // length of commit period for voting\n        set(\"voteStageLen\", parameters[2]);\n\n        // percentage of losing party's deposit distributed to winning party\n        set(\"dispensationPct\", parameters[3]);\n\n        // sets the initial pollID\n        pollID = INITIAL_POLL_ID;\n    }\n\n\n    function name() public view returns(string){\n        return _name;\n    }\n\n    function description() public view returns(string){\n        return _description;\n    }\n\n    function acceptedDataType() public view returns(string){\n        return _acceptedDataType;\n    }\n\n    function getParameter(string pName) public view returns (uint pValue) {\n        return get(pName);\n    }\n\n    function applyScheme() public view returns(string){\n        return _applyScheme;\n    }\n    \n    function voteScheme() public view returns(string){\n        return _voteScheme;\n    }\n\n    function tokenScheme() public view returns(string){\n        return _tokenScheme;\n    }\n\n    function exitScheme() public view returns(string){\n        return _exitScheme;\n    }\n\n    function token() public view returns(IERC20) {\n        return _token;\n    }\n\n    // Main functions\n    function apply(bytes32 _listingHash, uint _tokenAmount, string _data) external {\n        require(!isWhitelisted(_listingHash));\n        require(!appWasMade(_listingHash));\n        require(_tokenAmount >= get(\"requiredDeposit\"));\n\n        // Sets owner\n        Listing storage listing = listings[_listingHash];\n        listing.owner = msg.sender;\n\n        // Sets apply stage end time\n        listing.applicationExpiry = block.timestamp.add(get(\"applyStageLen\"));\n        listing.unstakedDeposit = _tokenAmount;\n\n        // Transfers tokens from user to Registry contract\n        require(_token.transferFrom(listing.owner, this, _tokenAmount));\n\n        emit _Application(_listingHash, _tokenAmount, listing.applicationExpiry, _data, msg.sender);\n    }\n\n    function getListingData(bytes32 _listingHash) external view returns (string memory jsonData) {\n        // copy the data into memory\n        // Listing memory l = listings[_listingHash];\n        \n        // break the struct's members out into a tuple\n        // in the same order that they appear in the struct\n        string memory result = \"{}\"; // TODO look how to concat this as a JSON File\n        // return (l.applicationExpiry, l.whitelisted, l.owner, l.unstakedDeposit, l.challengeID, l.exitTime, l.exitTimeExpiry);\n        return result;\n    }\n\n    /**\n    * Determines whether the given listingHash be whitelisted.\n    * @param _listingHash The listingHash whose status is to be examined\n    */\n    function canBeWhitelisted(bytes32 _listingHash) view public returns (bool) {\n        uint challengeID = listings[_listingHash].challengeID;\n        // Ensures that the application was made,\n        // the application period has ended,\n        // the listingHash can be whitelisted,\n        // and either: the challengeID == 0, or the challenge has been resolved.\n        if (\n            appWasMade(_listingHash) &&\n            listings[_listingHash].applicationExpiry < now &&\n            !isWhitelisted(_listingHash) &&\n            (challengeID == 0 || challenges[challengeID].resolved == true)\n        ) { return true; }\n\n        return false;\n    }\n\n    /**\n    * Add an already Applied listingHash to the whitelist\n    * @dev Called by updateStatus() if the applicationExpiry date passed without a challenge being made.\n    * @dev Called by resolveChallenge() if an application/listing beat a challenge.\n    * @param _listingHash The listingHash of an application/listingHash to be whitelisted\n    */\n    function whitelistApplication(bytes32 _listingHash) private {\n        if (!listings[_listingHash].whitelisted) {emit _ApplicationWhitelisted(_listingHash);}\n        listings[_listingHash].whitelisted = true;\n    }\n\n    /**\n    * Determines the winner in a challenge. Rewards the winner tokens and either whitelists\n    * or de-whitelists (reset) the listingHash.\n    * @param _listingHash A listingHash with a challenge that is to be resolved\n    */\n    function resolveChallenge(bytes32 _listingHash) private {\n        uint challengeID = listings[_listingHash].challengeID;\n\n    }\n\n    /**\n    * Updates a listingHash status from 'application' to 'listing' or resolves a challenge if one exists.\n    * @param _listingHash The listingHash whose status is being updated\n    */\n    function updateStatus(bytes32 _listingHash) public {\n        if (canBeWhitelisted(_listingHash)) {\n            whitelistApplication(_listingHash);\n        } else if (challengeCanBeResolved(_listingHash)) {\n            resolveChallenge(_listingHash);\n        } else {\n            revert();\n        }\n    }\n\n    /**\n    * Starts a poll for a listingHash which is either in the apply stage or already in the whitelist.\n    * @dev Tokens are taken from the challenger and the applicant's deposits are locked.\n    * @param _listingHash The listingHash being challenged, whether listed or in application\n    * @param _data Extra data relevant to the challenge. Think IPFS hashes.\n    */\n    function challenge(bytes32 _listingHash, uint _tokenAmount, string _data) external returns (uint challengeID) {\n        Listing storage listing = listings[_listingHash];\n        uint requiredDeposit = get(\"requiredDeposit\");\n\n        // _tokenAmount must match the requiredDeposit\n        require(requiredDeposit == _tokenAmount);\n\n        // Listing must be in apply stage or already on the whitelist\n        require(appWasMade(_listingHash) || listing.whitelisted);\n        // Prevent multiple challenges\n        require(listing.challengeID == 0 || challenges[listing.challengeID].resolved);\n\n        // Sets pollID\n        pollID = pollID + 1;\n\n        // Defines voting commit duration\n        uint commitEndDate = block.timestamp.add(get(\"voteStageLen\"));\n\n        uint oneHundred = 100;\n        // Kludge that we need to use SafeMath\n        challenges[pollID] = Challenge({\n            challenger : msg.sender,\n            rewardPool : ((oneHundred.sub(get(\"dispensationPct\"))).mul(requiredDeposit)).div(100),\n            stake : get(\"requiredDeposit\"),\n            resolved : false,\n            totalTokens : 0,\n            commitEndDate : get(\"commitEndDate\"),\n            votesFor: 0,\n            votesAgainst : 0\n            });\n\n        // Updates listingHash to store most recent challenge\n        listing.challengeID = pollID;\n\n        // Locks tokens for listingHash during challenge\n        listing.unstakedDeposit = listing.unstakedDeposit.sub(requiredDeposit);\n\n        // Takes tokens from challenger\n        require(_token.transferFrom(msg.sender, this, requiredDeposit));\n\n        emit _Challenge(_listingHash, pollID, _data, commitEndDate, msg.sender);\n        return pollID;\n    }\n\n    /**\n    * Loads _tokenAmount ERC20 tokens into the voting contract for one-to-one voting rights\n    * @dev Assumes that msg.sender has approved voting contract to spend on their behalf\n    * @param _tokenAmount The number of votingTokens desired in exchange for ERC20 tokens\n    */\n    function requestVotingRights(uint _tokenAmount) public {\n        require(_token.balanceOf(msg.sender) >= _tokenAmount);\n        voteTokenBalance[msg.sender] = voteTokenBalance[msg.sender].add(_tokenAmount);\n        require(_token.transferFrom(msg.sender, this, _tokenAmount));\n        emit _VotingRightsGranted(_tokenAmount, msg.sender);\n    }\n\n    /**\n    * Checks if an expiration date has been reached\n    * @param _terminationDate Integer timestamp of date to compare current timestamp with\n    * @return expired Boolean indication of whether the terminationDate has passed\n    */\n    function isExpired(uint _terminationDate) constant public returns (bool expired) {\n        return (block.timestamp > _terminationDate);\n    }\n\n    /**\n    * Checks if the commit period is still active for the specified poll\n    * @dev Checks isExpired for the specified poll's commitEndDate\n    * @param _challengeID Integer identifier associated with target poll\n    * @return Boolean indication of isCommitPeriodActive for target poll\n    */\n    function commitPeriodActive(uint _challengeID) constant public returns (bool active) {\n        // require(challengeExists(_challengeID) > 0);\n\n        Challenge storage _challenge = challenges[_challengeID];\n        return !isExpired(_challenge.commitEndDate);\n    }\n\n    /**\n    * Commits vote using hash of choice and secret salt to conceal vote until reveal\n    * @param _challengeID Integer identifier associated with target poll\n    * @param _tokenAmount The number of tokens to be committed towards the target poll\n    * @param _data Extra data relevant to the vote.\n    */\n    function vote(uint _challengeID, uint _tokenAmount, string _data) external {\n        require(commitPeriodActive(_challengeID));\n\n        // try to convert _data string to a valid _voteOption\n        uint _voteOption;\n        if (keccak256(abi.encodePacked(_data)) == keccak256(abi.encodePacked(\"1\"))) {\n            _voteOption = 1;\n        } else if (keccak256(abi.encodePacked(_data)) == keccak256(abi.encodePacked(\"0\"))) {\n            _voteOption = 0;\n        } else {\n            revert();\n        }\n\n        // get challenge \n        Challenge storage _challenge = challenges[_challengeID];\n\n        // voter can't change his previous vote\n        require(_challenge.tokenStakes[msg.sender] == 0);\n\n        // prevent user from committing to zero node placeholder\n        require(_challengeID != 0);\n\n        // if msg.sender doesn't have enough voting rights,\n        // request for enough voting rights\n        if (voteTokenBalance[msg.sender] < _tokenAmount) {\n            uint remainder = _tokenAmount.sub(voteTokenBalance[msg.sender]);\n            requestVotingRights(remainder);\n        }\n\n        // make sure msg.sender has enough voting rights\n        require(voteTokenBalance[msg.sender] >= _tokenAmount);\n\n        // set voter's tokenStakes\n        _challenge.tokenStakes[msg.sender] = _tokenAmount;\n\n        // adds voter's stake to total amount of tokens staked in this challenge\n        _challenge.stake = _tokenAmount.add(_challenge.stake);\n\n        // apply numTokens to appropriate poll choice\n        if (_voteOption == 1) {\n            _challenge.votesFor = _challenge.votesFor.add(_tokenAmount);\n        } else {\n            _challenge.votesAgainst = _challenge.votesAgainst.add(_tokenAmount);\n        }\n\n        // store voter's selected option\n        _challenge.votingOptions[msg.sender] = _voteOption;\n\n        emit _Vote(_challengeID, _tokenAmount, msg.sender);\n    }\n\n    function claimChallengeReward(uint _challengeID) public {\n        Challenge storage _challenge = challenges[_challengeID];\n        require(!challenges[_challengeID].resolved);\n        \n        // calculates the winning choice\n        uint winningChoice;\n        if (_challenge.votesFor >= _challenge.votesAgainst) {\n            winningChoice = 0;\n        } else {\n            winningChoice = 1;\n        }\n        uint reward;\n\n        // Edge case, nobody voted, give all tokens to the challenger.\n        if ((_challenge.votesFor == 0) && (_challenge.votesAgainst == 0)) {\n            reward = 2 * _challenge.stake;\n        } else {\n            reward = (2 * _challenge.stake).sub(_challenge.rewardPool);\n        }\n\n        // if (winningChoice == 0) {\n        //     whitelistApplication(_listingHash);\n\n        //     uint stake = _challenge[_challengeID].stake;\n\n        //     // Unlock stake and return it to the applier\n        //     listings[_listingHash].unstakedDeposit = listings[_listingHash].unstakedDeposit.add(stake);\n\n        //     // Transfer the remaining reward to the challenger\n        //     require(token.transfer(listings[_listingHash].owner, reward.sub(stake)));\n\n        //     emit _ChallengeFailed(_listingHash, _challengeID, challenges[_challengeID].rewardPool, challenges[_challengeID].totalTokens);\n        // }\n        // // Case: challenge succeeded or nobody voted\n        // else {\n        //     resetListing(_listingHash);\n\n        //     // Transfer the reward to the challenger\n        //     require(token.transfer(challenges[_challengeID].challenger, reward));\n\n        //     emit _ChallengeSucceeded(_listingHash, _challengeID, challenges[_challengeID].rewardPool, challenges[_challengeID].totalTokens);\n        // }\n    }\n\n    /**\n    * Called by a voter to their reward for each completed vote.\n    * @dev Someone must call updateStatus() before this can be called.\n    * @param _challengeID The voting pollID of the challenge a reward is being claimed for\n    */\n    function claimVoterReward(uint _challengeID) public {\n        Challenge storage _challenge = challenges[_challengeID];\n        // Ensures the voter has not already claimed tokens and _challenge results have\n        // been processed\n        require(_challenge.tokenClaims[msg.sender] == false, \"Reward already redeemed\");\n        require(_challenge.resolved == true, \"Challenge must be resolved before trying to claim the reward\");\n\n        uint reward = voterReward(msg.sender, _challengeID);\n        uint voterTokens = _challenge.tokenStakes[msg.sender];\n\n        if (reward > 0) {\n            // Subtracts the voter's information to preserve the participation ratios\n            // of other voters compared to the remaining pool of rewards\n            _challenge.totalTokens = _challenge.totalTokens.sub(voterTokens);\n            _challenge.rewardPool = _challenge.totalTokens.sub(reward);\n\n            // Ensures a voter cannot claim tokens again\n            _challenge.tokenClaims[msg.sender] = true;\n\n            require(_token.transfer(msg.sender, reward)); // Reward + Unlock could be implemented in one single transfer\n        }\n\n        // Unlock staked tokens in the challenge\n        if (voterTokens > 0) {\n            voteTokenBalance[msg.sender] = voteTokenBalance[msg.sender].sub(voterTokens);\n            require(_token.transfer(msg.sender, voterTokens));\n        }\n    }\n\n    /**\n    * Deletes a listingHash from the whitelist and transfers remaining tokens back to owner\n    * @param _listingHash The listing hash to delete\n    */\n    function resetListing(bytes32 _listingHash) private {\n        Listing storage listing = listings[_listingHash];\n\n        // Deleting listing to prevent reentry\n        address owner = listing.owner;\n        uint unstakedDeposit = listing.unstakedDeposit;\n        delete listings[_listingHash];\n\n        // Transfers any remaining balance back to the owner\n        if (unstakedDeposit > 0) {\n            require(_token.transfer(owner, unstakedDeposit));\n        }\n    }\n\n\n    function exit(bytes32 _listingHash, string _data) external {\n        Listing storage listing = listings[_listingHash];\n\n        require(msg.sender == listing.owner);\n        require(isWhitelisted(_listingHash));\n\n        // Cannot exit during ongoing challenge\n        require(listing.challengeID == 0 || challenges[listing.challengeID].resolved);\n\n        resetListing(_listingHash);\n\n        emit _ListingExited(_listingHash);\n    }\n\n    // Helpers/optional functions\n    function isWhitelisted(bytes32 _listingHash) public view returns (bool whitelisted) {\n        return listings[_listingHash].whitelisted;\n    }\n\n    function challengeExists(bytes32 _listingHash) public view returns (uint lastChallengeID) {\n        uint challengeID = listings[_listingHash].challengeID;\n\n        if (challengeID == 0 || !challenges[challengeID].resolved) {\n            return 0;\n        }\n\n        return challengeID;\n    }\n\n    /**\n    * Determines if poll is over\n    * @dev Checks isExpired for specified poll's revealEndDate\n    * @return Boolean indication of whether polling period is over\n    */\n    function challengeEnded(uint _challengeID) constant public returns (bool ended) {\n        // require(challengeExists(_challengeID) > 0);\n\n        return isExpired(challenges[_challengeID].commitEndDate);\n    }\n\n    /**\n    * Determines whether voting has concluded in a challenge for a given listingHash. Throws if no challenge exists.\n    * @param _listingHash A listingHash with an unresolved challenge\n    */\n    function challengeCanBeResolved(bytes32 _listingHash) public view returns (bool) {\n        uint challengeID = listings[_listingHash].challengeID;\n        require(challengeExists(_listingHash) > 0);\n\n        return challengeEnded(challengeID);\n    }\n\n    function voterReward(address _voter, uint _challengeID) public view returns (uint tokenAmount) {\n        Challenge storage _challenge = challenges[_challengeID];\n        // Ensures the voter has not already claimed tokens and _challenge results have\n        // been processed\n        require(_challenge.tokenClaims[_voter] == false, \"Reward already redeemed\");\n        require(_challenge.resolved == true, \"Challenge must be resolved before trying to claim the reward\");\n\n        uint _voterOption = _challenge.votingOptions[_voter];\n\n        // calculates the winning choice\n        uint winningChoice;\n        if (_challenge.votesFor >= _challenge.votesAgainst) {\n            winningChoice = 0;\n        } else {\n            winningChoice = 1;\n        }\n\n        // voter's tokens staked at this challenge \n        uint voterTokens = _challenge.tokenStakes[_voter];\n        if (_voterOption == winningChoice) {\n            return voterTokens.mul(_challenge.rewardPool).div(_challenge.totalTokens);\n        } else {\n            return 0;\n        }\n    }\n\n    function challengeReward(address _applierOrChallenger, uint _challengeID) public view returns (uint tokenAmount) {\n        return 300;\n    }\n\n    /**\n    * Returns true if apply was called for this listingHash\n    * @param _listingHash The listingHash whose status is to be examined\n    */\n    function appWasMade(bytes32 _listingHash) view public returns (bool exists) {\n        return listings[_listingHash].applicationExpiry > 0;\n    }\n\n    /**\n    * Gets the parameter keyed by the provided name value from the params mapping\n    * @param name The key whose value is to be determined\n    * @return name The key whose value is to be determined\n    */\n    function get(string name) public view returns (uint value) {\n        return params[keccak256(abi.encodePacked(name))];\n    }\n\n    /**\n    * Sets the param keyed by the provided name to the provided value\n    * @param name The name of the param to be set\n    * @param value The value to set the param to be set\n    */\n    function set(string name, uint value) private {\n        params[keccak256(abi.encodePacked(name))] = value;\n    }\n}",
  "sourcePath": "/home/marto/projects/opencurator/contracts/SimpleTCR.sol",
  "compiler": {
    "name": "solc",
    "version": "0.4.24+commit.e67f0147.Emscripten.clang"
  },
  "schemaVersion": "2.0.0",
  "updatedAt": "2019-02-17T09:27:11.805Z"
}