{
  "contractName": "SimpleTCR",
  "abi": [
    {
      "constant": true,
      "inputs": [
        {
          "name": "",
          "type": "address"
        }
      ],
      "name": "voteTokenBalance",
      "outputs": [
        {
          "name": "",
          "type": "uint256"
        }
      ],
      "payable": false,
      "stateMutability": "view",
      "type": "function"
    },
    {
      "constant": true,
      "inputs": [],
      "name": "pollID",
      "outputs": [
        {
          "name": "",
          "type": "uint256"
        }
      ],
      "payable": false,
      "stateMutability": "view",
      "type": "function"
    },
    {
      "constant": true,
      "inputs": [
        {
          "name": "",
          "type": "uint256"
        }
      ],
      "name": "challenges",
      "outputs": [
        {
          "name": "challenger",
          "type": "address"
        },
        {
          "name": "resolved",
          "type": "bool"
        },
        {
          "name": "stake",
          "type": "uint256"
        },
        {
          "name": "totalTokens",
          "type": "uint256"
        },
        {
          "name": "rewardPool",
          "type": "uint256"
        },
        {
          "name": "commitEndDate",
          "type": "uint256"
        },
        {
          "name": "voteQuorum",
          "type": "uint256"
        },
        {
          "name": "votesFor",
          "type": "uint256"
        },
        {
          "name": "votesAgainst",
          "type": "uint256"
        }
      ],
      "payable": false,
      "stateMutability": "view",
      "type": "function"
    },
    {
      "constant": true,
      "inputs": [],
      "name": "INITIAL_POLL_ID",
      "outputs": [
        {
          "name": "",
          "type": "uint256"
        }
      ],
      "payable": false,
      "stateMutability": "view",
      "type": "function"
    },
    {
      "constant": true,
      "inputs": [
        {
          "name": "",
          "type": "bytes32"
        }
      ],
      "name": "listings",
      "outputs": [
        {
          "name": "applicationExpiry",
          "type": "uint256"
        },
        {
          "name": "whitelisted",
          "type": "bool"
        },
        {
          "name": "owner",
          "type": "address"
        },
        {
          "name": "unstakedDeposit",
          "type": "uint256"
        },
        {
          "name": "challengeID",
          "type": "uint256"
        },
        {
          "name": "exitTime",
          "type": "uint256"
        },
        {
          "name": "exitTimeExpiry",
          "type": "uint256"
        }
      ],
      "payable": false,
      "stateMutability": "view",
      "type": "function"
    },
    {
      "constant": true,
      "inputs": [
        {
          "name": "",
          "type": "bytes32"
        }
      ],
      "name": "params",
      "outputs": [
        {
          "name": "",
          "type": "uint256"
        }
      ],
      "payable": false,
      "stateMutability": "view",
      "type": "function"
    },
    {
      "inputs": [
        {
          "name": "name",
          "type": "string"
        },
        {
          "name": "description",
          "type": "string"
        },
        {
          "name": "acceptedDataType",
          "type": "string"
        },
        {
          "name": "token",
          "type": "address"
        },
        {
          "name": "parameters",
          "type": "uint256[]"
        }
      ],
      "payable": false,
      "stateMutability": "nonpayable",
      "type": "constructor"
    },
    {
      "anonymous": false,
      "inputs": [
        {
          "indexed": true,
          "name": "listingHash",
          "type": "bytes32"
        },
        {
          "indexed": false,
          "name": "deposit",
          "type": "uint256"
        },
        {
          "indexed": false,
          "name": "appEndDate",
          "type": "uint256"
        },
        {
          "indexed": false,
          "name": "data",
          "type": "string"
        },
        {
          "indexed": true,
          "name": "applicant",
          "type": "address"
        }
      ],
      "name": "_Application",
      "type": "event"
    },
    {
      "anonymous": false,
      "inputs": [
        {
          "indexed": true,
          "name": "listingHash",
          "type": "bytes32"
        },
        {
          "indexed": false,
          "name": "challengeID",
          "type": "uint256"
        },
        {
          "indexed": false,
          "name": "data",
          "type": "string"
        },
        {
          "indexed": false,
          "name": "commitEndDate",
          "type": "uint256"
        },
        {
          "indexed": true,
          "name": "challenger",
          "type": "address"
        }
      ],
      "name": "_Challenge",
      "type": "event"
    },
    {
      "anonymous": false,
      "inputs": [
        {
          "indexed": false,
          "name": "voteQuorum",
          "type": "uint256"
        },
        {
          "indexed": false,
          "name": "commitEndDate",
          "type": "uint256"
        },
        {
          "indexed": true,
          "name": "pollID",
          "type": "uint256"
        },
        {
          "indexed": true,
          "name": "creator",
          "type": "address"
        }
      ],
      "name": "_PollCreated",
      "type": "event"
    },
    {
      "anonymous": false,
      "inputs": [
        {
          "indexed": true,
          "name": "challengeID",
          "type": "uint256"
        },
        {
          "indexed": false,
          "name": "numTokens",
          "type": "uint256"
        },
        {
          "indexed": true,
          "name": "voter",
          "type": "address"
        }
      ],
      "name": "_Vote",
      "type": "event"
    },
    {
      "anonymous": false,
      "inputs": [
        {
          "indexed": false,
          "name": "numTokens",
          "type": "uint256"
        },
        {
          "indexed": true,
          "name": "voter",
          "type": "address"
        }
      ],
      "name": "_VotingRightsGranted",
      "type": "event"
    },
    {
      "anonymous": false,
      "inputs": [
        {
          "indexed": false,
          "name": "numTokens",
          "type": "uint256"
        },
        {
          "indexed": true,
          "name": "voter",
          "type": "address"
        }
      ],
      "name": "_VotingRightsWithdrawn",
      "type": "event"
    },
    {
      "anonymous": false,
      "inputs": [
        {
          "indexed": true,
          "name": "listingHash",
          "type": "bytes32"
        },
        {
          "indexed": true,
          "name": "challengeID",
          "type": "uint256"
        },
        {
          "indexed": false,
          "name": "rewardPool",
          "type": "uint256"
        },
        {
          "indexed": false,
          "name": "totalTokens",
          "type": "uint256"
        },
        {
          "indexed": false,
          "name": "success",
          "type": "bool"
        }
      ],
      "name": "_ChallengeResolved",
      "type": "event"
    },
    {
      "anonymous": false,
      "inputs": [
        {
          "indexed": true,
          "name": "listingHash",
          "type": "bytes32"
        }
      ],
      "name": "_ApplicationWhitelisted",
      "type": "event"
    },
    {
      "anonymous": false,
      "inputs": [
        {
          "indexed": true,
          "name": "listingHash",
          "type": "bytes32"
        }
      ],
      "name": "_ListingExited",
      "type": "event"
    },
    {
      "anonymous": false,
      "inputs": [
        {
          "indexed": true,
          "name": "listingHash",
          "type": "bytes32"
        },
        {
          "indexed": false,
          "name": "deposit",
          "type": "uint256"
        },
        {
          "indexed": false,
          "name": "appEndDate",
          "type": "uint256"
        },
        {
          "indexed": true,
          "name": "applier",
          "type": "address"
        },
        {
          "indexed": false,
          "name": "data",
          "type": "string"
        }
      ],
      "name": "_Application",
      "type": "event"
    },
    {
      "anonymous": false,
      "inputs": [
        {
          "indexed": true,
          "name": "listingHash",
          "type": "bytes32"
        },
        {
          "indexed": false,
          "name": "challengeID",
          "type": "uint256"
        },
        {
          "indexed": false,
          "name": "voteEndDate",
          "type": "uint256"
        },
        {
          "indexed": true,
          "name": "challenger",
          "type": "address"
        },
        {
          "indexed": false,
          "name": "data",
          "type": "string"
        }
      ],
      "name": "_Challenge",
      "type": "event"
    },
    {
      "anonymous": false,
      "inputs": [
        {
          "indexed": true,
          "name": "challengeID",
          "type": "uint256"
        },
        {
          "indexed": false,
          "name": "numTokens",
          "type": "uint256"
        },
        {
          "indexed": true,
          "name": "voter",
          "type": "address"
        },
        {
          "indexed": false,
          "name": "_data",
          "type": "string"
        }
      ],
      "name": "_Vote",
      "type": "event"
    },
    {
      "anonymous": false,
      "inputs": [
        {
          "indexed": true,
          "name": "listingHash",
          "type": "bytes32"
        },
        {
          "indexed": false,
          "name": "voteEndDate",
          "type": "uint256"
        },
        {
          "indexed": false,
          "name": "data",
          "type": "string"
        }
      ],
      "name": "_ListingExited",
      "type": "event"
    },
    {
      "constant": true,
      "inputs": [],
      "name": "name",
      "outputs": [
        {
          "name": "",
          "type": "string"
        }
      ],
      "payable": false,
      "stateMutability": "view",
      "type": "function"
    },
    {
      "constant": true,
      "inputs": [],
      "name": "description",
      "outputs": [
        {
          "name": "",
          "type": "string"
        }
      ],
      "payable": false,
      "stateMutability": "view",
      "type": "function"
    },
    {
      "constant": true,
      "inputs": [],
      "name": "acceptedDataType",
      "outputs": [
        {
          "name": "",
          "type": "string"
        }
      ],
      "payable": false,
      "stateMutability": "view",
      "type": "function"
    },
    {
      "constant": true,
      "inputs": [
        {
          "name": "pName",
          "type": "string"
        }
      ],
      "name": "getParameter",
      "outputs": [
        {
          "name": "pValue",
          "type": "uint256"
        }
      ],
      "payable": false,
      "stateMutability": "view",
      "type": "function"
    },
    {
      "constant": true,
      "inputs": [],
      "name": "applyScheme",
      "outputs": [
        {
          "name": "",
          "type": "string"
        }
      ],
      "payable": false,
      "stateMutability": "view",
      "type": "function"
    },
    {
      "constant": true,
      "inputs": [],
      "name": "voteScheme",
      "outputs": [
        {
          "name": "",
          "type": "string"
        }
      ],
      "payable": false,
      "stateMutability": "view",
      "type": "function"
    },
    {
      "constant": true,
      "inputs": [],
      "name": "tokenScheme",
      "outputs": [
        {
          "name": "",
          "type": "string"
        }
      ],
      "payable": false,
      "stateMutability": "view",
      "type": "function"
    },
    {
      "constant": true,
      "inputs": [],
      "name": "exitScheme",
      "outputs": [
        {
          "name": "",
          "type": "string"
        }
      ],
      "payable": false,
      "stateMutability": "view",
      "type": "function"
    },
    {
      "constant": true,
      "inputs": [],
      "name": "token",
      "outputs": [
        {
          "name": "",
          "type": "address"
        }
      ],
      "payable": false,
      "stateMutability": "view",
      "type": "function"
    },
    {
      "constant": false,
      "inputs": [
        {
          "name": "_listingHash",
          "type": "bytes32"
        },
        {
          "name": "_tokenAmount",
          "type": "uint256"
        },
        {
          "name": "_data",
          "type": "string"
        }
      ],
      "name": "apply",
      "outputs": [],
      "payable": false,
      "stateMutability": "nonpayable",
      "type": "function"
    },
    {
      "constant": true,
      "inputs": [
        {
          "name": "_listingHash",
          "type": "bytes32"
        }
      ],
      "name": "getListingData",
      "outputs": [
        {
          "name": "jsonData",
          "type": "string"
        }
      ],
      "payable": false,
      "stateMutability": "view",
      "type": "function"
    },
    {
      "constant": true,
      "inputs": [
        {
          "name": "_listingHash",
          "type": "bytes32"
        }
      ],
      "name": "canBeWhitelisted",
      "outputs": [
        {
          "name": "",
          "type": "bool"
        }
      ],
      "payable": false,
      "stateMutability": "view",
      "type": "function"
    },
    {
      "constant": false,
      "inputs": [
        {
          "name": "_listingHash",
          "type": "bytes32"
        }
      ],
      "name": "updateStatus",
      "outputs": [],
      "payable": false,
      "stateMutability": "nonpayable",
      "type": "function"
    },
    {
      "constant": false,
      "inputs": [
        {
          "name": "_listingHash",
          "type": "bytes32"
        },
        {
          "name": "_tokenAmount",
          "type": "uint256"
        },
        {
          "name": "_data",
          "type": "string"
        }
      ],
      "name": "challenge",
      "outputs": [
        {
          "name": "challengeID",
          "type": "uint256"
        }
      ],
      "payable": false,
      "stateMutability": "nonpayable",
      "type": "function"
    },
    {
      "constant": false,
      "inputs": [
        {
          "name": "_tokenAmount",
          "type": "uint256"
        }
      ],
      "name": "requestVotingRights",
      "outputs": [],
      "payable": false,
      "stateMutability": "nonpayable",
      "type": "function"
    },
    {
      "constant": true,
      "inputs": [
        {
          "name": "_terminationDate",
          "type": "uint256"
        }
      ],
      "name": "isExpired",
      "outputs": [
        {
          "name": "expired",
          "type": "bool"
        }
      ],
      "payable": false,
      "stateMutability": "view",
      "type": "function"
    },
    {
      "constant": true,
      "inputs": [
        {
          "name": "_challengeID",
          "type": "uint256"
        }
      ],
      "name": "commitPeriodActive",
      "outputs": [
        {
          "name": "active",
          "type": "bool"
        }
      ],
      "payable": false,
      "stateMutability": "view",
      "type": "function"
    },
    {
      "constant": false,
      "inputs": [
        {
          "name": "_challengeID",
          "type": "uint256"
        },
        {
          "name": "_tokenAmount",
          "type": "uint256"
        },
        {
          "name": "_data",
          "type": "string"
        }
      ],
      "name": "vote",
      "outputs": [],
      "payable": false,
      "stateMutability": "nonpayable",
      "type": "function"
    },
    {
      "constant": false,
      "inputs": [
        {
          "name": "_challengeID",
          "type": "uint256"
        }
      ],
      "name": "claimChallengeReward",
      "outputs": [],
      "payable": false,
      "stateMutability": "nonpayable",
      "type": "function"
    },
    {
      "constant": false,
      "inputs": [
        {
          "name": "_challengeID",
          "type": "uint256"
        }
      ],
      "name": "claimVoterReward",
      "outputs": [],
      "payable": false,
      "stateMutability": "nonpayable",
      "type": "function"
    },
    {
      "constant": false,
      "inputs": [
        {
          "name": "_listingHash",
          "type": "bytes32"
        },
        {
          "name": "_data",
          "type": "string"
        }
      ],
      "name": "exit",
      "outputs": [],
      "payable": false,
      "stateMutability": "nonpayable",
      "type": "function"
    },
    {
      "constant": true,
      "inputs": [
        {
          "name": "_listingHash",
          "type": "bytes32"
        }
      ],
      "name": "isWhitelisted",
      "outputs": [
        {
          "name": "whitelisted",
          "type": "bool"
        }
      ],
      "payable": false,
      "stateMutability": "view",
      "type": "function"
    },
    {
      "constant": true,
      "inputs": [
        {
          "name": "_listingHash",
          "type": "bytes32"
        }
      ],
      "name": "challengeExists",
      "outputs": [
        {
          "name": "lastChallengeID",
          "type": "uint256"
        }
      ],
      "payable": false,
      "stateMutability": "view",
      "type": "function"
    },
    {
      "constant": true,
      "inputs": [
        {
          "name": "_challengeID",
          "type": "uint256"
        }
      ],
      "name": "challengeEnded",
      "outputs": [
        {
          "name": "ended",
          "type": "bool"
        }
      ],
      "payable": false,
      "stateMutability": "view",
      "type": "function"
    },
    {
      "constant": true,
      "inputs": [
        {
          "name": "_listingHash",
          "type": "bytes32"
        }
      ],
      "name": "challengeCanBeResolved",
      "outputs": [
        {
          "name": "",
          "type": "bool"
        }
      ],
      "payable": false,
      "stateMutability": "view",
      "type": "function"
    },
    {
      "constant": true,
      "inputs": [
        {
          "name": "_voter",
          "type": "address"
        },
        {
          "name": "_challengeID",
          "type": "uint256"
        }
      ],
      "name": "voterReward",
      "outputs": [
        {
          "name": "tokenAmount",
          "type": "uint256"
        }
      ],
      "payable": false,
      "stateMutability": "view",
      "type": "function"
    },
    {
      "constant": true,
      "inputs": [
        {
          "name": "_applierOrChallenger",
          "type": "address"
        },
        {
          "name": "_challengeID",
          "type": "uint256"
        }
      ],
      "name": "challengeReward",
      "outputs": [
        {
          "name": "tokenAmount",
          "type": "uint256"
        }
      ],
      "payable": false,
      "stateMutability": "view",
      "type": "function"
    },
    {
      "constant": true,
      "inputs": [
        {
          "name": "_listingHash",
          "type": "bytes32"
        }
      ],
      "name": "appWasMade",
      "outputs": [
        {
          "name": "exists",
          "type": "bool"
        }
      ],
      "payable": false,
      "stateMutability": "view",
      "type": "function"
    },
    {
      "constant": true,
      "inputs": [
        {
          "name": "name",
          "type": "string"
        }
      ],
      "name": "get",
      "outputs": [
        {
          "name": "value",
          "type": "uint256"
        }
      ],
      "payable": false,
      "stateMutability": "view",
      "type": "function"
    }
  ],
  "bytecode": "0x60806040523480156200001157600080fd5b50604051620031f1380380620031f1833981018060405281019080805182019291906020018051820192919060200180518201929190602001805190602001909291908051820192919050505060008273ffffffffffffffffffffffffffffffffffffffff1614158015620000be57506000600160009054906101000a900473ffffffffffffffffffffffffffffffffffffffff1673ffffffffffffffffffffffffffffffffffffffff16145b1515620000ca57600080fd5b8460009080519060200190620000e2929190620006df565b508360029080519060200190620000fb929190620006df565b50826003908051906020019062000114929190620006df565b506040805190810160405280600681526020017f53494d504c4500000000000000000000000000000000000000000000000000008152506004908051906020019062000162929190620006df565b506040805190810160405280600681526020017f53494d504c45000000000000000000000000000000000000000000000000000081525060059080519060200190620001b0929190620006df565b506040805190810160405280600681526020017f53494d504c45000000000000000000000000000000000000000000000000000081525060079080519060200190620001fe929190620006df565b506040805190810160405280600581526020017f4552433230000000000000000000000000000000000000000000000000000000815250600690805190602001906200024c929190620006df565b5081600160006101000a81548173ffffffffffffffffffffffffffffffffffffffff021916908373ffffffffffffffffffffffffffffffffffffffff160217905550620002f76040805190810160405280600f81526020017f72657175697265644465706f7369740000000000000000000000000000000000815250826000815181101515620002d857fe5b90602001906020020151620005e9640100000000026401000000009004565b620003606040805190810160405280600d81526020017f6170706c7953746167654c656e000000000000000000000000000000000000008152508260018151811015156200034157fe5b90602001906020020151620005e9640100000000026401000000009004565b620003c96040805190810160405280600e81526020017f636f6d6d697453746167654c656e000000000000000000000000000000000000815250826002815181101515620003aa57fe5b90602001906020020151620005e9640100000000026401000000009004565b620004326040805190810160405280600e81526020017f72657665616c53746167654c656e0000000000000000000000000000000000008152508260038151811015156200041357fe5b90602001906020020151620005e9640100000000026401000000009004565b6200049b6040805190810160405280600f81526020017f64697370656e736174696f6e50637400000000000000000000000000000000008152508260048151811015156200047c57fe5b90602001906020020151620005e9640100000000026401000000009004565b620005046040805190810160405280600a81526020017f766f746551756f72756d00000000000000000000000000000000000000000000815250826005815181101515620004e557fe5b90602001906020020151620005e9640100000000026401000000009004565b6200056d6040805190810160405280600d81526020017f6578697454696d6544656c6179000000000000000000000000000000000000008152508260068151811015156200054e57fe5b90602001906020020151620005e9640100000000026401000000009004565b620005d66040805190810160405280600d81526020017f65786974506572696f644c656e00000000000000000000000000000000000000815250826007815181101515620005b757fe5b90602001906020020151620005e9640100000000026401000000009004565b600060108190555050505050506200078e565b8060136000846040516020018082805190602001908083835b60208310151562000629578051825260208201915060208101905060208303925062000602565b6001836020036101000a0380198251168184511680821785525050505050509050019150506040516020818303038152906040526040518082805190602001908083835b6020831015156200069457805182526020820191506020810190506020830392506200066d565b6001836020036101000a038019825116818451168082178552505050505050905001915050604051809103902060001916600019168152602001908152602001600020819055505050565b828054600181600116156101000203166002900490600052602060002090601f016020900481019282601f106200072257805160ff191683800117855562000753565b8280016001018555821562000753579182015b828111156200075257825182559160200191906001019062000735565b5b50905062000762919062000766565b5090565b6200078b91905b80821115620007875760008160009055506001016200076d565b5090565b90565b612a53806200079e6000396000f3006080604052600436106101b7576000357c0100000000000000000000000000000000000000000000000000000000900463ffffffff16806301a5e3fe146101bc57806306fdde031461020557806307eb9c2a1461029557806313720578146102f65780631b7bbecb146103865780633b930294146103cb578063401bf084146104225780634250d2f41461044d578063691a38ab14610492578063693ec85e146104db5780637284e41614610558578063762ddcf5146105e857806377609a411461069257806389bb55c7146106db5780638a59eb561461072e5780638cf8151f1461075f5780638f1d3776146107a85780639e647aac14610851578063a1bbfc05146108ce578063a210a8ce1461091d578063a25236fe146109ad578063a4439dc5146109da578063a8931a8214610a1f578063aad4cad014610a4a578063bd0ae40514610a77578063c18b8db414610ad8578063c512d8f714610b77578063c893b82f14610c07578063d9548e5314610c34578063dc6ab52714610c79578063dd677cda14610cbe578063ebd969bb14610d4e578063f8d9c26714610d97578063fc0c546a14610e27578063fd48cc4514610e7e575b600080fd5b3480156101c857600080fd5b506101eb6004803603810190808035600019169060200190929190505050610ee5565b604051808215151515815260200191505060405180910390f35b34801561021157600080fd5b5061021a610f1a565b6040518080602001828103825283818151815260200191508051906020019080838360005b8381101561025a57808201518184015260208101905061023f565b50505050905090810190601f1680156102875780820380516001836020036101000a031916815260200191505b509250505060405180910390f35b3480156102a157600080fd5b506102e0600480360381019080803573ffffffffffffffffffffffffffffffffffffffff16906020019092919080359060200190929190505050610fbc565b6040518082815260200191505060405180910390f35b34801561030257600080fd5b5061030b610fc9565b6040518080602001828103825283818151815260200191508051906020019080838360005b8381101561034b578082015181840152602081019050610330565b50505050905090810190601f1680156103785780820380516001836020036101000a031916815260200191505b509250505060405180910390f35b34801561039257600080fd5b506103b5600480360381019080803560001916906020019092919050505061106b565b6040518082815260200191505060405180910390f35b3480156103d757600080fd5b5061040c600480360381019080803573ffffffffffffffffffffffffffffffffffffffff1690602001909291905050506110d7565b6040518082815260200191505060405180910390f35b34801561042e57600080fd5b506104376110ef565b6040518082815260200191505060405180910390f35b34801561045957600080fd5b50610478600480360381019080803590602001909291905050506110f5565b604051808215151515815260200191505060405180910390f35b34801561049e57600080fd5b506104c1600480360381019080803560001916906020019092919050505061111d565b604051808215151515815260200191505060405180910390f35b3480156104e757600080fd5b50610542600480360381019080803590602001908201803590602001908080601f01602080910402602001604051908101604052809392919081815260200183838082843782019150505050505091929192905050506111dc565b6040518082815260200191505060405180910390f35b34801561056457600080fd5b5061056d6112cf565b6040518080602001828103825283818151815260200191508051906020019080838360005b838110156105ad578082015181840152602081019050610592565b50505050905090810190601f1680156105da5780820380516001836020036101000a031916815260200191505b509250505060405180910390f35b3480156105f457600080fd5b506106176004803603810190808035600019169060200190929190505050611371565b6040518080602001828103825283818151815260200191508051906020019080838360005b8381101561065757808201518184015260208101905061063c565b50505050905090810190601f1680156106845780820380516001836020036101000a031916815260200191505b509250505060405180910390f35b34801561069e57600080fd5b506106c160048036038101908080356000191690602001909291905050506113b5565b604051808215151515815260200191505060405180910390f35b3480156106e757600080fd5b5061072c600480360381019080803560001916906020019092919080359060200190929190803590602001908201803590602001919091929391929390505050611401565b005b34801561073a57600080fd5b5061075d6004803603810190808035600019169060200190929190505050611725565b005b34801561076b57600080fd5b5061078e6004803603810190808035600019169060200190929190505050611766565b604051808215151515815260200191505060405180910390f35b3480156107b457600080fd5b506107d360048036038101908080359060200190929190505050611790565b604051808a73ffffffffffffffffffffffffffffffffffffffff1673ffffffffffffffffffffffffffffffffffffffff16815260200189151515158152602001888152602001878152602001868152602001858152602001848152602001838152602001828152602001995050505050505050505060405180910390f35b34801561085d57600080fd5b506108b8600480360381019080803590602001908201803590602001908080601f016020809104026020016040519081016040528093929190818152602001838380828437820191505050505050919291929050505061180b565b6040518082815260200191505060405180910390f35b3480156108da57600080fd5b5061091b600480360381019080803590602001909291908035906020019092919080359060200190820180359060200191909192939192939050505061181d565b005b34801561092957600080fd5b50610932611d32565b6040518080602001828103825283818151815260200191508051906020019080838360005b83811015610972578082015181840152602081019050610957565b50505050905090810190601f16801561099f5780820380516001836020036101000a031916815260200191505b509250505060405180910390f35b3480156109b957600080fd5b506109d860048036038101908080359060200190929190505050611dd4565b005b3480156109e657600080fd5b50610a05600480360381019080803590602001909291905050506120ff565b604051808215151515815260200191505060405180910390f35b348015610a2b57600080fd5b50610a3461212d565b6040518082815260200191505060405180910390f35b348015610a5657600080fd5b50610a7560048036038101908080359060200190929190505050612132565b005b348015610a8357600080fd5b50610ac2600480360381019080803573ffffffffffffffffffffffffffffffffffffffff16906020019092919080359060200190929190505050612135565b6040518082815260200191505060405180910390f35b348015610ae457600080fd5b50610b076004803603810190808035600019169060200190929190505050612141565b60405180888152602001871515151581526020018673ffffffffffffffffffffffffffffffffffffffff1673ffffffffffffffffffffffffffffffffffffffff16815260200185815260200184815260200183815260200182815260200197505050505050505060405180910390f35b348015610b8357600080fd5b50610b8c6121b0565b6040518080602001828103825283818151815260200191508051906020019080838360005b83811015610bcc578082015181840152602081019050610bb1565b50505050905090810190601f168015610bf95780820380516001836020036101000a031916815260200191505b509250505060405180910390f35b348015610c1357600080fd5b50610c3260048036038101908080359060200190929190505050612252565b005b348015610c4057600080fd5b50610c5f60048036038101908080359060200190929190505050612255565b604051808215151515815260200191505060405180910390f35b348015610c8557600080fd5b50610ca86004803603810190808035600019169060200190929190505050612261565b6040518082815260200191505060405180910390f35b348015610cca57600080fd5b50610cd3612279565b6040518080602001828103825283818151815260200191508051906020019080838360005b83811015610d13578082015181840152602081019050610cf8565b50505050905090810190601f168015610d405780820380516001836020036101000a031916815260200191505b509250505060405180910390f35b348015610d5a57600080fd5b50610d95600480360381019080803560001916906020019092919080359060200190820180359060200191909192939192939050505061231b565b005b348015610da357600080fd5b50610dac612351565b6040518080602001828103825283818151815260200191508051906020019080838360005b83811015610dec578082015181840152602081019050610dd1565b50505050905090810190601f168015610e195780820380516001836020036101000a031916815260200191505b509250505060405180910390f35b348015610e3357600080fd5b50610e3c6123f3565b604051808273ffffffffffffffffffffffffffffffffffffffff1673ffffffffffffffffffffffffffffffffffffffff16815260200191505060405180910390f35b348015610e8a57600080fd5b50610ecf60048036038101908080356000191690602001909291908035906020019092919080359060200190820180359060200191909192939192939050505061241d565b6040518082815260200191505060405180910390f35b600060126000836000191660001916815260200190815260200160002060010160009054906101000a900460ff169050919050565b606060008054600181600116156101000203166002900480601f016020809104026020016040519081016040528092919081815260200182805460018160011615610100020316600290048015610fb25780601f10610f8757610100808354040283529160200191610fb2565b820191906000526020600020905b815481529060010190602001808311610f9557829003601f168201915b5050505050905090565b600061012c905092915050565b606060058054600181600116156101000203166002900480601f0160208091040260200160405190810160405280929190818152602001828054600181600116156101000203166002900480156110615780601f1061103657610100808354040283529160200191611061565b820191906000526020600020905b81548152906001019060200180831161104457829003601f168201915b5050505050905090565b60008060126000846000191660001916815260200190815260200160002060030154905060008114806110bf57506011600082815260200190815260200160002060000160149054906101000a900460ff16155b156110cd57600091506110d1565b8091505b50919050565b60146020528060005260406000206000915090505481565b60105481565b60006111166011600084815260200190815260200160002060040154612255565b9050919050565b60008060126000846000191660001916815260200190815260200160002060030154905061114a83611766565b801561117357504260126000856000191660001916815260200190815260200160002060000154105b8015611185575061118383610ee5565b155b80156111c3575060008114806111c25750600115156011600083815260200190815260200160002060000160149054906101000a900460ff161515145b5b156111d157600191506111d6565b600091505b50919050565b600060136000836040516020018082805190602001908083835b60208310151561121b57805182526020820191506020810190506020830392506111f6565b6001836020036101000a0380198251168184511680821785525050505050509050019150506040516020818303038152906040526040518082805190602001908083835b602083101515611284578051825260208201915060208101905060208303925061125f565b6001836020036101000a038019825116818451168082178552505050505050905001915050604051809103902060001916600019168152602001908152602001600020549050919050565b606060028054600181600116156101000203166002900480601f0160208091040260200160405190810160405280929190818152602001828054600181600116156101000203166002900480156113675780601f1061133c57610100808354040283529160200191611367565b820191906000526020600020905b81548152906001019060200180831161134a57829003601f168201915b5050505050905090565b6060806040805190810160405280600281526020017f7b7d000000000000000000000000000000000000000000000000000000000000815250905080915050919050565b60008060126000846000191660001916815260200190815260200160002060030154905060006113e48461106b565b1115156113f057600080fd5b6113f9816110f5565b915050919050565b600061140c85610ee5565b15151561141857600080fd5b61142185611766565b15151561142d57600080fd5b61146b6040805190810160405280600f81526020017f72657175697265644465706f73697400000000000000000000000000000000008152506111dc565b841015151561147957600080fd5b6012600086600019166000191681526020019081526020016000209050338160010160016101000a81548173ffffffffffffffffffffffffffffffffffffffff021916908373ffffffffffffffffffffffffffffffffffffffff16021790555061152961151a6040805190810160405280600d81526020017f6170706c7953746167654c656e000000000000000000000000000000000000008152506111dc565b426128b890919063ffffffff16565b8160000181905550838160020181905550600160009054906101000a900473ffffffffffffffffffffffffffffffffffffffff1673ffffffffffffffffffffffffffffffffffffffff166323b872dd8260010160019054906101000a900473ffffffffffffffffffffffffffffffffffffffff1630876040518463ffffffff167c0100000000000000000000000000000000000000000000000000000000028152600401808473ffffffffffffffffffffffffffffffffffffffff1673ffffffffffffffffffffffffffffffffffffffff1681526020018373ffffffffffffffffffffffffffffffffffffffff1673ffffffffffffffffffffffffffffffffffffffff1681526020018281526020019350505050602060405180830381600087803b15801561165757600080fd5b505af115801561166b573d6000803e3d6000fd5b505050506040513d602081101561168157600080fd5b8101908080519060200190929190505050151561169d57600080fd5b3373ffffffffffffffffffffffffffffffffffffffff1685600019167fa27f550c3c7a7c6d8369e5383fdc7a3b4850d8ce9e20066f9d496f6989f0086486846000015487876040518085815260200184815260200180602001828103825284848281815260200192508082843782019150509550505050505060405180910390a35050505050565b61172e8161111d565b156117415761173c816128d9565b611763565b61174a816113b5565b1561175d5761175881612977565b611762565b600080fd5b5b50565b60008060126000846000191660001916815260200190815260200160002060000154119050919050565b60116020528060005260406000206000915090508060000160009054906101000a900473ffffffffffffffffffffffffffffffffffffffff16908060000160149054906101000a900460ff16908060010154908060020154908060030154908060040154908060050154908060060154908060070154905089565b6000611816826111dc565b9050919050565b600080600061182b876120ff565b151561183657600080fd5b60405160200180807f310000000000000000000000000000000000000000000000000000000000000081525060010190506040516020818303038152906040526040518082805190602001908083835b6020831015156118ab5780518252602082019150602081019050602083039250611886565b6001836020036101000a0380198251168184511680821785525050505050509050019150506040518091039020600019168585604051602001808383808284378201915050925050506040516020818303038152906040526040518082805190602001908083835b6020831015156119385780518252602082019150602081019050602083039250611913565b6001836020036101000a03801982511681845116808217855250505050505090500191505060405180910390206000191614156119785760019250611ac0565b60405160200180807f300000000000000000000000000000000000000000000000000000000000000081525060010190506040516020818303038152906040526040518082805190602001908083835b6020831015156119ed57805182526020820191506020810190506020830392506119c8565b6001836020036101000a0380198251168184511680821785525050505050509050019150506040518091039020600019168585604051602001808383808284378201915050925050506040516020818303038152906040526040518082805190602001908083835b602083101515611a7a5780518252602082019150602081019050602083039250611a55565b6001836020036101000a0380198251168184511680821785525050505050509050019150506040518091039020600019161415611aba5760009250611abf565b600080fd5b5b60116000888152602001908152602001600020915060008260090160003373ffffffffffffffffffffffffffffffffffffffff1673ffffffffffffffffffffffffffffffffffffffff16815260200190815260200160002054141515611b2557600080fd5b60008714151515611b3557600080fd5b85601460003373ffffffffffffffffffffffffffffffffffffffff1673ffffffffffffffffffffffffffffffffffffffff168152602001908152602001600020541015611bda57611bce601460003373ffffffffffffffffffffffffffffffffffffffff1673ffffffffffffffffffffffffffffffffffffffff168152602001908152602001600020548761299e90919063ffffffff16565b9050611bd981611dd4565b5b85601460003373ffffffffffffffffffffffffffffffffffffffff1673ffffffffffffffffffffffffffffffffffffffff1681526020019081526020016000205410151515611c2857600080fd5b858260090160003373ffffffffffffffffffffffffffffffffffffffff1673ffffffffffffffffffffffffffffffffffffffff16815260200190815260200160002081905550611c858260010154876128b890919063ffffffff16565b82600101819055506001831415611cba57611cad8683600601546128b890919063ffffffff16565b8260060181905550611cda565b611cd18683600701546128b890919063ffffffff16565b82600701819055505b3373ffffffffffffffffffffffffffffffffffffffff16877f119a05767ca36da71a12356456d863199cf4e96d6850f10338fa158a0011de1d886040518082815260200191505060405180910390a350505050505050565b606060038054600181600116156101000203166002900480601f016020809104026020016040519081016040528092919081815260200182805460018160011615610100020316600290048015611dca5780601f10611d9f57610100808354040283529160200191611dca565b820191906000526020600020905b815481529060010190602001808311611dad57829003601f168201915b5050505050905090565b80600160009054906101000a900473ffffffffffffffffffffffffffffffffffffffff1673ffffffffffffffffffffffffffffffffffffffff166370a08231336040518263ffffffff167c0100000000000000000000000000000000000000000000000000000000028152600401808273ffffffffffffffffffffffffffffffffffffffff1673ffffffffffffffffffffffffffffffffffffffff168152602001915050602060405180830381600087803b158015611e9257600080fd5b505af1158015611ea6573d6000803e3d6000fd5b505050506040513d6020811015611ebc57600080fd5b810190808051906020019092919050505010151515611eda57600080fd5b611f2c81601460003373ffffffffffffffffffffffffffffffffffffffff1673ffffffffffffffffffffffffffffffffffffffff168152602001908152602001600020546128b890919063ffffffff16565b601460003373ffffffffffffffffffffffffffffffffffffffff1673ffffffffffffffffffffffffffffffffffffffff16815260200190815260200160002081905550600160009054906101000a900473ffffffffffffffffffffffffffffffffffffffff1673ffffffffffffffffffffffffffffffffffffffff166323b872dd3330846040518463ffffffff167c0100000000000000000000000000000000000000000000000000000000028152600401808473ffffffffffffffffffffffffffffffffffffffff1673ffffffffffffffffffffffffffffffffffffffff1681526020018373ffffffffffffffffffffffffffffffffffffffff1673ffffffffffffffffffffffffffffffffffffffff1681526020018281526020019350505050602060405180830381600087803b15801561206857600080fd5b505af115801561207c573d6000803e3d6000fd5b505050506040513d602081101561209257600080fd5b810190808051906020019092919050505015156120ae57600080fd5b3373ffffffffffffffffffffffffffffffffffffffff167ff7aaf024511d9982df8cd0d437c71c30106e6848cd1ba3d288d7a9c0e276aeda826040518082815260200191505060405180910390a250565b6000806011600084815260200190815260200160002090506121248160040154612255565b15915050919050565b600081565b50565b60006064905092915050565b60126020528060005260406000206000915090508060000154908060010160009054906101000a900460ff16908060010160019054906101000a900473ffffffffffffffffffffffffffffffffffffffff16908060020154908060030154908060040154908060050154905087565b606060078054600181600116156101000203166002900480601f0160208091040260200160405190810160405280929190818152602001828054600181600116156101000203166002900480156122485780601f1061221d57610100808354040283529160200191612248565b820191906000526020600020905b81548152906001019060200180831161222b57829003601f168201915b5050505050905090565b50565b60008142119050919050565b60136020528060005260406000206000915090505481565b606060048054600181600116156101000203166002900480601f0160208091040260200160405190810160405280929190818152602001828054600181600116156101000203166002900480156123115780601f106122e657610100808354040283529160200191612311565b820191906000526020600020905b8154815290600101906020018083116122f457829003601f168201915b5050505050905090565b82600019167f811c926c259739c92d16507624c3d249021bfa661c5a64f2187dc46e8e93c63b60405160405180910390a2505050565b606060068054600181600116156101000203166002900480601f0160208091040260200160405190810160405280929190818152602001828054600181600116156101000203166002900480156123e95780601f106123be576101008083540402835291602001916123e9565b820191906000526020600020905b8154815290600101906020018083116123cc57829003601f168201915b5050505050905090565b6000600160009054906101000a900473ffffffffffffffffffffffffffffffffffffffff16905090565b6000806000806000601260008a6000191660001916815260200190815260200160002093506124806040805190810160405280600f81526020017f72657175697265644465706f73697400000000000000000000000000000000008152506111dc565b9250878314151561249057600080fd5b61249989611766565b806124b257508360010160009054906101000a900460ff165b15156124bd57600080fd5b6000846003015414806124f45750601160008560030154815260200190815260200160002060000160149054906101000a900460ff165b15156124ff57600080fd5b600160105401601081905550612520600a54426128b890919063ffffffff16565b915060649050610120604051908101604052803373ffffffffffffffffffffffffffffffffffffffff168152602001600015158152602001848152602001600081526020016125da60646125cc876125be6125af6040805190810160405280600f81526020017f64697370656e736174696f6e50637400000000000000000000000000000000008152506111dc565b8861299e90919063ffffffff16565b6129bf90919063ffffffff16565b6129fd90919063ffffffff16565b8152602001838152602001600d54815260200160008152602001600081525060116000601054815260200190815260200160002060008201518160000160006101000a81548173ffffffffffffffffffffffffffffffffffffffff021916908373ffffffffffffffffffffffffffffffffffffffff16021790555060208201518160000160146101000a81548160ff02191690831515021790555060408201518160010155606082015181600201556080820151816003015560a0820151816004015560c0820151816005015560e08201518160060155610100820151816007015590505060105484600301819055506126e183856002015461299e90919063ffffffff16565b8460020181905550600160009054906101000a900473ffffffffffffffffffffffffffffffffffffffff1673ffffffffffffffffffffffffffffffffffffffff166323b872dd3330866040518463ffffffff167c0100000000000000000000000000000000000000000000000000000000028152600401808473ffffffffffffffffffffffffffffffffffffffff1673ffffffffffffffffffffffffffffffffffffffff1681526020018373ffffffffffffffffffffffffffffffffffffffff1673ffffffffffffffffffffffffffffffffffffffff1681526020018281526020019350505050602060405180830381600087803b1580156127e257600080fd5b505af11580156127f6573d6000803e3d6000fd5b505050506040513d602081101561280c57600080fd5b8101908080519060200190929190505050151561282857600080fd5b3373ffffffffffffffffffffffffffffffffffffffff1689600019167f49b14c82c36e78a2c0af88ec58604d127b5a0513b00e6a946376374c4c1c1b256010548a8a876040518085815260200180602001838152602001828103825285858281815260200192508082843782019150509550505050505060405180910390a3601054945050505050949350505050565b60008082840190508381101515156128cf57600080fd5b8091505092915050565b60126000826000191660001916815260200190815260200160002060010160009054906101000a900460ff16151561293d5780600019167fa7bc1d57d9006d9d248707c7b6828c1bab8c51719cc06d78c82a3ee891ef967c60405160405180910390a25b600160126000836000191660001916815260200190815260200160002060010160006101000a81548160ff02191690831515021790555050565b60006012600083600019166000191681526020019081526020016000206003015490505050565b6000808383111515156129b057600080fd5b82840390508091505092915050565b60008060008414156129d457600091506129f6565b82840290508284828115156129e557fe5b041415156129f257600080fd5b8091505b5092915050565b600080600083111515612a0f57600080fd5b8284811515612a1a57fe5b04905080915050929150505600a165627a7a72305820e6bf3f3be32886b6a4682ce93c01430ab519da824f8d91ba15b991918e6f54ea0029",
  "source": "pragma solidity ^0.4.24;\n\nimport \"./ITCR20.sol\";\nimport \"./zeppelin/ERC20Tradable.sol\";\n\ncontract SimpleTCR is ITCR20 {\n    // -------\n    // EVENTS:\n    // -------\n\n    event _Application(bytes32 indexed listingHash, uint deposit, uint appEndDate, string data, address indexed applicant);\n    event _Challenge(bytes32 indexed listingHash, uint challengeID, string data, uint commitEndDate, address indexed challenger);\n    event _PollCreated(uint voteQuorum, uint commitEndDate, uint indexed pollID, address indexed creator);\n    event _Vote(uint indexed challengeID, uint numTokens, address indexed voter);\n    event _VotingRightsGranted(uint numTokens, address indexed voter);\n    event _VotingRightsWithdrawn(uint numTokens, address indexed voter);\n    event _ChallengeResolved(bytes32 indexed listingHash, uint indexed challengeID, uint rewardPool, uint totalTokens, bool success);\n    event _ApplicationWhitelisted(bytes32 indexed listingHash);\n    event _ListingExited(bytes32 indexed listingHash);\n\n    using SafeMath for uint;\n\n    // Base registry variables\n    string private _name;\n    IERC20 private _token;\n    string private _description;\n    string private _acceptedDataType;\n    string private _applyScheme;\n    string private _voteScheme;\n    string private _tokenScheme;\n    string private _exitScheme;\n\n    // TCR basic variables\n    uint private _minDeposit;\n    uint private _applyStageLen;\n    uint private _commitStageLen;\n    uint private _revealStageLen;\n    uint private _dispensationPct;\n    uint private _voteQuorum;\n    uint private _exitTimeDelay;\n    uint private _exitPeriodLen;\n\n    // Challenge basic variables\n    uint constant public INITIAL_POLL_ID = 0;\n    uint public pollID;\n\n    struct Listing {\n        uint applicationExpiry; // Expiration date of apply stage\n        bool whitelisted;       // Indicates registry status\n        address owner;          // Owner of Listing\n        uint unstakedDeposit;   // Number of tokens in the listing not locked in a challenge\n        uint challengeID;       // Corresponds to a PollID in PLCRVoting\n        uint exitTime;          // Time the listing may leave the registry\n        uint exitTimeExpiry;    // Expiration date of exit period\n    }\n\n    struct Challenge {\n        address challenger;     // Owner of Challenge\n        bool resolved;          // Indication of if challenge is resolved\n        uint stake;             // Number of tokens at stake for either party during challenge\n        uint totalTokens;       // (remaining) Number of tokens used in voting by the winning side\n        uint rewardPool;        // (remaining) Pool of tokens to be distributed to winning voters\n        uint commitEndDate;     /// expiration date of commit period for poll\n        uint voteQuorum;        /// number of votes required for a proposal to pass\n        uint votesFor;          /// tally of votes supporting proposal\n        uint votesAgainst;      /// tally of votes countering proposal\n        mapping(address => bool) tokenClaims; // Indicates whether a voter has claimed a reward yet\n        mapping(address => uint) tokenStakes; // Indicates the amount of tokens locked by a voter\n    }\n\n    // Maps challengeIDs to associated challenge data\n    mapping(uint => Challenge) public challenges;\n\n    // Maps listingHashes to associated listingHash data\n    mapping(bytes32 => Listing) public listings;\n\n    // Maps parameters string hashes to values\n    mapping(bytes32 => uint) public params;\n\n    // Maps user's address to voteToken balance\n    mapping(address => uint) public voteTokenBalance; \n\n    /**\n     * @dev Initializer. Can only be called once.\n     * @param token The address where the ERC20 token contract is deployed\n     */\n    constructor(string name, string description, string acceptedDataType, address token, uint[] parameters) {\n        require(token != 0 && address(_token) == 0);\n        \n        // Base registry parameters\n        _name = name;\n        _description = description;\n        _acceptedDataType = acceptedDataType;\n        _applyScheme = \"SIMPLE\";\n        _voteScheme = \"SIMPLE\";\n        _exitScheme = \"SIMPLE\";\n\n        _tokenScheme = \"ERC20\";\n        _token = ERC20Tradable(token);\n\n        // required deposit for listing to be whitelisted. No more, no less.\n        set(\"requiredDeposit\", parameters[0]);\n\n        // period over which applicants wait to be whitelisted\n        set(\"applyStageLen\", parameters[1]);\n\n        // length of commit period for voting\n        set(\"commitStageLen\", parameters[2]);\n\n        // length of reveal period for voting\n        set(\"revealStageLen\", parameters[3]);\n\n        // percentage of losing party's deposit distributed to winning party\n        set(\"dispensationPct\", parameters[4]);\n\n        // type of majority out of 100 necessary for candidate success\n        set(\"voteQuorum\", parameters[5]);\n\n        // minimum length of time user has to wait to exit the registry\n        set(\"exitTimeDelay\", parameters[6]);\n\n        // maximum length of time user can wait to exit the registry\n        set(\"exitPeriodLen\", parameters[7]);\n\n        // sets the initial pollID\n        pollID = INITIAL_POLL_ID;\n    }\n\n    function name() public view returns(string){\n        return _name;\n    }\n\n    function description() public view returns(string){\n        return _description;\n    }\n\n    function acceptedDataType() public view returns(string){\n        return _acceptedDataType;\n    }\n\n    function getParameter(string pName) public view returns (uint pValue) {\n        return get(pName);\n    }\n\n    function applyScheme() public view returns(string){\n        return _applyScheme;\n    }\n    \n    function voteScheme() public view returns(string){\n        return _voteScheme;\n    }\n\n    function tokenScheme() public view returns(string){\n        return _tokenScheme;\n    }\n\n    function exitScheme() public view returns(string){\n        return _exitScheme;\n    }\n\n    function token() public view returns(IERC20) {\n        return _token;\n    }\n\n    // Main functions\n    function apply(bytes32 _listingHash, uint _tokenAmount, string _data) external {\n        require(!isWhitelisted(_listingHash));\n        require(!appWasMade(_listingHash));\n        require(_tokenAmount >= get(\"requiredDeposit\"));\n\n        // Sets owner\n        Listing storage listing = listings[_listingHash];\n        listing.owner = msg.sender;\n\n        // Sets apply stage end time\n        listing.applicationExpiry = block.timestamp.add(get(\"applyStageLen\"));\n        listing.unstakedDeposit = _tokenAmount;\n\n        // Transfers tokens from user to Registry contract\n        require(_token.transferFrom(listing.owner, this, _tokenAmount));\n\n        emit _Application(_listingHash, _tokenAmount, listing.applicationExpiry, _data, msg.sender);\n    }\n\n    function getListingData(bytes32 _listingHash) external view returns (string memory jsonData) {\n        // copy the data into memory\n        // Listing memory l = listings[_listingHash];\n        \n        // break the struct's members out into a tuple\n        // in the same order that they appear in the struct\n        string memory result = \"{}\"; // TODO look how to concat this as a JSON File\n        // return (l.applicationExpiry, l.whitelisted, l.owner, l.unstakedDeposit, l.challengeID, l.exitTime, l.exitTimeExpiry);\n        return result;\n    }\n\n    /**\n     * Determines whether the given listingHash be whitelisted.\n     * @param _listingHash The listingHash whose status is to be examined\n     */\n    function canBeWhitelisted(bytes32 _listingHash) view public returns (bool) {\n        uint challengeID = listings[_listingHash].challengeID;\n        // Ensures that the application was made,\n        // the application period has ended,\n        // the listingHash can be whitelisted,\n        // and either: the challengeID == 0, or the challenge has been resolved.\n        if (\n            appWasMade(_listingHash) &&\n            listings[_listingHash].applicationExpiry < now &&\n            !isWhitelisted(_listingHash) &&\n            (challengeID == 0 || challenges[challengeID].resolved == true)\n        ) { return true; }\n\n        return false;\n    }\n\n    /**\n     * Add an already Applied listingHash to the whitelist\n     * @dev Called by updateStatus() if the applicationExpiry date passed without a challenge being made.\n     * @dev Called by resolveChallenge() if an application/listing beat a challenge.\n     * @param _listingHash The listingHash of an application/listingHash to be whitelisted\n     */\n    function whitelistApplication(bytes32 _listingHash) private {\n        if (!listings[_listingHash].whitelisted) {emit _ApplicationWhitelisted(_listingHash);}\n        listings[_listingHash].whitelisted = true;\n    }\n\n    /**\n     * Determines the winner in a challenge. Rewards the winner tokens and either whitelists\n     * or de-whitelists (reset) the listingHash.\n     * @param _listingHash A listingHash with a challenge that is to be resolved\n     */\n    function resolveChallenge(bytes32 _listingHash) private {\n        uint challengeID = listings[_listingHash].challengeID;\n\n    }\n\n    /**\n     * Updates a listingHash status from 'application' to 'listing' or resolves a challenge if one exists.\n     * @param _listingHash The listingHash whose status is being updated\n     */\n    function updateStatus(bytes32 _listingHash) public {\n        if (canBeWhitelisted(_listingHash)) {\n            whitelistApplication(_listingHash);\n        } else if (challengeCanBeResolved(_listingHash)) {\n            resolveChallenge(_listingHash);\n        } else {\n            revert();\n        }\n    }\n\n    /**\n    * Starts a poll for a listingHash which is either in the apply stage or already in the whitelist.\n    * @dev Tokens are taken from the challenger and the applicant's deposits are locked.\n    * @param _listingHash The listingHash being challenged, whether listed or in application\n    * @param _data Extra data relevant to the challenge. Think IPFS hashes.\n    */\n    function challenge(bytes32 _listingHash, uint _tokenAmount, string _data) external returns (uint challengeID) {\n        Listing storage listing = listings[_listingHash];\n        uint requiredDeposit = get(\"requiredDeposit\");\n\n        // _tokenAmount must match the requiredDeposit\n        require(requiredDeposit == _tokenAmount);\n\n        // Listing must be in apply stage or already on the whitelist\n        require(appWasMade(_listingHash) || listing.whitelisted);\n        // Prevent multiple challenges\n        require(listing.challengeID == 0 || challenges[listing.challengeID].resolved);\n\n        // Sets pollID\n        pollID = pollID + 1;\n\n        // Defines voting commit duration\n        uint commitEndDate = block.timestamp.add(_commitStageLen);\n\n        uint oneHundred = 100;\n        // Kludge that we need to use SafeMath\n        challenges[pollID] = Challenge({\n            challenger : msg.sender,\n            rewardPool : ((oneHundred.sub(get(\"dispensationPct\"))).mul(requiredDeposit)).div(100),\n            stake : requiredDeposit,\n            resolved : false,\n            totalTokens : 0,\n            commitEndDate : commitEndDate,\n            voteQuorum : _voteQuorum,\n            votesFor: 0,\n            votesAgainst : 0\n            });\n\n        // Updates listingHash to store most recent challenge\n        listing.challengeID = pollID;\n\n        // Locks tokens for listingHash during challenge\n        listing.unstakedDeposit = listing.unstakedDeposit.sub(requiredDeposit);\n\n        // Takes tokens from challenger\n        require(_token.transferFrom(msg.sender, this, requiredDeposit));\n\n        emit _Challenge(_listingHash, pollID, _data, commitEndDate, msg.sender);\n        return pollID;\n    }\n\n    /**\n    * Loads _tokenAmount ERC20 tokens into the voting contract for one-to-one voting rights\n    * @dev Assumes that msg.sender has approved voting contract to spend on their behalf\n    * @param _tokenAmount The number of votingTokens desired in exchange for ERC20 tokens\n    */\n    function requestVotingRights(uint _tokenAmount) public {\n        require(_token.balanceOf(msg.sender) >= _tokenAmount);\n        voteTokenBalance[msg.sender] = voteTokenBalance[msg.sender].add(_tokenAmount);\n        require(_token.transferFrom(msg.sender, this, _tokenAmount));\n        emit _VotingRightsGranted(_tokenAmount, msg.sender);\n    }\n\n    /**\n    * Checks if an expiration date has been reached\n    * @param _terminationDate Integer timestamp of date to compare current timestamp with\n    * @return expired Boolean indication of whether the terminationDate has passed\n    */\n    function isExpired(uint _terminationDate) constant public returns (bool expired) {\n        return (block.timestamp > _terminationDate);\n    }\n\n    /**\n     * Checks if the commit period is still active for the specified poll\n     * @dev Checks isExpired for the specified poll's commitEndDate\n     * @param _challengeID Integer identifier associated with target poll\n     * @return Boolean indication of isCommitPeriodActive for target poll\n     */\n    function commitPeriodActive(uint _challengeID) constant public returns (bool active) {\n        // require(challengeExists(_challengeID) > 0);\n\n        Challenge storage _challenge = challenges[_challengeID];\n        return !isExpired(_challenge.commitEndDate);\n    }\n\n    function vote(uint _challengeID, uint _tokenAmount, string _data) external {\n        require(commitPeriodActive(_challengeID));\n\n        // try to convert _data string to a valid _voteOption\n        uint _voteOption;\n        if (keccak256(abi.encodePacked(_data)) == keccak256(abi.encodePacked(\"1\"))) {\n            _voteOption = 1;\n        } else if (keccak256(abi.encodePacked(_data)) == keccak256(abi.encodePacked(\"0\"))) {\n            _voteOption = 0;\n        } else {\n            revert();\n        }\n\n        // get challenge \n        Challenge storage _challenge = challenges[_challengeID];\n\n        // voter can't change his previous vote\n        require(_challenge.tokenStakes[msg.sender] == 0);\n\n        // prevent user from committing to zero node placeholder\n        require(_challengeID != 0);\n\n        // if msg.sender doesn't have enough voting rights,\n        // request for enough voting rights\n        if (voteTokenBalance[msg.sender] < _tokenAmount) {\n            uint remainder = _tokenAmount.sub(voteTokenBalance[msg.sender]);\n            requestVotingRights(remainder);\n        }\n\n        // make sure msg.sender has enough voting rights\n        require(voteTokenBalance[msg.sender] >= _tokenAmount);\n\n        // set voter's tokenStakes\n        _challenge.tokenStakes[msg.sender] = _tokenAmount;\n\n        // adds voter's stake to total amount of tokens staked in this challenge\n        _challenge.stake = _tokenAmount.add(_challenge.stake);\n\n        // apply numTokens to appropriate poll choice\n        if (_voteOption == 1) {\n            _challenge.votesFor = _challenge.votesFor.add(_tokenAmount);\n        } else {\n            _challenge.votesAgainst = _challenge.votesAgainst.add(_tokenAmount);\n        }\n\n        emit _Vote(_challengeID, _tokenAmount, msg.sender);\n    }\n\n    function claimChallengeReward(uint _challengeID) public {}\n\n    function claimVoterReward(uint _challengeID) public {}\n\n    function exit(bytes32 _listingHash, string _data) external {\n        emit _ListingExited(_listingHash);\n    }\n\n    // Helpers/optional functions\n    function isWhitelisted(bytes32 _listingHash) public view returns (bool whitelisted) {\n        return listings[_listingHash].whitelisted;\n    }\n\n    function challengeExists(bytes32 _listingHash) public view returns (uint lastChallengeID) {\n        uint challengeID = listings[_listingHash].challengeID;\n\n        if (challengeID == 0 || !challenges[challengeID].resolved) {\n            return 0;\n        }\n\n        return challengeID;\n    }\n\n    /**\n     * Determines if poll is over\n     * @dev Checks isExpired for specified poll's revealEndDate\n     * @return Boolean indication of whether polling period is over\n     */\n    function challengeEnded(uint _challengeID) constant public returns (bool ended) {\n        // require(challengeExists(_challengeID) > 0);\n\n        return isExpired(challenges[_challengeID].commitEndDate);\n    }\n\n    /**\n    * Determines whether voting has concluded in a challenge for a given listingHash. Throws if no challenge exists.\n    * @param _listingHash A listingHash with an unresolved challenge\n    */\n    function challengeCanBeResolved(bytes32 _listingHash) public view returns (bool) {\n        uint challengeID = listings[_listingHash].challengeID;\n        require(challengeExists(_listingHash) > 0);\n\n        return challengeEnded(challengeID);\n    }\n\n    function voterReward(address _voter, uint _challengeID) public view returns (uint tokenAmount) {\n        return 100;\n    }\n\n    function challengeReward(address _applierOrChallenger, uint _challengeID) public view returns (uint tokenAmount) {\n        return 300;\n    }\n\n    /**\n     * Returns true if apply was called for this listingHash\n     * @param _listingHash The listingHash whose status is to be examined\n     */\n    function appWasMade(bytes32 _listingHash) view public returns (bool exists) {\n        return listings[_listingHash].applicationExpiry > 0;\n    }\n\n    /**\n     * Gets the parameter keyed by the provided name value from the params mapping\n     * @param name The key whose value is to be determined\n     * @return name The key whose value is to be determined\n     */\n    function get(string name) public view returns (uint value) {\n        return params[keccak256(abi.encodePacked(name))];\n    }\n\n    /**\n     * Sets the param keyed by the provided name to the provided value\n     * @param name The name of the param to be set\n     * @param value The value to set the param to be set\n     */\n    function set(string name, uint value) private {\n        params[keccak256(abi.encodePacked(name))] = value;\n    }\n}",
  "sourcePath": "/home/marto/projects/opencurator/contracts/SimpleTCR.sol",
  "compiler": {
    "name": "solc",
    "version": "0.4.24+commit.e67f0147.Emscripten.clang"
  },
  "schemaVersion": "2.0.0",
  "updatedAt": "2019-02-17T05:18:07.731Z"
}